:020000040800F2
:10000000B80B0020351F0008A1050008A305000853
:10001000A7050008AB050008AF05000800000000B8
:10002000000000000000000000000000B305000810
:10003000B505000800000000B7050008B905000874
:100040004F1F00084F1F00084F1F00084F1F0008D8
:100050004F1F00084F1F0008D11500081F16000889
:10006000D91600084F1F00084F1F00084F1F000837
:100070004F1F00084F1F00084F1F00084F1F0008A8
:100080004F1F00084F1F00084F1F00084F1F000898
:100090004F1F00084F1F00084F1F000803170008DC
:1000A0004F1F00084F1F00084F1F00084F1F000878
:1000B000AF190008A11800084F1F00084F1F0008C3
:1000C0004F1F00084F1F00084F1F00084F1F000858
:1000D0004F1F0008751400084F1F00084F1F00082D
:1000E0004F1F00084F1F00084F1F00084F1F000838
:1000F0004F1F00084F1F00084F1F00084F1F000828
:100100004F1F00084F1F00084F1F00084F1F000817
:100110004F1F00084F1F00084F1F00084F1F000807
:100120004F1F00084F1F00084F1F00084F1F0008F7
:1001300000F002F800F090F80AA090E8000C824469
:100140008344AAF10107DA4501D100F085F8AFF246
:10015000090EBAE80F0013F0010F18BFFB1A43F0A5
:1001600001031847C8830000E8830000103A24BF49
:1001700078C878C1FAD8520724BF30C830C144BF0C
:1001800004680C607047000000230024002500264E
:10019000103A28BF78C1FBD8520728BF30C148BFEA
:1001A0000B6070476E2904F08A80702904F0E183A7
:1001B000662906F07084652906F06D84672906F0CB
:1001C0006A84612906F0698403681B0A28BF41F02C
:1001D0008001692903F0DC86642903F0D98675293A
:1001E00003F0D6866F2904F06F83782904F0AD837D
:1001F000E92904F00983E42904F00683F52904F0D1
:100200000383EF2904F06C83F82904F0AC830368BE
:10021000DB0928BF41F08001632904F0C7857329F9
:1002200004F0CC85E32904F0D785F32904F0DC85BC
:10023000002070471FB504F0A7FB04000020002138
:1002400005F044FC401C60600020002105F028FC03
:10025000E0601FBD10B510BD04F05CFE1146FFF755
:10026000E9FF00F03DF804F083FE03B4FFF7F2FF6E
:1002700003BC04F0C7FE00002DE9F0470546A9487D
:10028000006806F02BFA0746294606F084FB044670
:10029000A5480168204606F089FBA4490860A448E7
:1002A000006806F01BFA8246A0480168504606F036
:1002B00075FA80469F480068404206F00FFA824671
:1002C000214606F06BFA8146414606F06FFB074671
:1002D00006F0E8F90646944804603046BDE8F08729
:1002E00088B014208F49086000209349086040F2CC
:1002F00083309249086001F0CFFB4FF4E13000F009
:10030000D7FF8FA1934801F091F800F0B3FD01F001
:1003100091FA4FF4A06002F0B1FB00F071FD01F022
:10032000BDF800F0E1FC002000F0A1FA002000F090
:10033000ACFA00F0FFFA00F0DAFA00F0C7FE00F0C5
:10034000CAFD01F009FA1021834801F022FF0821BB
:10035000814801F01CFF002143F2C72001F021FA7F
:1003600001F070FDDDE00A237C4A7D497D4800F004
:1003700038FE7A4801687A48006806F09DF883469E
:1003800006F000F8804605F07BFA6FF0B30100FB41
:1003900001FA504605F0EAFD0646734A734B05F034
:1003A0008DFC044605F0A8FB6E4908606B480168A7
:1003B0006C48006806F080F8834605F0E3FF80464D
:1003C00005F05EFAB42100FB01FA504605F0CEFDBF
:1003D0000646654A654B05F071FC044605F08CFB4A
:1003E0005F490860084601685E48006806F064F8E6
:1003F000834605F0C7FF804605F042FAB42100FBB2
:1004000001FA504605F0B2FD0646574A574B05F033
:1004100055FC044605F070FB504908600A2107208E
:1004200001F06CFD524908800846008806F06EF91C
:10043000804605F0A7FF06464FF066324D4B05F0AB
:10044000ADFD044605F058FB4B49086008460068BE
:1004500005F098FF8046494A494B05F09FFD064646
:100460000022484B05F098FE044605F045FB46493E
:1004700008602C480068C0F5B47000034349086068
:100480002849096801EB811202EBC11101F1390021
:1004900001F0EBFB43F2C721081A2849086008461F
:1004A0000068002801DA002008602448006843F250
:1004B000C721884202DD0846204908601F480068BD
:1004C00000280BDB1D48006843F2C721884205DC89
:1004D0001A48008881B22E4803F00AFA4FF4FA70E5
:1004E00001F017FB2B48006805F04CFF04460D4651
:1004F0002948006805F046FF06460F461C4800885C
:10050000CDE9044506900C4800680C490968CDE91E
:100510000067CDE902100348204902680D4800F049
:1005200085FF20E724000020400000204400002038
:100530002C000020280000200C00002008000020D3
:1005400020486172647761726520696E6974204F1A
:100550004B0D0A000038014000080140380000201F
:1005600034000020300000201F85EB51B81E0940E8
:100570000000002066664A3F2000002046175D7498
:10058000D1455B40008076401C0000203C000020EC
:10059000000800400400002018000020E484000847
:1005A000704700BFFEE700BFFEE700BFFEE700BFE9
:1005B000FEE7704770477047704700000CB5002099
:1005C000019000906C48006840F480306A490860EF
:1005D00000BF6948006800F4003000900198401C9A
:1005E0000190009818B90198B0F5A06FF1D1624858
:1005F000006800F4003010B10120009001E00020FC
:1006000000900098012843D15C48006840F0100039
:100610005A4908600846006820F003000860084650
:10062000006840F002000860534840685249486042
:100630000846406848600846406840F4806048606A
:100640000846406820F47C1048600846406840F442
:10065000E81048600846006840F08070086000BFFD
:100660004548006800F000700028F9D04248406812
:1006700020F00300404948600846406840F002000E
:10068000486000BF3C48406800F00C000828F9D1E1
:100690000CBD10B5FFF792FF10BD10B536480068CD
:1006A00040F0010034490860084640683449084079
:1006B0003149486008460068324908402E490860C0
:1006C0000846006820F4802008600846406820F44E
:1006D000FE0048604FF41F008860FFF7DAFF4FF01C
:1006E00000602949086010BD10B5002100200022DB
:1006F000214B5B6803F00C0121B1042906D00829C5
:1007000028D107E0214B224C236027E01F4B204CCF
:10071000236023E0184B5B6803F47010164B5B6892
:1007200003F48032022303EB904022B9194B434378
:10073000174C23600DE0104B5B6803F4003323B1CA
:10074000144B4343124C236003E0104B4343104CC3
:10075000236003E00D4B0E4C236000BF00BF064B2F
:100760005B68C3F303130C4CE15C094B1B68CB4083
:10077000074C236010BD0000001002400020024022
:100780000000FFF8FFFFF6FE08ED00E000127A001F
:100790004800002000093D004C00002010B5402119
:1007A000F84801F0F4FC8021F64801F0F2FC8021C9
:1007B000F44801F0ECFC10BD10B54021F14801F007
:1007C000E6FC4021EF4801F0E4FC10BD70B50446A2
:1007D00000251BE04021EB4801F0DBFC04F0800029
:1007E00020B18021E74801F0D2FC03E08021E548F8
:1007F00001F0CFFC4021E34801F0C9FC4021E14871
:1008000001F0C7FC6006040E681CC5B2082DE1DBD0
:1008100070BD10B58021DB4801F0B9FC4021D948FA
:1008200001F0B5FC8021D74801F0B3FC4021D54848
:1008300001F0AFFC10BD70B505460C46FFF7E9FFAF
:100840007820FFF7C3FFFFF7B7FF1CB14020FFF789
:10085000BDFF02E00020FFF7B9FFFFF7ADFF28461C
:10086000FFF7B4FFFFF7A8FFFFF798FF70BD10B5C3
:1008700004461CB90021A620FFF7DDFF012C03D19F
:100880000021A720FFF7D7FF10BD10B504463CB9E3
:100890000021C820FFF7CFFF0021A120FFF7CBFFE9
:1008A000012C07D10021C020FFF7C5FF0021A020A7
:1008B000FFF7C1FF10BD10B500218D20FFF7BBFF72
:1008C00000211420FFF7B7FF0021AF20FFF7B3FF8F
:1008D00010BD10B500218D20FFF7ADFF00211020C5
:1008E000FFF7A9FF0021AF20FFF7A5FF10BD70B5EE
:1008F00000241CE004F1B001C8B20021FFF79BFF07
:1009000000210846FFF797FF00211020FFF793FF13
:10091000002508E09C4901EBC501085D0121FFF7B6
:100920008AFF681CC5B2802DF4DB601CC4B2082CA1
:10093000E0DB70BD70B500240CE0002506E000206F
:10094000914901EBC5010855681CC5B2802DF6DB45
:10095000601CC4B2082CF0DBFFF7C9FF70BD70B596
:100960000A46CE1701EB5676C6F3C703CE1701EB46
:100970005676F610A1EBC606F4B20122A240D5B21B
:10098000814A02EBC002D25C2A437F4E06EBC006CE
:10099000F25470BD70B50B46CE1701EB5676C6F318
:1009A000C702CE1701EB5676F610A1EBC606F4B2DD
:1009B0000123A340DDB2744B03EBC0039B5CDB431C
:1009C000714E06EBC006B3546F4B03EBC0039B5C48
:1009D0002B436D4E06EBC006B3546B4B03EBC003C9
:1009E0009B5CDB43684E06EBC006B35470BD2DE93B
:1009F000F04306460F469046002544463BE03A1B2E
:100A0000D1B27219D0B2FFF7AAFF3A1BD1B2721B52
:100A1000D0B2FFF7A4FF3A19D1B2721BD0B2FFF7E0
:100A20009EFF3A19D1B27219D0B2FFF798FF7A1926
:100A3000D1B23219D0B2FFF792FF7A1BD1B232197C
:100A4000D0B2FFF78CFF7A1BD1B2321BD0B2FFF7C6
:100A500086FF7A19D1B2321BD0B2FFF780FF6D1C2E
:100A600005FB05F004FB040008FB1809B9F1000FB1
:100A700001DD641E6D1E6000604308FB08F18842C2
:100A8000BDDABDE8F0832DE9FF4F81B080460E4608
:100A90001C4600962046E31704EB5373DB102146F7
:100AA0004FEAE47C04EB5C7C4FEAEC0CA4EBCC0C4E
:100AB000BCF1000F02D04FF0010C01E04FF0000C30
:100AC0006344224604EBD27C4FEA6C0C03FB0CF32C
:100AD00003F0FF0B03982038C7B2002547E00C2C29
:100AE00007D107EB4700294901EB800010F805A06A
:100AF00014E0102C05D1264800EB071010F805A0D3
:100B00000CE0182C07D107EBC700224901EB80004D
:100B100010F805A002E005B0BDE8F08F4FF0000925
:100B20001FE00AF0800020B131464046FFF717FF72
:100B300003E031464046FFF72DFF4FEA4A604FEA97
:100B4000106A701CC6B20098301AA04205D1009EEF
:100B500008F1010000F0FF0806E009F1010000F0D3
:100B6000FF09B9F1080FDCDB00BF681CC5B25D45A9
:100B7000B5DB00BFCFE7F0B506460F4614461D466D
:100B80001EE00000000C0140A00000208E6B000859
:100B900002700008F275000822782B46394630466C
:100BA000FFF771FF284605EBD07106EB6101CEB26D
:100BB000C5F18000B04202DA0026B81CC7B2641C3E
:100BC0002078202802DB20787E28E5DDF0BD10B5F6
:100BD0000246012000E050430B1EA1F10104E1B2E6
:100BE000F9D110BD2DE9F04F06468A4691461F46C1
:100BF000099C00252CE0781B401EC1B20A20FFF79B
:100C0000E6FFB9FBF0F00A21B0FBF1F201FB12089C
:100C1000B8F1000F0CD1A34604EBDB71491001FBC6
:100C20000561C8B2234630225146FFF72CFF0DE084
:100C3000A34604EBDB71491001FB0561C8B208F162
:100C40003001CAB223465146FFF71DFF681CC5B2EA
:100C5000BD42D0DBBDE8F08F70B504460D4605F10E
:100C6000B001C8B20021FFF7E6FD102141EA1410DF
:100C70000021FFF7E0FD04F00F0141F00100002129
:100C8000FFF7D9FD70BD2DE9F05F05460E4617460A
:100C90009846DDF828B04FF00009CA460024E11755
:100CA00004EB5171C910A4EBC10101B901E0601C52
:100CB000C4B2344614E021462846FFF7CDFFAA46C9
:100CC0000AE01BF809000121FFF7B5FD09F1010950
:100CD0000AF1010000F0FF0ABA45F2DB601CC4B261
:100CE0004445E8DBBDE8F09F08B50121082001F08C
:100CF0005DFCC020ADF8000010208DF8030003203B
:100D00008DF8020069463D4801F094F9C0213B4846
:100D100001F03DFA0021AE20FFF78DFD00210846CD
:100D2000FFF789FD00211020FFF785FD00214020FD
:100D3000FFF781FD00218120FFF77DFD0021CF20FD
:100D4000FFF779FD0021A120FFF775FD0021C820E4
:100D5000FFF771FD0021A620FFF76DFD0021A820FF
:100D6000FFF769FD00213F20FFF765FD0021D3203B
:100D7000FFF761FD00210846FFF75DFD0021D5204A
:100D8000FFF759FD00218020FFF755FD0021D920F4
:100D9000FFF751FD0021F120FFF74DFD0021DA2082
:100DA000FFF749FD00211220FFF745FD0021DB2060
:100DB000FFF741FD00214020FFF73DFD00212020ED
:100DC000FFF739FD00210220FFF735FD00218D20BE
:100DD000FFF731FD00211420FFF72DFD0021A42095
:100DE000FFF729FD0021A620FFF725FD0021AF20F8
:100DF000FFF721FDFFF79EFD08BD0000000C01403C
:100E000008B50121042001F0D1FB0120ADF800005C
:100E100048208DF803006946154801F00BF90220BF
:100E2000ADF8000048208DF803006946104801F035
:100E300001F90420ADF8000048208DF80300694650
:100E40000B4801F0F7F82020ADF8000048208DF89D
:100E500003006946064801F0EDF84020ADF80000B7
:100E600048208DF803006946014801F0E3F808BD09
:100E70000008014008B50121082001F097FB04207B
:100E8000ADF8000010208DF8030003208DF802005B
:100E90006946044801F0CEF80421024801F077F9D0
:100EA00008BD0000000C014070B505460C4600F07E
:100EB00026F9A62000F0A8F900F084F9284600F0F1
:100EC000A3F900F07FF9204600F09EF900F07AF9CE
:100ED00000F02CF970BD10B50B213120FFF7E4FFB5
:100EE0000B212C20FFF7E0FF08212D20FFF7DCFF6E
:100EF00080212E20FFF7D8FF00211E20FFF7D4FF0E
:100F000000211F20FFF7D0FF05212020FFF7CCFF95
:100F100010BD70B50446002500F0F1F8A62000F0E1
:100F200073F900F04FF90546204600F06DF900F026
:100F300049F9054600F0E3F8A72000F065F900F054
:100F400041F90546002000F082F9054600F0EEF870
:100F5000284670BD2DE9FC4105460E46174600F0B7
:100F6000CEF8A62000F050F900F02CF9322000F065
:100F70004BF900F027F900F0C2F8A72000F044F97F
:100F800000F020F900240EE0052C05D1002000F02F
:100F90005EF90DF8040004E0012000F058F90DF8A6
:100FA0000400601CC4B2062CEEDB00F0BFF89DF814
:100FB00000009DF8011000EB012000B228809DF890
:100FC00002009DF8031000EB012000B230809DF874
:100FD00004009DF8051000EB012000B23880BDE848
:100FE000FC812DE9FE4304460D4616461F460020AF
:100FF000206028603060002F45D0804626E06A4699
:1010000001A902A8FFF7A6FFBDF9080005F066FBDD
:101010008146216805F0E2F92060BDF9040005F081
:101020005DFB8146296805F0D9F92860BDF900000B
:1010300005F054FB8146316805F0D0F93060052099
:1010400000F067FD08F1010000F0FF08B845D6DBAD
:10105000384605F05BFB81464946206805F02CFACE
:101060002060384605F052FB81464946286805F065
:1010700023FA2860384605F049FB81464946306826
:1010800005F01AFA3060BDE8FE83000008B54FF4A1
:101090008060ADF8000003208DF8020010208DF86C
:1010A000030069467F4800F0C5FF08BD08B54FF44E
:1010B0008060ADF8000003208DF8020048208DF814
:1010C00003006946774800F0B5FF08BD08B5012167
:1010D000082001F06BFA4FF44060ADF800001020DA
:1010E0008DF8030003208DF8020069466D4800F07A
:1010F000A1FF4FF440616B4801F049F808BD10B5FD
:10110000FFF7C4FF0120684908606849C1F8AC01D5
:10111000052000F0DAFC002063490860052000F09B
:10112000D4FC00206149C1F8AC0110BD10B5FFF737
:10113000ADFF00205C49091D08605C49C1F8A801A9
:10114000052000F0C2FC01205749091D08605749DD
:10115000C1F8A801052000F0B8FC10BD10B50020B2
:101160005149091D0860FFF791FF00204F49C1F860
:10117000A801022000F0A9FC01204B49091D0860CC
:10118000052000F0A2FC00204849C1F8AC0110BDC8
:1011900010B500204449091D0860FFF777FF0120C2
:1011A0004249C1F8A801022000F08FFC01203E490D
:1011B000091D0860022000F088FC00203B49C1F8AE
:1011C000AC0110BD10B50024FFF770FF01203649B7
:1011D000086000F07AFC01203449C1F8AC0100F04D
:1011E00074FC07E0601CC4B2FA2C03DDFFF79EFF1D
:1011F000012010BD2C48803800680028F2D12A490F
:10120000091D086000BFF4E770B504460025FFF72C
:101210003DFF00202449091D086000BF14E0E009DB
:10122000214908606006040E01202049C1F8AC0184
:10123000022000F04AFC00201B49091D0860022022
:1012400000F043FC681CC5B2082DE8DB70BD70B52A
:10125000054600260024FFF729FF00BF17E0002005
:101260001149091D0860022000F02FFC01200F49E0
:10127000C1F8AC016006040E0B488038006808B164
:10128000601CC4B2012000F020FC701CC6B2082E05
:10129000E5DB15B9FFF77CFF01E0FFF75FFF2046B4
:1012A00070BD0000000C0140A88121420080214255
:1012B00010B586B004460121042001F077F9012120
:1012C000880301F073F918208DF817004FF40070AF
:1012D000ADF8140003208DF8160005A96B4800F046
:1012E000A9FE04208DF817000002ADF814000320B9
:1012F0008DF8160005A9654800F09CFE01940020B9
:10130000ADF810000C20ADF80E000020ADF80C0078
:10131000ADF80A00ADF8080001A95D4801F0EDF94B
:1013200001215B4801F075FA012240F2255158482D
:1013300001F07BFA25208DF8000001208DF80300D4
:1013400000208DF8010002208DF80200684601F0AF
:101350009AFB06B010BD10B586B0044601210820E6
:1013600001F024F90121880401F02DF918208DF8ED
:1013700017004FF48060ADF8140003208DF81600BC
:1013800005A9444800F056FE04208DF817004002DD
:10139000ADF8140003208DF8160005A93D4800F0B3
:1013A00049FE01940020ADF810000C20ADF80E00AD
:1013B0000020ADF80C00ADF80A00ADF8080001A956
:1013C000354801F09AF90121334801F022FA01224F
:1013D00040F22551304801F028FA27208DF800000E
:1013E00001208DF8030000208DF801008DF8020027
:1013F000684601F048FB06B010BD2DE9F0410746F4
:101400000C46154600260DE014F8011B384601F085
:101410006DFA00BF4021384601F0D6FA0028F9D015
:10142000701C86B2AE42EFDBBDE8F0810FB430B580
:10143000CBB0054601AC50A800904FF4947101A8C0
:10144000009B4F9A02F04CFD002000900BE014F836
:10145000011B284601F04AFA00BF4021284601F04E
:10146000B3FA0028F9D020780028F0D14BB030BC76
:101470005DF814FB10B540F22551054801F0BAFAA9
:1014800018B12021024801F0ACFA10BD000801405B
:1014900000380140000C0140004800400EB5012119
:1014A000084601F083F8FFF7ABFC0521002000F0AF
:1014B000D7FE2020019000208DF808000C208DF828
:1014C000090001208DF80A0001A802F061FA062146
:1014D000002000F0C5FE4020019000208DF808009B
:1014E0000C208DF8090001208DF80A0001A802F0F7
:1014F0004FFA17208DF8000002208DF8010001201E
:101500008DF802008DF80300684601F0BCFA002156
:10151000084600F0A5FE0120019000208DF808008B
:1015200008208DF8090001208DF80A0001A802F0BA
:101530002FFA06208DF8000002208DF801008DF8AA
:10154000020001208DF80300684601F09CFA012199
:10155000002000F085FE0220019000208DF8080098
:1015600008208DF8090001208DF80A0001A802F07A
:101570000FFA07208DF8000002208DF801008DF889
:10158000020001208DF80300684601F07CFA022178
:10159000002000F065FE0420019000208DF8080076
:1015A00008208DF8090001208DF80A0001A802F03A
:1015B000EFF908208DF8000002208DF801008DF869
:1015C000020001208DF80300684601F05CFA0EBDB0
:1015D00010B50A2000F09DFA5B48006801281AD176
:1015E0005A48006808B9012000E000205749086007
:1015F00057480068401F56490860084600681E2882
:1016000002DD0020086006E051480068002802DA88
:101610001E204F490860012002F031FA10BD10B5BC
:101620000A2000F076FA4848001D006801284FD1D2
:101630004648006808B9012000E0002043490860DE
:1016400043480068401D42490860084600681E285B
:1016500002DD0020086006E03D480068002802DA4C
:101660001E203B4908603A4800680F281CD005DC62
:1016700058B105280ED00A2829D110E0142818D016
:1016800019281BD01E2822D11DE040F28330314999
:1016900008601CE04FF443702E49086017E04FF4D7
:1016A0002F702C49086012E040F27620294908602A
:1016B0000DE040F226202749086008E04FF4D7707B
:1016C0002449086003E0DC202249086000BF00BF15
:1016D000022002F0D4F910BD10B50A2000F019FA6A
:1016E0001948001D0068012807D11848006808B98A
:1016F000012000E0002015490860042002F0BFF935
:1017000010BD10B50A2000F004FA0F48143000682C
:1017100050B90E48006808B9012000E000200B49CC
:101720000860202002F0ABF907481830006850B973
:101730000648006808B9012000E00020034908605D
:10174000402002F09CF910BD000121428881214215
:10175000240000200800002008B50121042000F02A
:1017600025FF10208DF803001820ADF8000003209D
:101770008DF8020069462C4800F05CFC012108202D
:1017800000F014FF18208DF803004FF48070ADF8BE
:10179000000003208DF802006946244800F04AFC4E
:1017A00008BD30B589B005460C460121042000F083
:1017B0000AFF0121082000F0F9FE4FF48070ADF817
:1017C000200018208DF8230003208DF8220008A99E
:1017D000164800F02FFC4FF48071144800F0D7FC3D
:1017E000ADF81850ADF814400020ADF81A00ADF86F
:1017F000160005A90E4801F083FA7020ADF8040028
:101800000120ADF806000020ADF80C0001A9084841
:1018100001F042FB0821064801F014FF01210448B1
:1018200001F0CAFD09B030BD00080140000C0140C4
:10183000000800401FB50121022000F0C4FE012174
:101840007E4802F093F840F2E730ADF8080041F628
:101850001F40ADF804000020ADF80A00ADF8060006
:1018600001A9764801F04CFA01221146734801F0B3
:10187000BEFD0121714801F09FFD4FF4C06001F0F1
:10188000FDF81D208DF8000000208DF801000120DA
:101890008DF802008DF80300684601F0F4F81FBDD2
:1018A00070B50121654802F050F8012850D100219F
:1018B0006348006805F03EF804D861480068614953
:1018C000086005E05E48006880F000405D490860FF
:1018D0005C48006804F056FD044622460B465AA1B7
:1018E0005C4802F017FB10235A4A00210846FFF714
:1018F00042F95448006804F045FD044622460B4670
:1019000055A1544802F006FB1023524A1946002004
:10191000FFF731F9534854A102684E4802F0FAFA31
:1019200010234C4A20210020FFF725F9504851A1EF
:101930000268484802F0EEFA1023464A302100209F
:10194000FFF719F9FEF7D3FF01213C4802F00EF82A
:1019500070BD7FB505460C460121084600F033FEF8
:10196000ADF80850ADF804400020ADF80A00ADF81D
:10197000060001A94FF0804001F0C2F90122114692
:10198000900701F034FD1C208DF8000000208DF838
:10199000010003208DF8020001208DF80300684645
:1019A00001F071F80121880701F006FD7FBD10B537
:1019B0000121880701F0C9FF00283DD021480068B7
:1019C00004F070FE044622462DA1224802F0A2FA3D
:1019D0001023204A00210846FFF7CDF81948006877
:1019E00004F060FE0446224628A11A4802F092FA4A
:1019F0001023184A19460020FFF7BDF819481AA10C
:101A00000268144802F086FA1023124A20210020AE
:101A1000FFF7B1F8164817A102680E4802F07AFAEB
:101A200010230C4A30210020FFF7A5F8FEF75FFFD6
:101A30000121880701F09AFF10BD0000000400405A
:101A40001C000020180000204572726F723A253089
:101A50002E3266008C000020416E676C653A25309E
:101A60002E3266000800002050574D3A25640000D1
:101A70002400002054616E676C653A2530326400A2
:101A80004572726F723A253032640000416E676CA5
:101A9000653A25303264000010B56FF0040001F0A3
:101AA0003CF82E4800682E49B0FBF1F02D49087033
:101AB0000846007800EB4001C1EBC0104FF6FF7103
:101AC00001EAC0002849088010BD0146254A127865
:101AD0004A434FF0E0235A6100229A611A46126984
:101AE00042F001021A6100BF4FF0E022106900F0DD
:101AF00001021AB100F48032002AF5D04FF0E02242
:101B0000126922F001024FF0E0231A6100229A616B
:101B100070470146144A12884A434FF0E0235A6145
:101B200000229A611A46126942F001021A6100BF4E
:101B30004FF0E022106900F001021AB100F4803287
:101B4000002AF5D04FF0E022126922F001024FF096
:101B5000E0231A6100229A617047000048000020CB
:101B600000127A005C0000205E0000202DE9F047A2
:101B7000A7490868002104F0DDFD05D2A4480068EB
:101B800080F00040A2490860A1494868002104F0A3
:101B9000D1FD05D29E48406880F000409C494860D5
:101BA0009B498868002104F0C5FD05D298488068EB
:101BB00080F0004096498860954A9169D06804F0A9
:101BC000F5FE07469248C46881694FF0804004F0F2
:101BD000E5FD80468E48C168404604F0DCFE0646BE
:101BE0008B48C169304604F0F9FB05468848806996
:101BF0008749C8610846C06888618868294604F03A
:101C0000CDFD804682494868214604F0C7FD8146E3
:101C10007F490868394604F0C1FD8246494604F010
:101C2000DDFB0646414604F0D9FB794908610868A6
:101C3000002104F003FD0FD175494868002104F02C
:101C4000FDFC09D172498868002104F0F7FC03D13A
:101C500000206F49486106E06D4A1169506904F03F
:101C6000BDFB6B494861BDE8F08710B50446694883
:101C7000008869490860694804600968024612687A
:101C8000881A04F02BFD6649086063490968634AB5
:101C90001268881A04F022FD5D49C8606148086036
:101CA000002048608860FFF761FF594840695E493D
:101CB00008600846006804F0F5FC10BD2DE9F0410D
:101CC00053490868002104F035FD05D250480068EA
:101CD00080F000404E4908604D494868002104F0FA
:101CE00029FD05D24A48406880F0004048494860D4
:101CF00047498868002104F01DFD05D244488068EA
:101D000080F00040424988604149086A002104F09F
:101D100011FD05D23E48006A80F000403C4908624F
:101D20003B48C0683A4988620A46D168D06A04F0E4
:101D300055FB3749C862086A002104F07FFC1AD0BD
:101D4000334A116AD06A04F0F5FD04D23048006AC3
:101D50002F49C8620FE02E48006A80F000442C48EA
:101D6000C16A204604F0E6FD05D22948006A80F0E9
:101D700000402749C862264A516AD06804F016FE1E
:101D8000234908630846C06848620A46116B906898
:101D900004F004FD05461E4AD16A506804F0FEFCBA
:101DA00006461B4A916A106804F0F8FC0746314663
:101DB00004F014FB0446294604F010FB1449486162
:101DC000BDE8F08110B50446124800881749086044
:101DD0001748046001460968144A1268881A04F01A
:101DE0007DFC0B49C860134808604FF07F50486085
:101DF0001148886011480862FFF760FF0448406995
:101E00000F4908600846006804F04CFC10BD000053
:101E10002005002000000020600000206400002059
:101E2000040000200000A042680000206C00002098
:101E300070000020000070410000FA4300409C4602
:101E40007400002000B587B001214FF4017000F04C
:101E5000ADFB8020ADF8180000208DF81B0003209A
:101E60008DF81A0006A9314800F0E4F84FF400405C
:101E700000F000FB2E4801F00BFE002001908DF8D1
:101E800008008DF809004FF46020039000200490B2
:101E900001208DF8140001A9254801F020FE012140
:101EA000234801F048FE224801F067FE00BF2048A9
:101EB00001F068FE0028FAD11D4801F06DFE00BF58
:101EC0001B4801F06EFE0028FAD107B000BD10B526
:101ED0000446072301222146154801F098FE0121FE
:101EE000134801F068FE00BF0221114801F0D4FF41
:101EF0000028F9D00E4801F0F1FE10BD2DE9F041A7
:101F000007460C460025002608E03846FFF7DFFFAD
:101F10000544C820FFF7D9FD701CC6B2A642F4DB09
:101F2000B5FBF4F080B2BDE8F0810000000801408C
:101F3000002401400948804709480047FEE7FEE7C2
:101F4000FEE7FEE7FEE7FEE7FEE7FEE7FEE7FEE769
:101F500004480549054A064B704700009B060008E7
:101F600031010008B8050020B80B0020B807002098
:101F7000B807002010B50446CC48844208D101219E
:101F8000042000F02DFB0021042000F029FB46E096
:101F9000C748844208D10121082000F021FB00211C
:101FA000082000F01DFB3AE0C248844208D101211C
:101FB000102000F015FB0021102000F011FB2EE096
:101FC000BD48844208D10121202000F009FB0021F6
:101FD000202000F005FB22E0B848844208D101210E
:101FE000402000F0FDFA0021402000F0F9FA16E050
:101FF000B348844208D10121802000F0F1FA002189
:10200000802000F0EDFA0AE0AE48844207D10121B9
:10201000801500F0E5FA0021A01500F0E1FA10BDEE
:1020200010B50121084600F0DBFA0021012000F084
:10203000D7FA10BD2DE9F041024600250026002008
:1020400000230024002791F803C00CF00F0591F83D
:1020500003C00CF0100CBCF1000F03D091F802C0CB
:102060004CEA050591F800C0BCF1000F31D01468AE
:1020700000202BE04FF0010C0CFA00F3B1F800C087
:102080000CEA03069E4220D183004FF00F0C0CFA9D
:1020900003F7BC4305FA03FC4CEA040491F803C0BF
:1020A000BCF1280F06D14FF0010C0CFA00FCC2F86D
:1020B00014C00AE091F803C0BCF1480F05D14FF0FD
:1020C000010C0CFA00FCC2F810C0401C0828D1D347
:1020D0001460B1F800C0BCF1FF0F34DD546800207B
:1020E0002EE000F1080C4FF0010808FA0CF3B1F8EB
:1020F00000C00CEA03069E4221D183004FF00F0C72
:102100000CFA03F7BC4305FA03FC4CEA040491F80B
:1021100003C0BCF1280F05D100F1080C08FA0CF837
:10212000C2F8148091F803C0BCF1480F07D100F148
:10213000080C4FF0010808FA0CF8C2F81080401C97
:102140000828CED35460BDE8F0814FF6FF710180BE
:10215000022181700421C1707047024600209368FB
:102160000B400BB1012000E0002070470146886859
:1021700080B2704702460020D3680B400BB10120AB
:1021800000E0002070470146C86880B270470161D6
:102190007047416170470AB1016100E041617047D9
:1021A000C16070474FF480320A438261816182616D
:1021B00082698269704702460020434B18684FF6D7
:1021C0008073184040EA021008433F4B1860704784
:1021D0003E49C8617047F0B50A460023002400213B
:1021E000002500F00046B6F1004F02D1364EF169ED
:1021F00001E0354E7168C0F3034583B200F4401628
:10220000B6F5401F08D121F070612F4E766826F098
:1022100070662D4F7E6012E000F48016B6F5801FC8
:1022200006D1032606FA05F4A14341F0706106E0E9
:10223000460D360103FA06F6B14341F0706122B152
:10224000460D360103FA06F6314300F00046B6F1BA
:10225000004F02D11C4EF16101E01B4E7160F0BDD8
:1022600030B500228B071C0F0F2303FA04F2164B24
:1022700008338C1053F824309343134C08348D10DA
:1022800044F8253023468C1053F824308C07240F53
:1022900000FA04F423430C4C08348D1044F8253024
:1022A00030BD0A49DC310860704700000008014079
:1022B000000C0140001001400014014000180140D2
:1022C000001C0140002001400000014000002042AD
:1022D000DF48006840F00100DD49086008464068BA
:1022E000DC490840DA49486008460068DA49084095
:1022F000D74908600846006820F480200860084636
:10230000406820F4FE0048604FF41F00886070476A
:10231000CF49096821F48031CD4A1160114609681E
:1023200021F480211160B0F5803F03D0B0F5802FFB
:102330000ED106E0C649096841F48031C44A1160F3
:1023400007E0C349096841F4A021C14A116000E0D7
:1023500000BF00BF704710B50146002200230020D7
:102360004A11012A02D1BA4C236806E0022A02D19E
:10237000B74C236A01E0B64C636A01F01F020124E6
:1023800094401C400CB1012000E0002010BD38B585
:10239000002000900024002500BF3120FFF7DBFF64
:1023A00005460098401C00900098B0F5A06F01D041
:1023B000002DF2D03120FFF7CEFF08B1012400E05C
:1023C0000024204638BD01460020A14A106820F0B4
:1023D000F80040EAC10010607047A04908607047EB
:1023E000024600209A4B586820F47C1042EA010310
:1023F0001843974B586070479849086670470146E4
:102400000020934A506820F0030008435060704752
:102410008F48406800F00C007047014600208C4A4D
:10242000506820F0F00008435060704701460020DB
:10243000874A506820F4E0600843506070470146C6
:102440000020834A506820F4605040EAC100506088
:10245000704729B17E4A527A02437D4B5A7204E09A
:102460007B4A527A82437A4B5A7270477B49D83101
:102470000860704701460020754A506820F44040CB
:102480000843506070470021714A20321170704A31
:1024900082F82010012802D004280AD104E001218A
:1024A0006B4A2032117005E00521694A2032117013
:1024B00000E000BF00BF7047694908607047644989
:1024C000096A0143624A11627047654944390860EC
:1024D000704730B500210022002400235C4D6D6858
:1024E00005F00C0121B1042905D0082923D105E00C
:1024F0005C4D056022E05B4D05601FE0544D6D684A
:1025000005F47012524D6D6805F48034022505EB18
:1025100092421CB9544D554305600BE04C4D6D681B
:1025200005F400351DB1504D5543056002E04D4D99
:102530005543056002E04B4D056000BF00BF444DB0
:102540006D6805F0F0010909484D6B5C0568DD40D8
:1025500045603F4D6D6805F4E061090A434D6B5CD1
:102560004568DD4085603A4D6D6805F46051C90AE3
:102570003E4D6B5C4568DD40C560354D6D6805F4CA
:102580004041890B3A4D6B5CC568B5FBF3F50561BD
:1025900030BD29B12E4A526902432D4B5A6104E0E5
:1025A0002B4A526982432A4B5A61704729B1284A03
:1025B00092690243264B9A6104E0254A926982435C
:1025C000234B9A61704729B1214AD2690243204BBB
:1025D000DA6104E01E4AD26982431D4BDA6170471A
:1025E00029B11B4AD2680243194BDA6004E0184A49
:1025F000D2688243164BDA60704729B1144A1269D7
:102600000243134B1A6104E0114A12698243104BD2
:102610001A61704712494039086070470F49C86411
:1026200070470B49C87170470948406A40F0807094
:1026300007494862704701460020054A92680A40EF
:102640000AB1012000E000207047014988727047FC
:10265000001002400000FFF8FFFFF6FE00004242BB
:102660008004424200127A0000093D0078000020F8
:102670008800002010B50446FB48844209D101219E
:102680008803FFF7ADFF00214FF48040FFF7A8FF5C
:1026900032E0F648844209D101214804FFF7ADFF3A
:1026A00000214FF40030FFF7A8FF25E0F0488442F6
:1026B00009D101218804FFF7A0FF00214FF48020F9
:1026C000FFF79BFF18E0EB48844209D10121C804C1
:1026D000FFF793FF00214FF40020FFF78EFF0BE080
:1026E000E548844208D101210805FFF786FF002153
:1026F0004FF48010FFF781FF10BD2DE9F04786B041
:1027000005460E460024A24600BFA1460027B08918
:1027100000B100BF2F462C8A4CF6FF700440F088B1
:1027200004432C82AC894EF6F3100440B088318902
:102730000843718908430443AC81AC8A4FF6FF40DB
:102740000440B0890443AC8201A8FFF7C2FEC6482A
:10275000874202D1DDF810A001E0DDF80CA0A889C5
:1027600000F4004040B10AEBCA0000EB0A103168E7
:102770004900B0FBF1F807E00AEBCA0000EB0A10D1
:1027800031688900B0FBF1F86420B8FBF0F0040177
:102790002009642101FB1089A88900F4004040B1A0
:1027A000322000EBC900B0FBF1F000F00700044359
:1027B00008E0322000EB09106421B0FBF1F000F0DA
:1027C0000F0004432C8106B0BDE8F0874FF416518A
:1027D000016000218180C18001810C2141810021A3
:1027E0008181704710B502460020108A4FF2FF0326
:1027F00018400B884C8823438C882343CC88234380
:102800001843108210BD0021018041808180C18069
:10281000704721B1828942F40052828104E08289AA
:102820004DF6FF731A4082817047F0B503460024CD
:1028300000260025002040F66A17B94200D100BFEB
:102840001846C1F3421401F01F06012707FA06F5E6
:10285000012C01D10C3004E0022C01D1103000E039
:1028600014301AB107682F43076002E00768AF43CE
:102870000760F0BD1AB1838A0B43838202E0838A2A
:102880008B4383827047028A4FF6F0731A400282AC
:10289000028A0A430282704782894FF2FF731A400C
:1028A000828182890A438281704721B1828942F004
:1028B0000202828104E082894FF6FD731A40828110
:1028C0007047028A4FF6DF731A400282028A0A4377
:1028D0000282704721B1028A42F48042028204E0FF
:1028E000028A4BF6FF731A4002827047C1F3080256
:1028F0008280704701468888C0F30800704781894C
:1029000041F0010181817047028BD2B20283028BB8
:1029100042EA012202837047028B02F47F42028363
:10292000028B0A430283704721B1828A42F020025F
:10293000828204E0828A4FF6DF731A4082827047F7
:1029400021B1828A42F01002828204E0828A4FF62C
:10295000EF731A408282704721B1828A42F00802E6
:10296000828204E0828A4FF6F7731A4082827047AF
:1029700021B1828942F40042828103E08289C2F35C
:102980000E028281704721B1828A42F40062828203
:1029900004E0828A4FF2FF731A4082827047828A73
:1029A0004FF6FB731A408282828A0A438282704702
:1029B00021B1828A42F00202828204E0828A4FF6CA
:1029C000FD731A408282704702460020B1F5007FF5
:1029D00000D100BF13880B400BB1012000E00020A4
:1029E000704701F40072B2F5007F00D100BFCA4306
:1029F0000280704770B502460024002300250020A5
:102A000040F66A16B14200D100BFC1F3421501F091
:102A10001F03012606FA03F3012D02D196893340E4
:102A200006E0022D02D1168A334001E0968A334037
:102A30000C12012606FA04F41688344013B10CB1C6
:102A4000012000E0002070BD10B50022002340F6F8
:102A50006A14A14200D100BF0A1201249440A3B21B
:102A6000DC43048010BD00000038014000440040F9
:102A700000480040004C00400050004031490143F4
:102A8000314A1160704770B5002100230F22C478CD
:102A900004B32D4C246804F4E064C4F5E064210A16
:102AA000C1F10403CA40447804FA03F18478144065
:102AB00021430901254C0678A155047804F01F052F
:102AC0000124AC4005786D11AD0005F1E025C5F895
:102AD000004109E0047804F01F050124AC401C4DBE
:102AE0000678761145F8264070BD1A4A0A4002431E
:102AF000154B1B1F1A60704739B1134A121D12681B
:102B00000243114B1B1D1A6006E00F4A121D12688A
:102B100082430D4B1B1D1A607047042808D14FF0EB
:102B2000E021096941F004014FF0E022116107E062
:102B30004FF0E021096921F004014FF0E02211611A
:102B4000704700000000FA050CED00E000E400E032
:102B500080E100E080FFFF1F10B50446FE4884427C
:102B600008D10121C014FFF73BFD0021E014FFF75D
:102B700037FDC4E0B4F1804F08D101210846FFF7CA
:102B80003CFD00210120FFF738FDB8E0F348844206
:102B900008D101210220FFF730FD00210220FFF7BC
:102BA0002CFDACE0EE48844208D101210420FFF75F
:102BB00024FD00210420FFF720FDA0E0E948844225
:102BC00008D101210820FFF718FD00210820FFF798
:102BD00014FD94E0E448844208D101211020FFF75D
:102BE0000CFD00211020FFF708FD88E0DF4884423B
:102BF00008D101212020FFF700FD00212020FFF750
:102C0000FCFC7CE0DA48844208D101214014FFF743
:102C1000E7FC00216014FFF7E3FC70E0D548844234
:102C200009D10121C804FFF7DBFC00214FF400208B
:102C3000FFF7D6FC63E0D048844209D101210805A2
:102C4000FFF7CEFC00214FF48010FFF7C9FC56E0DF
:102C5000CA48844209D101214805FFF7C1FC00217F
:102C60004FF40010FFF7BCFC49E0C548844208D18E
:102C700001214020FFF7C1FC00214020FFF7BDFCEF
:102C80003DE0C048844208D101218020FFF7B5FC17
:102C900000218020FFF7B1FC31E0BB48844208D11D
:102CA00001218015FFF7A9FC0021A015FFF7A5FC65
:102CB00025E0B648844209D101210804FFF790FCC1
:102CC00000214FF48030FFF78BFC18E0B0488442BD
:102CD00009D101214804FFF783FC00214FF40030A3
:102CE000FFF77EFC0BE0AB48844208D10121880449
:102CF000FFF776FC00214FF48020FFF771FC10BD38
:102D000000220288944B98420ED0994B98420BD0E7
:102D1000B0F1804F08D0914B984205D0904B98422B
:102D200002D0904B984204D14FF68F731A404B88D3
:102D30001A438D4B984207D08C4B984204D04FF6E3
:102D4000FF431A40CB881A4302808B8883850B8807
:102D50000385814B98420BD0854B984208D08B4B12
:102D6000984205D08A4B984202D08A4B984201D1B2
:102D70000B7A038601238382704770B500240022FA
:102D80000023058C4FF6FE7635400584028C83883F
:102D9000048B4FF68F752C40B51E2C400D882C43AC
:102DA000751E2A400D892A434D882A436A4DA84240
:102DB0000BD06F4DA84208D0744DA84205D0744D79
:102DC000A84202D0734DA84213D14FF6F7752A409E
:102DD0004D892A434FF6FB752A408D882A434FF6CA
:102DE000FF652B404FF6FF552B408D892B43CD8936
:102DF0002B4383800483CD888586028470BD70B5A3
:102E0000002400220023058C4FF6EF763540058420
:102E1000028C8388048B48F6FF752C404FF6FF45E3
:102E20002C400D884FF6FF7606EA05252C434FF619
:102E3000DF752A400D8906EA05152A434D8806EA02
:102E400005152A43444DA84202D0494DA8421DD140
:102E50004FF67F752A404D894FF6FF7606EA051535
:102E60002A434FF6BF752A408D8806EA05152A4386
:102E70004FF6FF352B404FF2FF752B408D8906EA48
:102E800085052B43CD8906EA85052B438380048382
:102E9000CD880587028470BD70B500240022002310
:102EA000058C4FF6FF6635400584028C8388848B41
:102EB0004FF68F752C404FF6FC752C400D882C4337
:102EC0004FF6FF552A400D894FF6FF7606EA052595
:102ED0002A434D8806EA05252A431F4DA84202D001
:102EE000234DA8421DD14FF2FF752A404D894FF660
:102EF000FF7606EA05252A434FF6FF352A408D88DE
:102F000006EA05252A434EF6FF752B404DF6FF7560
:102F10002B408D8906EA05152B43CD8906EA051558
:102F20002B4383808483CD888587028470BD70B5F0
:102F3000002200230024058C4EF6FF7635400584E0
:102F4000038C8488828B48F6FF752A404FF6FF4534
:102F50002A400D8820E00000002C014000040040C1
:102F600000080040000C0040001000400014004029
:102F700000340140004C0140005001400054014029
:102F800000180040001C00400020004000400140AC
:102F900000440140004801404FF6FF7606EA05254F
:102FA0002A434DF6FF752B400D8906EA05352B4364
:102FB0004D8806EA05352B43FA4DA84202D0FA4D5A
:102FC000A84208D14BF6FF752C408D894FF6FF764D
:102FD00006EA85152C4384808283CD88A0F8405072
:102FE000038470BD828B4FF2FF331A408283828B41
:102FF0004FF6FF7303EA01231A4382837047F0B54B
:103000000C461546002200210026078C4EF6FF7C58
:1030100007EA0C070784828B018C4FF6FF7707EADB
:10302000043640F6FF473A404FF6FF7707EA052798
:103030003A434FF6FF7707EA03373A43D94FB8428E
:103040000ED0D94FB8420BD0B0F1804F08D0D74F37
:10305000B84205D0D64FB84202D0D64FB84206D1BA
:103060004DF6FF77394046F48057394305E047F67F
:10307000FF57394044F48057394382830184F0BDBF
:10308000828B4FF6F3731A408283828B0A438283CA
:103090007047F0B50C461546002200210026078C2B
:1030A0004FF6FF6C07EA0C070784828B018C4FF602
:1030B000FF7707EA04264FF60C773A404FF6FF7782
:1030C00007EA03172F433A43B64FB8420ED0B64F24
:1030D000B8420BD0B0F1804F08D0B44FB84205D001
:1030E000B34FB84202D0B34FB84206D14FF6FF57A4
:1030F000394046F48077394305E04FF2FF573940B5
:1031000044F48077394382830184F0BD028B4FF20F
:10311000FF331A400283028B4FF6FF7303EA012349
:103120001A4302837047F0B50C4615460022002171
:103130000026078C4FF6EF7C07EA0C070784028B0A
:10314000018C4FF6FF7707EA041640F6FF473A4036
:103150004FF6FF7707EA03373A434FF6FF7707EA60
:1031600005273A438F4FB8420ED08F4FB8420BD04D
:10317000B0F1804F08D08D4FB84205D08C4FB84287
:1031800002D08C4FB84206D14FF6DF77394046F077
:103190001007394305E04FF65F77394044F01007D8
:1031A000394302830184F0BD028B4FF6F3731A405A
:1031B0000283028B0A4302837047F0B50C46154622
:1031C00000220021068C4FF6FE773E400684028BDB
:1031D000018C4FF60C7632407E1C06EA03162E4315
:1031E0003243704EB0420ED06F4EB0420BD0B0F1B1
:1031F000804F08D06D4EB04205D06D4EB04202D027
:103200006C4EB04206D14FF6FD76314044F00106D7
:10321000314305E04FF6F576314044F00106314385
:1032200002830184F0BD70B505460C465D488542B9
:103230000ED05D4885420BD0B5F1804F08D05B4879
:10324000854205D05A48854202D05A48854200D16D
:1032500000E000BF208850B92389A28861882846F1
:10326000FFF7ABFFE1882846FFF79EFF25E02088A7
:1032700004280AD12389A28861882846FFF753FFD2
:10328000E1882846FFF742FF17E0208808280AD186
:103290002389A28861882846FFF7FBFEE18828463B
:1032A000FFF7EEFE09E02389A28861882846FFF730
:1032B000A6FEE1882846FFF795FE70BD2DE9F04196
:1032C00005460C4600260127608808B9022600E062
:1032D0000026A088012801D1022700E001272088CC
:1032E000A0B92389A28861882846FFF766FFE18894
:1032F0002846FFF759FF23893A4631462846FFF70B
:1033000012FFE1882846FFF701FF13E02389A28816
:1033100061882846FFF707FFE1882846FFF7F6FE99
:1033200023893A4631462846FFF747FFE188284679
:10333000FFF73AFFBDE8F0810A884B881A438B8873
:103340001A43CB881A430B891A434B891A438B893A
:103350001A43A0F8442070474FF6FF718180002186
:103360000180C1804180017270470021018041804D
:103370008180C180018141818181C18170470021AB
:1033800001804180012181800021C180018170473D
:103390000021018041808180C18001814181818142
:1033A00070470000002C0140003401400004004040
:1033B00000080040000C004021B1028842F00102E8
:1033C000028004E002884FF6FE731A4002807047C4
:1033D00031B1B0F8442042F40042A0F8442005E0A6
:1033E000B0F84420C2F30E02A0F8442070471AB18E
:1033F00083890B43838102E083898B4383817047F8
:103400008182704741EA0203A0F8483070471AB140
:1034100083890B43838102E083898B4383817047D7
:1034200001894FF6F8721140018170470A46002168
:1034300001894FF68F73194011430181704730B5F0
:1034400004460D4629462046FFF7F0FF208940F04C
:103450000700208130BD2DE9F04104460D46164697
:103460001F46602D06D13B46012231462046FFF71C
:103470005AFE05E03B46012231462046FFF79DFEFD
:1034800029462046FFF7D2FF208940F0070020811F
:10349000BDE8F08130B50C4600210189C9B24FF674
:1034A000FF7505EA0325154325432943018130BDF6
:1034B0002DE9F04105460E4617469846002443463E
:1034C0003A4631462846FFF7E5FF2C894FF6F8705B
:1034D000044044F007044FF68F70044044F0700439
:1034E0002C81BDE8F081F0B504460D4616461F4616
:1034F0003B46324629462046FFF7CCFF208940F460
:1035000080402081F0BD0185828270470A460021FB
:1035100001884FF68F731940114301807047F0B551
:103520000C4615461E460021002200230189028B0D
:10353000038C4FF6F877394021434FF6FC473A4069
:1035400040F201173A434FF6DD773B404FF6FF77E5
:1035500007EA06172F433B43018102830384F0BD32
:103560000A460021018B4FF68F73194011430183E6
:1035700070470A460021018B48F6FF7319404FF649
:10358000FF7303EA02231943018370470A460021AF
:10359000818B4FF68F7319401143818370470A4620
:1035A0000021818B48F6FF7319404FF6FF7303EA41
:1035B000022319438183704721B1028842F08002BF
:1035C000028004E002884FF67F731A400280704741
:1035D00021B1828842F00402828004E082884FF6A2
:1035E000FB731A408280704721B1828842F0080242
:1035F000828004E082884FF6F7731A408280704719
:1036000021B1828842F00102828004E082884FF674
:10361000FE731A40828070470A460021018B4FF6E4
:10362000F77319401143018370470A460021018B4B
:103630004FF2FF7319404FF6FF7303EA0223194359
:10364000018370470A460021818B4FF6F7731940BA
:103650001143818370470A460021818B4FF2FF732B
:1036600019404FF6FF7303EA022319438183704721
:103670000A460021018B4FF6FB7319401143018369
:1036800070470A460021018B4FF6FF3319404FF671
:10369000FF7303EA02231943018370470A4600219E
:1036A000818B4FF6FB7319401143818370470A46A3
:1036B0000021818B4FF6FF3319404FF6FF7303EA69
:1036C00002231943818370470A460021018B4FF67C
:1036D0007F7319401143018370470A460021018B13
:1036E000C1F30E014FF6FF7303EA0223194301836E
:1036F00070470A460021818B4FF67F7319401143B2
:10370000818370470A460021818BC1F30E014FF679
:10371000FF7303EA02231943818370470A4600219D
:10372000018C4FF6FD7319401143018470470A461E
:103730000021018C4FF6F773194011430184704743
:103740000A460021018C4FF6DF7319404FF6FF73D4
:1037500003EA02131943018470470A460021018CD1
:103760004FF67F7319404FF6FF7303EA02131943B4
:10377000018470470A460021018C4FF6FF5319401F
:103780004FF6FF7303EA02231943018470470A4688
:103790000021018C4FF2FF7319404FF6FF7303EACB
:1037A00002231943018470470A460021018C4DF61B
:1037B000FF7319404FF6FF7303EA02331943018484
:1037C000704730B5002301248C40A3B2048C9C4385
:1037D0000484048C02FA01F5ADB22C43048430BD9C
:1037E00030B5002304248C40A3B2048C9C43048491
:1037F000048C02FA01F5ADB22C43048430BD70B5DF
:103800000346002000241846183001258D40ACB234
:103810001D8CA5431D8409B1082909D100EB610065
:10382000056825F0700505600568154305600EE024
:103830000D1FC5F34E052844056825F4E0450560D5
:1038400005684FF6FF7606EA02263543056070BD2F
:1038500021B1028842F00202028004E002884FF6A1
:10386000FD731A400280704721B1028842F00402C1
:10387000028004E002884FF6FB731A400280704712
:1038800021B1828842F08002828004E082884FF673
:103890007F731A408280704702884FF6F7731A4090
:1038A000028002880A430280704782884FF68F7335
:1038B0001A40828082880A438280704702894FF6CC
:1038C000F8731A40028102890A4302817047028913
:1038D0004FF67F731A40028102890A4302817047C2
:1038E0008184704781857047818670470187704762
:1038F00081877047A0F84010704702884FF6FF4359
:103900001A40028002880A43028070470146888E6E
:1039100070470146088F70470146888F70470146FF
:10392000B1F8400070470146888C70470146088D09
:10393000704702460020138A0B400BB1012000E0C3
:1039400000207047CA430282704730B5024600200B
:1039500000230024158A05EA0103958905EA01047C
:1039600013B10CB1012000E0002030BDCA43028237
:1039700070470000002044490860091D0860091DC7
:103980000860091D086041483F49143108607047CC
:1039900000213D498279002A3AD00A46126803681C
:1039A0009A430B461A600A1D126803689A430B1D5E
:1039B0001A60027911440A6803681A430A60324A9D
:1039C0000832126803689A432F4B08331A601A1D95
:1039D000126803689A432C4B0C331A604279102A00
:1039E0000ED11A1F126803681A43274B08331A6056
:1039F0001A1D126803681A43234B0C331A600DE03A
:103A00002149427911440A6803681A430A6005E0B3
:103A1000027911440A6803689A430A6070470021DA
:103A2000016001710C2141710021817170471649BB
:103A3000103109680143144A103211607047014681
:103A40000020114A143212680A400AB1012000E035
:103A5000002070470C49143108607047014600206F
:103A60000022094B1B6803EA0102074B14331B6851
:103A70000B4013B10AB1012000E000207047024959
:103A8000143108607047000000040140FFFF0F0080
:103A900010B50446FA48844208D101214015FEF7CA
:103AA0009FFD00216015FEF79BFD17E0F54884425D
:103AB00008D101210015FEF793FD00212015FEF726
:103AC0008FFD0BE0F048844208D10121C803FEF7C6
:103AD00087FD00214FF40040FEF782FD10BD30B598
:103AE0000246002000235068E84C20400D790C6805
:103AF00044EA0524204350609068E54C2040D1E919
:103B000002542C434D7944EA450420439060D06A26
:103B100020F470000C7C641EE4B2234340EA03509E
:103B2000D06230BD00210160017141718160C160CE
:103B300001210174704721B1826842F00102826064
:103B400003E0826822F001028260704721B182683E
:103B500042F48072826003E0826822F480728260A4
:103B6000704710B50023CBB21AB144681C434460BF
:103B700002E044689C43446010BD816841F0080144
:103B800081607047014600208A6802F008020AB18D
:103B9000012000E000207047816841F0040181604D
:103BA0007047014600208A6802F004020AB1012031
:103BB00000E00020704721B1826842F4A0028260D8
:103BC00003E0826822F4A002826070470146002070
:103BD0008A6802F480020AB1012000E000207047E8
:103BE00010B50A4600210023416821F46041531EAC
:103BF00041EA4331416010BD21B1426842F40062A4
:103C0000426003E0426822F4006242607047F0B50F
:103C100004460D4600200021092D11DDE068A5F1C4
:103C20000A0606EB4607072606FA07F18843A5F1C0
:103C30000A0606EB460603FA06F10843E0600CE0CC
:103C4000206905EB4507072606FA07F1884305EBCF
:103C5000450603FA06F108432061072A0FDA606B74
:103C6000561E06EB86071F2606FA07F18843561EE6
:103C700006EB860605FA06F10843606322E00D2A8A
:103C80000FDA206BD61F06EB86071F2606FA07F110
:103C90008843D61F06EB860605FA06F10843206323
:103CA00010E0E06AA2F10D0606EB86071F2606FA71
:103CB00007F18843A2F10D0606EB860605FA06F128
:103CC0000843E062F0BD21B1826842F48012826054
:103CD00003E0826822F48012826070470146C86C5B
:103CE00080B2704766484C300068704721B1426826
:103CF00042F48062426003E0426822F480624260E3
:103D0000704721B1426842F48052426003E0426849
:103D100022F48052426070470A460021816821F4F3
:103D2000E04111438160704721B1826842F4004252
:103D3000826003E0826822F400428260704721B111
:103D4000826842F40212826003E0826822F4021266
:103D500082607047014600208A6802F400120AB1AE
:103D6000012000E000207047F0B504461546002011
:103D700000220026092911DDE068A1F10A0707EBFE
:103D8000470C072707FA0CF29043A1F10A0707EB4B
:103D9000470703FA07F21043E0600CE0206901EBEB
:103DA000410C072707FA0CF2904301EB410703FA95
:103DB00007F210432061A06BC0F30156EF1C06F11F
:103DC000010CA7EB0C0707EB870C1F2707FA0CF277
:103DD0009043EF1C06F1010CA7EB0C0707EB8707DC
:103DE00001FA07F21043A063F0BD10B50A460021A6
:103DF0000023816B21F44011531E41EA035181637A
:103E000010BD08B5002300930090009B0B44009365
:103E1000009B1A6008BD08B5024600200090009281
:103E200001F12800009B184400900098006880B2BF
:103E300008BD0A4600214168164B194011434160F4
:103E400070474162826270470A460021416821F052
:103E50001F0111434160704740B1094908310968A9
:103E600041F40001064A0832116007E004490831B4
:103E7000096821F40001024A08321160704700000D
:103E80000024014000280140003C0140FFFEF0FFFB
:103E9000FDF7F1FFFFFD3FFF0246002013680B40D6
:103EA0000BB1012000E000207047CA430260704758
:103EB00070B502460020002300240B125568CEB2D4
:103EC00005EA060415681D4015B10CB1012000E09B
:103ED000002070BD00220A12D34303607047000027
:103EE0007CB51D4616460C00009001D02044401EB3
:103EF000074B7B442A4669460190304600F005FC9A
:103F000005461CB10020694600F012FC28467CBD25
:103F1000450800000FB41CB5084B06AA7B4469464F
:103F20000090059800F0F1FB04460020694600F07F
:103F3000FFFB20461CBC5DF814FB000011080000CC
:103F400070B5044685690068C10601D5302600E0D9
:103F50002026C00707D070BDD4E901213046904724
:103F6000206A401C20626D1EF6D570BD70B50446F7
:103F700085690078C00707D170BDD4E901212020F0
:103F80009047206A401C20626D1EF6D570BD00006F
:103F90002DE9F0410646002410687529314616A522
:103FA00010D000F0F8F8002802DA404213A507E02C
:103FB00031688A0701D512A502E0490704D511A589
:103FC000012401E000F0F0F800210A2206F12407A4
:103FD00009E0B0FBF2FCB0FBF2F302FB1C00303056
:103FE00078541846491C0028F3D123462A46304607
:103FF000BDE8F04100F00AB9000000002D0000000B
:104000002B000000200000002DE9F05F89460446E7
:104010004FF0000ADFF874B1FB44C0F820A020463E
:10402000E1688847002874D0252806D0D4E901210A
:104030009047206A401C2062F1E700265F46204638
:10404000E16888472028054607DB312D05D278191D
:1040500010F8200C08B10643F1E7B00701D526F0AF
:104060000406C4F81CA00027C4F818A02A2D09D003
:10407000284601F0FDFB38B304EB8708303DC8F853
:10408000185019E059F8041B204604EB870291618F
:10409000E1688847012F054618D1E069002820DA39
:1040A00026F020061DE0D8F8180000EB800005EB94
:1040B00040003038C8F818002046E16888470546B7
:1040C00001F0D6FB0028EED1012F0AD02E2D08D109
:1040D0002046E16888477F1C0546022F46F02006EF
:1040E000C4DBA069002803DA404246F00106A06163
:1040F000F00701D026F010066C2D0BD0682D09D0EA
:104100004C2D39D06A2D35D0742D35D07A2D33D041
:1041100016E038E0E1682F4620468847B842054659
:1041200009D16C2F26D04FF48060E1680643204609
:104130008847054604E06C2F1AD04FF48070064380
:104140000DB3A5F14100192802D8203546F40066C8
:104150004A462946204626604E46FCF723F880B1A1
:1041600001280BD0F61D26F0070000F1080956E7DC
:104170004020E4E78020D8E70020D6E706F10409D4
:104180004DE7284652E7206ABDE8F09F3243000021
:1041900070477047704709684A0501D540B27047BB
:1041A000C905FCD500B2704709684A0501D5C0B2FF
:1041B0007047C905FCD580B2704770B50C460546FE
:1041C000012A05D02878800600D5EA69002302E09C
:1041D000012305E05B1C934202D2E05C0028F9D188
:1041E000A869E618C01AA861286A184428622846F7
:1041F000FFF7A6FE04E0D5E9012114F8010B904772
:10420000B442F8D32846FFF7B1FE70BD2DE9F04760
:104210000D4699469246044600F124080168880636
:1042200004D5E06921F01001216000E00120A842DE
:1042300001DD471B00E00027A1697A1902EB0900A4
:10424000081AA0612078C00602D42046FFF778FE45
:10425000002608E0D4E901211AF806009047206AF8
:10426000401C761C20624E45F4DB2078C0060AD53F
:104270002046FFF765FE06E0D4E901213020904793
:10428000206A401C2062381EA7F10107F4DC07E019
:10429000D4E9012118F805009047206A401C2062EB
:1042A000281EA5F10105F3DC2046FFF75FFE20780C
:1042B000000602D50220BDE8F0870120FBE7116867
:1042C0000268006A530501D508700AE0D30501D5DC
:1042D000088006E0130603D5C217C1E9000200E01A
:1042E00008600120704770472DE9FF4F0C461E46BD
:1042F0004FF0FF378BB0D2E90001DDF860800A9003
:104300008A46C1F30A5505B93D46002108464FF0DB
:104310000000BAF1000F00F4400005DA00EB800065
:104320004FF4400101EA50004FEA9059B9F1010FF2
:1043300000DDB9460A9850EA4A000ED044F6105003
:10434000A5F2FF3545432F14B8F1000F1ED075427A
:10435000291E1EDDC9F100021CE0B8F1010F4FF06B
:10436000000001D0302103E0F24305E02154401C5D
:10437000B042FBDB30460022002121540B99C1F8EA
:104380000880C1E900200FB0BDE8F08FBD1B6D1C97
:10439000DEE74A4600DA694206A800F029FD06ABCE
:1043A00093E8070003AB83E8070050460A9900F042
:1043B00030FE8DE80700A0F500501F3800900398EC
:1043C000002D09DD42F21F014A46084403A903906B
:1043D000684601F08FF808E0A0F500504A461F3803
:1043E00003A90390684601F099F88DE807000004DE
:1043F000000C03D04FF0FF30410800E01046B8F148
:10440000000F03D00022009215461EE0751E05D451
:1044100000F0BEFA303262556D1EF9D5B346012266
:10442000084302D000227F1C04E02078302801D10C
:1044300000227F1E002A099786D01DE0112D07DA81
:1044400000F0A6FA303262556D1C50EA0102F5D137
:10445000084302D00098C8B10EE00021681E05E0B4
:10446000235C625C63542254401E491C8142F7DB8A
:10447000AB46A81B401E0990002004F80B000B98C7
:10448000099AC0F80880C0E9002B7CE711264FF09C
:10449000000859E72DE9F04F88460446D21D22F066
:1044A000070191B0D1E90001CDE90A0101F06CF9F1
:1044B00002460B98C00F01D02D2007E0206881072D
:1044C00001D52B2002E0202101EAC000032A099037
:1044D00001D0072A05DB03464146204600F01CFCBC
:1044E0000BE12078800601D5E06900E00620B8F1F4
:1044F000650F814606D0B8F1660F18D0B8F1670F86
:1045000070D131E00020B9F1110F009001DB1123CF
:1045100001E009F101030AAA01A90CA8FFF7E4FED2
:10452000DDE90C70002609F10105834647E0012012
:104530004B4600904FF000470AAA01A90CA8FFF7CC
:10454000D3FEDDE90DB00C995D46002610B909F1E6
:1045500001000D18B9EB050003D4C0F1FF3609F1D5
:104560000105A5EB09002BE0B9F1010F01DA4FF0CD
:1045700001090020B9F1110F0090484601DD112317
:1045800000E003460AAA01A90CA8FFF7ADFEDDE989
:104590000C704D4600268346207800070AD4AB45B0
:1045A00000DA5D4601A8012D04DD411911F8011C56
:1045B000302907D04F4502DA17F1040F04DA012041
:1045C00082460FE06D1EEEE7002F02DCED1B3E443D
:1045D00003E0781CA84200DD7D1CB81B00F1010A35
:1045E0004FF000472078000703D4AA4501DB4FF0C5
:1045F000FF3A0021B7F1004F0DF143088DF8431049
:1046000024D002202B23002F01DA7F422D230A2100
:10461000021EA0F1010000DC5FB197FBF1FC97FBEB
:10462000F1F201FB1C7C17460CF1300C08F801CDAF
:10463000EEE7A8F1010003702188090501D54521A5
:1046400000E06521A0F1010800F8011C09980FA9FC
:10465000A1EB0807FF1D00B10120411901EBEA7031
:10466000A1693844081A401EA0612078C00602D40F
:104670002046FFF765FC099828B1D4E9012190474D
:10468000206A401C20622078C00622D52046FFF711
:1046900057FC1EE0002E04DBB34502DD01A8805D5F
:1046A00000E03020D4E901219047206A401C2062BC
:1046B000761CAAF101005FEA000A0AD100F064F951
:1046C000C0680168405CD4E901219047206A401C21
:1046D0002062281EA5F10105DCDC07E0D4E90121F8
:1046E00018F8010B9047206A401C2062381EA7F181
:1046F0000107F3DC2046FFF739FC032011B043E645
:1047000001694A1C02610878704700B58FB0CDE995
:1047100001310021059105497944CDE90310114685
:104720006846FFF771FC0FB000BD0000E5FFFFFF1A
:104730000A6802F8010B0A607047D1E900239A4227
:1047400002D2531C0B601070704700002DE9FF5F10
:1047500015468A460446DFF8AC80F8440027D8E9BD
:1047600000103E46CDE9001010E03AF816106A46F7
:1047700002A800F0ABFB411C07D02178890603D5C5
:10478000E269391891420DD80744761C20788006DA
:1047900002D5E069B84205DDAE42E6DB3AF8160024
:1047A0000028E2D1A069C01BA0612046FFF7C8FB2A
:1047B000D8E90010CDE90010002017E03AF81810F1
:1047C0006A4602A800F082FBB0F1FF3F81460BD0A1
:1047D00000250DF1080B05E0D4E901211BF80500C7
:1047E00090476D1C4D45F7D308F10100B04280465B
:1047F000E4DB206A384420622046FFF7B7FBBDE8BF
:10480000FF9F00009A3C00002DE9F0418046D21D38
:1048100022F007020025D2E90002F52915A614D0DE
:10482000011E72F1000106DA0023D0EB030063EBF6
:10483000020211A608E0D8F800108B0701D50FA6D8
:1048400002E0490701D50EA601251146002408F112
:10485000240704E000F09CF830323A55641C50EA1A
:104860000102F7D12B46324621464046BDE8F041D1
:10487000FFF7CCBC000000002D0000002B00000062
:104880002000000030B4002100F1240408E002F010
:104890000705D208303542EA4372DB086554491CEB
:1048A00052EA0305F3D10468002310A2250708D5B6
:1048B00004F020040C4304D0C46901230CA2641E3C
:1048C000C46130BCFFF7A2BC10B504462146106895
:1048D000FFF76AFC02462046BDE810400023D1E7FE
:1048E000D21D22F00701D1E90023CBE70000000030
:1048F00030000000F0B40D460188090502D5214CB6
:104900007C4402E01F4C7C440E34002100F124065C
:1049100008E002F00F071209E75D42EA03721B0983
:104920007754491C52EA0307F3D102780023120797
:1049300004D5702D06D009B1022311342246F0BCF3
:10494000FFF764BC01231034F8E770B504460D4648
:1049500021461068FFF728FC024629462046BDE89C
:1049600070400023C6E7D21D22F00703D3E90023DD
:10497000C0E70368126843F0200303600823C361A3
:104980000023B7E7FC3A0000004870477405002098
:1049900030B5B0F10A024FEA900E71F100034EEA11
:1049A000817EB0EB0E0061EB91014FEA101E4EEAE2
:1049B000017E10EB0E0041EB11114FEA102E4EEA72
:1049C000016E10EB0E0041EB11214FEA104E4EEA42
:1049D000014E10EB0E0041EB1141401841F1000176
:1049E0004FEAD00040EA41704FEAD10110EB800558
:1049F0004FEA810444EA907444EB01046D1944EBDE
:104A00000404521BA3414FF0000348BF0A3200D5F3
:104A100030BD401C41F1000130BD00002DE9F04FD8
:104A200004460D46D21D22F0070089B0D0E900925D
:104A300048461746394600F0A7FE0246F80F01D057
:104A40002D2307E02068810701D52B2302E02021D8
:104A500001EAC0038DF820300BB1012000E00020F6
:104A6000032A824601D0072A04DB2946204600F0AB
:104A700053F93DE12078800601D40D2500E0E56979
:104A8000C7F30A560D2D49DA00214FEA175B084695
:104A90004FF00000002F00F4400007DA00EB800028
:104AA0004FF4400100EBD07001EA6000811501294C
:104AB00001DD4FF0FF3100224FEA850CBCF1180FE9
:104AC00006D31346ACF118004FF08052C24003E009
:104AD0004FF4801323FA0CF30CF10C0CBCF1200FF3
:104AE00004D3ACF1200C09FA0CF001E007FA0CF049
:104AF00000294FF0004801DD18B90FE00ED1404504
:104B00000CD319EB02095F4121B9404502D19F4303
:104B100029EA0209BBEB175F00D0761C208800054C
:104B200002D57B48784402E079487844193808AACD
:104B3000302302F80A30037C0AF10101002E0AF149
:104B4000020A53546A4602DC4FF0300101E04FF094
:104B500031014FF001088DF8001002D0A6F2FF36A7
:104B600003E059EA470100D06A4E002D02DC2178AB
:104B7000090704D54FF002082E218DF80110C44614
:104B800000210BE0C7F303433F01C35C491C6D1ECA
:104B900002F80830052908F1010801DA002DF1DCDE
:104BA00000210CE000EB1973491C1B786D1E0829CD
:104BB00002F808304FEA091908F1010801DA002D5E
:104BC000F0DC2178890602D514E0A8F10108E0455F
:104BD00005DD02EB080111F8011C3029F5D0B8F110
:104BE000000F07DD02EB080111F8011C2E2901D18D
:104BF000A8F10108002D05DD3E2102F808106D1E08
:104C000008F10108407C002E02F8080008F10108B4
:104C100004DA2D20764202F8080002E02B2002F888
:104C200008000A214FF47A70864208F101080BDB74
:104C300096FBF0F3303302F8083096FBF0F308F1FE
:104C4000010800FB136601E0642E0CDB642096FB78
:104C5000F0F3303302F8083096FBF0F308F1010866
:104C600000FB136601E00A2E06DB96FBF1F0303004
:104C700002F8080008F1010896FBF1F001FB106052
:104C8000303002F80800A16908F1010808EB0502BC
:104C900002EB0A00081AA0612078C00602D4204660
:104CA000FFF74EF9216A08AE01EB0A00206204E02A
:104CB000D4E9012116F8010B9047BAF1010AF7D2A5
:104CC0002078C00602D52046FFF73AF96E4609E083
:104CD00016F8010B3E280FD0D4E901219047206A35
:104CE000401C2062B8F10108F2D22046FFF73EF9DD
:104CF00009B00320BDE8F08F206A2844206203E059
:104D0000D4E90121302090476D1EEBD3F8E7000075
:104D10001339000002FCFFFF2DE9F0411F46044655
:104D200003260168072A01F4006004DB08B116A518
:104D300005E016A503E008B115A500E015A521F0D2
:104D400010002060A069C01EA0610FB1401EA061CC
:104D50002046FFF7F5F84FB1D4E9012138469047D6
:104D6000206A401C2062C01C206206E0206AFAE72C
:104D7000D4E9012115F8010B9047761EF8D22046A0
:104D8000FFF7F4F8BDE8F0814E414E006E616E0011
:104D9000494E4600696E660010B5436913B1AFF322
:104DA000008001E0FFF709FA012010BD127800F140
:104DB00024010A7000224A700122EDE711684FF0C9
:104DC000FF32E9E710B5436913B1AFF3008001E0AA
:104DD000FFF7BCFC012010BD128800F12401828481
:104DE0000022C2840122EDE711684FF0FF32E9E7AB
:104DF0002DE9F047814616468AB0334878440DC8FD
:104E00008DE80D0030487844801C03AC0DC884E860
:104E10000D0041F69B300844372190FBF1F290FBE6
:104E2000F1F5A5F1800501FB12041B3C02D564429B
:104E3000012000E00020DFF890A080460027FA441F
:104E4000AAF1BE0A0DE0E00709D03246684607EB3A
:104E500047010AEB810100F061FB8DE80700641057
:104E60007F1C002CEFD1184F7F44AC3F18E0E807BF
:104E700014D007EB04100DF1180A90E80E008AE830
:104E80000E00C068F04201D198190890324606A978
:104E900003A800F043FB03AB83E807006D10641C1C
:104EA000002DE4D132466946B8F1000F03A802D0C4
:104EB00000F020FB01E000F031FBC9E90001C9F876
:104EC00008200AB0BDE8F087CC36000070B5164661
:104ED0000C46054600F044F8036893F801010128E8
:104EE00006D0FF2C0FD8185D68B101202C7070BD62
:104EF000D3F807013246214603F20713034428463C
:104F0000BDE8704018474FF0FF3070BD0048704753
:104F1000540500207546FFF7F9FFAE4605006946C7
:104F2000534620F00700854618B020B5FDF710F86D
:104F3000BDE820404FF000064FF000074FF000089A
:104F40004FF0000B21F00701AC46ACE8C009ACE81B
:104F5000C009ACE8C009ACE8C0098D467047000044
:104F600010B5FFF711FD001D10BD00BF610B000063
:104F700010B50446AFF300802046BDE81040FBF7B3
:104F800074B900004FF0013C50F8042B51F8043B79
:104F90009A4221D1A2EB0C03934313EACC1317D10D
:104FA00050F8042B51F8043B9A4215D1A2EB0C03A4
:104FB000934313EACC130BD150F8042B51F8043B64
:104FC0009A4209D1A2EB0C03934313EACC13DBD032
:104FD0004FF00000704700BFD01A01BAB1FA81F15A
:104FE00001F0180122FA01F0CB40C1F12001DBB23F
:104FF000C0B2C01A2CFA01F3D11A914311EAC311BD
:10500000E6D1704701491820ABBEFEE7260002003A
:1050100070475FEA400C08BF91F0000F4FEA8C2305
:105020004FEAC12243EA51514FEA1C5018BF00F524
:10503000F0404FEA300018BF41F000415FEA6C5C7D
:1050400000F02980BCF1FF3F08BF40F0804070476E
:10505000130C06BF12044FF0100C4FF0000C130E8F
:1050600004BF12020CF1080C130F04BF12010CF163
:10507000040C930F04BF92000CF1020CD30F04BF79
:1050800052000CF1010C11464FF00002A0F11F007C
:10509000A0EB0C00704711F0004F08BF704731F0D3
:1050A00000413FF4D5AF0B0C06BF09044FF0100CC4
:1050B0004FF0000C0B0E04BF09020CF1080C0B0F93
:1050C00004BF09010CF1040C8B0F04BF89000CF123
:1050D000020CCB0F04BF49000CF1010CCCF12003F2
:1050E000A0EB0C0022FA03F302FA0CF241EA0301EE
:1050F00000F10100704720F07F4C80EA030023F0AC
:105100007F47ACEB070303F57C5300F0004003F14D
:10511000FF032DE980494FEA154B09B44FEA1443C8
:1051200025EA0B4E24EA03480FF2042606EB132768
:1051300049083E785FEA320203FB0667C7F50007BD
:1051400007FB06F64FEA54374FEAD64606F1020649
:1051500007FB066CCCF1005C4FEA1C472CEA074CBD
:1051600007FB06F40CFB06F504EB15464FEA961612
:1051700034BF00204FF000404FEAD13706FB07FC58
:105180004FEA1C4C0CFB0BF7D21B03FB0CF761EB3B
:1051900007010CFB0EF7B0EB074072EB17420CFB5C
:1051A00008F734BFA2EB0742B2EB074261EB1741AD
:1051B0004FEA0C444FEA910706FB07FC4FEA1C4CF0
:1051C0000CFB0BF7B0EBC74072EB573203FB0CF74D
:1051D00034BFA2EBC742B2EBC74261EB57310CFBC5
:1051E0000EF7B0EBC70072EB57720CFB08F734BF39
:1051F000A2EBC702B2EBC70261EB5771039F4FEA04
:10520000816141EA921104EBCC044FEAD1374FEAB5
:10521000826206FB07FC42EA90124FEA80604FEA86
:105220001C4C0CFB0BF7D21B03FB0CF761EB0701CB
:105230000CFB0EF7B0EB074072EB17420CFB08F7C4
:1052400034BFA2EB0742B2EB074261EB17414FEAD2
:105250008C554FEA910704EB9C2406FB07FC4FEAB0
:105260001C4C0CFB0BF7B0EBC74072EB573203FB47
:105270000CF734BFA2EBC742B2EBC74261EB573128
:105280000CFB0EF7B0EBC70072EB57720CFB08F784
:1052900034BFA2EBC702B2EBC70261EB577115EB4B
:1052A0004C254FEA816141EA92114FEA82624FEA4E
:1052B000D13742EA901206FB07FC44F100044FEAA2
:1052C00080604FEA1C4C0CFB0BF7D21B03FB0CF766
:1052D00061EB07010CFB0EF7B0EB074072EB1742D6
:1052E0000CFB08F734BFA2EB0742B2EB074261EBBD
:1052F000174115EB1C154FEA813141EA92414FEA03
:10530000823242EA90424FEA80304FEA0C7644F112
:10531000000448EA03434EEA0B484FF0000EB2EB9C
:10532000080C71EB030724BF624639464EEB0E0EA4
:105330004FF0000B0018524149414BEB0B0BB2EB05
:10534000080C71EB03077BF1000B24BF6246394662
:105350004EEB0E0E4FF0000B0018524149414BEB43
:105360000B0BB2EB080C71EB03077BF1000B24BFB6
:10537000624639464EEB0E0E51EA020718BF46F060
:10538000010616EB0E7655F1000254F1000103D52B
:10539000BDE88901BDE80088BDE88901BDE8004895
:1053A000B619524141EB0101A3F10103704780801E
:1053B0007F7E7D7C7B7A797877767675747372716F
:1053C00071706F6E6E6D6C6C6B6A6A696868676627
:1053D00066656464636362616160605F5F5E5E5DB9
:1053E0005D5C5C5B5B5A5A5959585857575656552D
:1053F00055555454535352525251515050504F4F8F
:105400004F4E4E4D4D4D4C4C4C4B4B4B4A4A4A49DE
:105410004949484848474747474646464545454421
:105420004444444343434342424242414141002BAE
:1054300026D4770021D01CB54FEA370703B44FF0CC
:1054400010004FF010014FF000000FBCBDE81040FD
:105450000BF1010BBBF1010F08BF5FEA170722BF79
:1054600012F1010211F101014FF0004143F100037B
:1054700000F0004043EA00007047F9D35708DAE72C
:1054800046EA064613F1400F4FEA16461FDD13F1B8
:10549000200FDFBF16430A46002120335B42C8D0ED
:1054A000C3F1200746EA064602FA07F74FEA164616
:1054B00046EA0706C3F1200722FA03F201FA07F7CA
:1054C00021FA03F14FF0000342EA0702B1E746EA8E
:1054D000020646EA06464FEA164646EA0106BCBF01
:1054E00046EA0646360C4FF000034FF000024FF03C
:1054F00000019EE72DE9C048934630B491E838009A
:1055000007C831EA400C48BF34EA430C03D5FFF723
:10551000F2FDFFF78CFFF0BCBDE800882DE9C04824
:10552000934630B491E8380007C810F0804F08BFA8
:1055300013F0804F03D100F005F8FFF778FFF0BCBF
:10554000BDE8008820F07F4780EA030023F07F4C0D
:1055500007EB0C03A3F57C5300F00040A3F1FE031E
:1055600092F0000F00F0B38095F0000F00F077800C
:105570002DE901494FEA11404FEA144621EA00485B
:1055800000FB06FC24EA064708FB06F607FB08F8C2
:1055900000FB07F718EB06484CEB164C4FEA124B92
:1055A00018EB07484FEA15464CEB174022EA0B4E22
:1055B0000BFB06FC25EA06470EFB06F607FB0EFE74
:1055C0000BFB07F71EEB064E4CEB164C4FF000069C
:1055D0001EEB074E4CEB174B18EB0B0840F100008D
:1055E00018EB0E0B58EB000840F100008F1A4FF03B
:1055F00000013CBFC943661B14BFB5EB040C00217E
:105600003CBFC943F61B4FEA17444EEA8E0E27EA09
:1056100004454FEA1C4704FB07622CEA074C05FBD4
:1056200007F70CFB05F604FB0CFC16EB074642EBF8
:10563000174216EB0C4642EB1C421BEB060658EBDE
:105640000202414146EA9E0601D5BDE80189B6192C
:10565000524141EB0101A3F10103BDE801894FEA89
:1056600014454FEA114724EA054621EA074C05FB99
:1056700007F406FB07F70CFB06F105FB0CFC11EB2E
:10568000074144EB17444FEA124711EB0C4144EB3E
:105690001C4422EA074C05FB07F206FB07F70CFB4C
:1056A00006F605FB0CFC16EB074642EB174216EB21
:1056B0000C4642EB1C456A1854F1000148BF704784
:1056C000B619524141EB0101A3F10103704795F076
:1056D000000F37D04FEA11424FEA144721EA024641
:1056E00024EA074C02FB07F106FB07F70CFB06F464
:1056F00002FB0CFC14EB074441EB17414FEA154742
:1057000014EB0C4441EB1C4125EA074C02FB07F566
:1057100006FB07F70CFB06F602FB0CFC16EB074634
:1057200045EB174516EB0C4645EB1C42121951F19F
:10573000000148BF7047B619524141EB0101A3F186
:10574000010370474FEA14454FEA114724EA054622
:1057500021EA074C05FB07F106FB07F70CFB06F2F5
:105760004FF0000605FB0CFC12EB074241EB174122
:1057700012EB0C4251EB1C4148BF7047921841EBB1
:105780000101A3F101037047490050EAC12018BF8D
:1057900004204A0D18BF40F0010040F2FF72B2EB46
:1057A000515F08BF40F00200012808BF0520704784
:1057B0002DE9F0414F1E00EBC7010446D1E900017D
:1057C00015461E4637F006020DD02A46334600F035
:1057D000E5FB7F1E04EBC703D3E9002300F0BEF90D
:1057E00037F00602F1D1022F25D0042F13D0062F57
:1057F00018BFBDE8F0812A46334600F0CFFBD4E95C
:105800000A2300F0ABF92A46334600F0C7FBD4E97F
:10581000082300F0A3F92A46334600F0BFFBD4E981
:10582000062300F09BF92A46334600F0B7FBD4E983
:10583000042300F093F92A46334600F0AFFBD4E985
:10584000022300F08BF92A46334600F0A7FBD4E987
:105850000023BDE8F04100F081B9012201F051B907
:10586000024A0020110701F04CB9000001FDFFFFC2
:1058700030380A2801D2012070470020704700000C
:105880002DE9F84F04460D4621F000400091734980
:10589000814211DC7249884201DC06D12CB12046DC
:1058A0002946BDE8F84FFFF7D8BF6E48002DCCBFA2
:1058B0006D496E49BDE8F88F6D49814211DD6D4932
:1058C0008142D8BF4FF0FF366DDD20462946FFF7F5
:1058D0005BFF042808BFFFF7C3FF20462946BDE849
:1058E000F88F6549654F25F00045814233DD6449F5
:1058F000814219DD002632464FF08043204629467A
:1059000000F02CF980468A4601222046294601F003
:10591000F8F800223B4600F04BFC4246534600F0AC
:10592000CDF904460D463EE001260022BA463B462C
:105930002046294600F012F980460F4600225346C1
:105940002046294600F034FC42463B4600F0B6F9BA
:1059500004460D4627E04B4981421BDDDFF828A1B4
:105960000226002253462046294600F017FB00225B
:105970003B4600F0F3F880460F460022534620468F
:10598000294600F015FC42463B4600F097F90446D4
:105990000D4608E0032622462B4600203B4900F036
:1059A0008DF904460D4622462B461046194600F056
:1059B000F5FA8B46824602460B4600F0EFFA0746A0
:1059C0000246334888460B4606217844FFF7F0FE2E
:1059D00052465B4600F0E2FA82462E488B463A4633
:1059E000434605217844FFF7E3FE3A46434600F07C
:1059F000D5FA02460B46002E504659460CDA00F006
:105A0000ADF822462B4600F0C9FA01B022462B46DB
:105A1000BDE8F04F00F0C0BB00F0A0F822462B46D6
:105A200000F0BCFA1C4A7A4402EBC603D3E9002317
:105A300000F0BEFB22462B4600F0BAFB174A7A4420
:105A400002EBC603D3E9002300F0A6FB009A002A6C
:105A5000B8BF81F00041BDE8F88F0000000010449D
:105A60000000F07F182D4454FB21F93FFB21F9BFC2
:105A70000000DC3F0000203E0000F33F0000F03F4C
:105A80000000E63F008003400000F83F0000F0BF48
:105A9000FA290000B8290000562900001E2900003C
:105AA00010B500290AD00878002807D005487844A6
:105AB000FFF768FA002801D0002010BD02487844A2
:105AC00010BD00009E2A0000962A000010B5002993
:105AD0000AD00878002807D005487844FFF752FA22
