:020000040800F2
:10000000100F002065180008E9030008EB03000842
:10001000EF030008F3030008F703000800000000E6
:10002000000000000000000000000000FB030008CA
:10003000FD03000800000000FF03000801040008A1
:100040007F1800087F1800087F1800087F18000834
:100050007F1800087F180008250E00084D0E0008C4
:10006000770E00087F1800087F1800087F18000826
:100070007F1800087F1800087F1800087F18000804
:100080007F1800087F1800087F1800087F180008F4
:100090007F1800087F1800087F180008A10E0008CC
:1000A0007F1800087F1800087F1800087F180008D4
:1000B000AD100008391000087F1800087F180008EC
:1000C0007F1800087F1800087F1800087F180008B4
:1000D0007F180008571700087F1800089F170008AE
:1000E0007F1800087F1800087F1800087F18000894
:1000F0007F1800087F1800087F1800087F18000884
:100100007F1800087F1800087F1800087F18000873
:100110007F1800087F1800087F1800087F18000863
:100120007F1800087F1800087F1800087F18000853
:1001300000F002F800F098F80AA090E8000C824461
:100140008344AAF10107DA4501D100F08DF8AFF23E
:10015000090EBAE80F0013F0010F18BFFB1A43F0A5
:1001600001031847087C0000287C0000103A24BFD7
:1001700078C878C1FAD8520724BF30C830C144BF0C
:1001800004680C607047000000230024002500264E
:10019000103A28BF78C1FBD8520728BF30C148BFEA
:1001A0000B6070476E2903F05F85702904F0DF80D3
:1001B000662906F07281652906F06F81672906F0CD
:1001C0006C81612906F06B8103681B0A28BF41F02E
:1001D0008001692903F09483642903F091837529D0
:1001E00003F08E836F2904F06D80782904F0AB80D2
:1001F000E92904F00780E42904F00480F52904F0DB
:100200000180EF2904F06A80F82904F0AA800368CD
:10021000DB0928BF41F08001632903F07687732949
:1002200003F07B87E32904F0E782F32904F0EC82F2
:10023000002070471FB59DE8030004F0BDFE04F0E8
:10024000C9F804000020002105F0BEFC401C6060DD
:100250000020002105F0A2FCE06004F04BFB1FBD74
:1002600010B504F0B0FB10BD04F038FC1146FFF7E8
:10027000E1FF00F009F804F031FE03B4FFF7F0FFEE
:1002800003BC05F00BF8000000F07AFF4FF4E130FA
:1002900001F06AF93EA1434801F039FA00F00EFD81
:1002A00000F094FE4FF4A06002F080F800F0CCFC67
:1002B00000F01EFD00F03CFC002000F0FCF90020E6
:1002C00000F007FA00F05AFA37A1394803F0D8FADB
:1002D0001023374A0021202000F071FB00F02BFA98
:1002E00041F61F4141F2873000F0B2FE00F000FEFF
:1002F0001021304801F0E5FB08212E4801F0DFFB1A
:10030000472140F2E73000F018FE01F0B5F800F0A8
:10031000A1FF3BE00A21072001F00AF926490880E5
:100320000846008805F026FF804605F093FD064646
:100330004FF06632214B05F08FFC044605F05AFC65
:100340001F4908600846006805F084FD06461D4AFE
:100350001D4B05F081FC044605F04CFC1B49086070
:100360000846006805F076FD044622460B4618A1B3
:100370000C4801F0CCF901211448006800F07EFF20
:100380001748808E81B2174802F04AFFC2E700008A
:1003900020486172647761726520696E6974204FCC
:1003A0004B0D0A000038014057656C636F6D6500A6
:1003B00050000020000801400000002066664A3F0F
:1003C0001000002046175D74D1455B400C000020F2
:1003D000616E676C653A25302E32660D0A000000AA
:1003E000E404002000080040704700BFFEE700BFA3
:1003F000FEE700BFFEE700BFFEE7704770477047AB
:10040000704700000CB50020019000906C48006817
:1004100040F480306A49086000BF6948006800F411
:10042000003000900198401C0190009818B9019884
:10043000B0F5A06FF1D16248006800F4003010B14F
:100440000120009001E0002000900098012843D195
:100450005C48006840F010005A490860084600688F
:1004600020F0030008600846006840F002000860C1
:10047000534840685249486008464068486008460A
:10048000406840F4806048600846406820F47C1072
:1004900048600846406840F4E81048600846006834
:1004A00040F08070086000BF4548006800F00070B0
:1004B0000028F9D04248406820F0030040494860D5
:1004C0000846406840F00200486000BF3C48406871
:1004D00000F00C000828F9D10CBD10B5FFF792FF11
:1004E00010BD10B53648006840F00100344908607E
:1004F0000846406834490840314948600846006869
:10050000324908402E4908600846006820F48020DF
:1005100008600846406820F4FE0048604FF41F0061
:100520008860FFF7DAFF4FF000602949086010BDCE
:1005300010B5002100200022214B5B6803F00C0164
:1005400021B1042906D0082928D107E0214B224CEB
:10055000236027E01F4B204C236023E0184B5B688F
:1005600003F47010164B5B6803F48032022303EB34
:10057000904022B9194B4343174C23600DE0104BB8
:100580005B6803F4003323B1144B4343124C2360E4
:1005900003E0104B4343104C236003E00D4B0E4C23
:1005A000236000BF00BF064B5B68C3F303130C4C12
:1005B000E15C094B1B68CB40074C236010BD000079
:1005C00000100240002002400000FFF8FFFFF6FE8E
:1005D00008ED00E000127A001400002000093D0040
:1005E0001800002010B54021F84801F068FA802179
:1005F000F64801F066FA8021F44801F060FA10BD77
:1006000010B54021F14801F05AFA4021EF4801F0BD
:1006100058FA10BD70B5044600251BE04021EB4898
:1006200001F04FFA04F0800020B18021E74801F08A
:1006300046FA03E08021E54801F043FA4021E3480F
:1006400001F03DFA4021E14801F03BFA6006040E5A
:10065000681CC5B2082DE1DB70BD10B58021DB48F8
:1006600001F02DFA4021D94801F029FA8021D7481C
:1006700001F027FA4021D54801F023FA10BD70B5EA
:1006800005460C46FFF7E9FF7820FFF7C3FFFFF7A9
:10069000B7FF1CB14020FFF7BDFF02E00020FFF7CD
:1006A000B9FFFFF7ADFF2846FFF7B4FFFFF7A8FF3C
:1006B000FFF798FF70BD10B504461CB90021A620B5
:1006C000FFF7DDFF012C03D10021A720FFF7D7FFA3
:1006D00010BD10B504463CB90021C820FFF7CFFF7C
:1006E0000021A120FFF7CBFF012C07D10021C02062
:1006F000FFF7C5FF0021A020FFF7C1FF10BD10B517
:1007000000218D20FFF7BBFF00211420FFF7B7FF6A
:100710000021AF20FFF7B3FF10BD10B500218D20E1
:10072000FFF7ADFF00211020FFF7A9FF0021AF2048
:10073000FFF7A5FF10BD70B500241CE004F1B00167
:10074000C8B20021FFF79BFF00210846FFF797FF83
:1007500000211020FFF793FF002508E09C4901EBE2
:10076000C501085D0121FFF78AFF681CC5B2802D15
:10077000F4DB601CC4B2082CE0DB70BD70B5002453
:100780000CE0002506E00020914901EBC501085569
:10079000681CC5B2802DF6DB601CC4B2082CF0DBEF
:1007A000FFF7C9FF70BD70B50A46CE1701EB56764C
:1007B000C6F3C703CE1701EB5676F610A1EBC606BB
:1007C000F4B20122A240D5B2814A02EBC002D25C4F
:1007D0002A437F4E06EBC006F25470BD70B50B463F
:1007E000CE1701EB5676C6F3C702CE1701EB56764D
:1007F000F610A1EBC606F4B20123A340DDB2744BA0
:1008000003EBC0039B5CDB43714E06EBC006B354A5
:100810006F4B03EBC0039B5C2B436D4E06EBC00696
:10082000B3546B4B03EBC0039B5CDB43684E06EB9E
:10083000C006B35470BD2DE9F04306460F469046FE
:10084000002544463BE03A1BD1B27219D0B2FFF703
:10085000AAFF3A1BD1B2721BD0B2FFF7A4FF3A191C
:10086000D1B2721BD0B2FFF79EFF3A19D1B2721902
:10087000D0B2FFF798FF7A19D1B23219D0B2FFF790
:1008800092FF7A1BD1B23219D0B2FFF78CFF7A1BDC
:10089000D1B2321BD0B2FFF786FF7A19D1B2321B28
:1008A000D0B2FFF780FF6D1C05FB05F004FB0400D0
:1008B00008FB1809B9F1000F01DD641E6D1E600010
:1008C000604308FB08F18842BDDABDE8F0832DE9FA
:1008D000FF4F81B080460E461C4600962046E31727
:1008E00004EB5373DB1021464FEAE47C04EB5C7CA1
:1008F0004FEAEC0CA4EBCC0CBCF1000F02D04FF093
:10090000010C01E04FF0000C6344224604EBD27C62
:100910004FEA6C0C03FB0CF303F0FF0B0398203839
:10092000C7B2002547E00C2C07D107EB4700294947
:1009300001EB800010F805A014E0102C05D126482A
:1009400000EB071010F805A00CE0182C07D107EBFE
:10095000C700224901EB800010F805A002E005B0B5
:10096000BDE8F08F4FF000091FE00AF0800020B1D1
:1009700031464046FFF717FF03E031464046FFF798
:100980002DFF4FEA4A604FEA106A701CC6B2009809
:10099000301AA04205D1009E08F1010000F0FF08C6
:1009A00006E009F1010000F0FF09B9F1080FDCDBF6
:1009B00000BF681CC5B25D45B5DB00BFCFE7F0B531
:1009C00006460F4614461D461EE00000000C01407E
:1009D00064000020A264000816690008066F000881
:1009E00022782B4639463046FFF771FF284605EB43
:1009F000D07106EB6101CEB2C5F18000B04202DADF
:100A00000026B81CC7B2641C2078202802DB20789E
:100A10007E28E5DDF0BD10B50246012000E0504320
:100A20000B1EA1F10104E1B2F9D110BD2DE9F04F87
:100A300006468A4691461F46099C00252CE0781BF5
:100A4000401EC1B20A20FFF7E6FFB9FBF0F00A2111
:100A5000B0FBF1F201FB1208B8F1000F0CD1A34674
:100A600004EBDB71491001FB0561C8B2234630225B
:100A70005146FFF72CFF0DE0A34604EBDB71491054
:100A800001FB0561C8B208F13001CAB223465146E4
:100A9000FFF71DFF681CC5B2BD42D0DBBDE8F08F7B
:100AA00070B504460D4605F1B001C8B20021FFF74C
:100AB000E6FD102141EA14100021FFF7E0FD04F0EB
:100AC0000F0141F001000021FFF7D9FD70BD2DE9B4
:100AD000F05F05460E4617469846DDF828B04FF001
:100AE0000009CA460024E11704EB5171C910A4EBB8
:100AF000C10101B901E0601CC4B2344614E02146D2
:100B00002846FFF7CDFFAA460AE01BF8090001219D
:100B1000FFF7B5FD09F101090AF1010000F0FF0A34
:100B2000BA45F2DB601CC4B24445E8DBBDE8F09F87
:100B300008B50121082001F0D1F9C020ADF800006E
:100B400010208DF8030003208DF8020069463D480F
:100B500000F008FFC0213B4800F0B1FF0021AE20AB
:100B6000FFF78DFD00210846FFF789FD00211020C9
:100B7000FFF785FD00214020FFF781FD0021812046
:100B8000FFF77DFD0021CF20FFF779FD0021A12097
:100B9000FFF775FD0021C820FFF771FD0021A62099
:100BA000FFF76DFD0021A820FFF769FD00213F2020
:100BB000FFF765FD0021D320FFF761FD0021084606
:100BC000FFF75DFD0021D520FFF759FD00218020B2
:100BD000FFF755FD0021D920FFF751FD0021F1203D
:100BE000FFF74DFD0021DA20FFF749FD002112201B
:100BF000FFF745FD0021DB20FFF741FD00214020EC
:100C0000FFF73DFD00212020FFF739FD00210220E4
:100C1000FFF735FD00218D20FFF731FD0021142065
:100C2000FFF72DFD0021A420FFF729FD0021A620BC
:100C3000FFF725FD0021AF20FFF721FDFFF79EFD07
:100C400008BD0000000C014008B50121042001F09E
:100C500045F90120ADF8000048208DF803006946F1
:100C6000154800F07FFE0220ADF8000048208DF806
:100C700003006946104800F075FE0420ADF800003E
:100C800048208DF8030069460B4800F06BFE2020D9
:100C9000ADF8000048208DF803006946064800F0D2
:100CA00061FE4020ADF8000048208DF80300694641
:100CB000014800F057FE08BD0008014008B50121B9
:100CC000082001F00BF90420ADF8000010208DF889
:100CD000030003208DF802006946044800F042FE3C
:100CE0000421024800F0EBFE08BD0000000C0140AA
:100CF0000EB50121084601F0F1F8FFF7A5FF052127
:100D0000002000F045FF2020019000208DF8080011
:100D10000C208DF8090001208DF80A0001A802F0CE
:100D2000CFFA0621002000F033FF40200190002080
:100D30008DF808000C208DF8090001208DF80A00BC
:100D400001A802F0BDFA17208DF8000002208DF8EE
:100D5000010001208DF802008DF80300684601F0C3
:100D60002AFB0021084600F013FF0120019000201B
:100D70008DF8080008208DF8090001208DF80A0080
:100D800001A802F09DFA06208DF8000002208DF8DF
:100D900001008DF8020001208DF80300684601F083
:100DA0000AFB0121002000F0F3FE02200190002048
:100DB0008DF8080008208DF8090001208DF80A0040
:100DC00001A802F07DFA07208DF8000002208DF8BE
:100DD00001008DF8020001208DF80300684601F043
:100DE000EAFA0221002000F0D3FE04200190002046
:100DF0008DF8080008208DF8090001208DF80A0000
:100E000001A802F05DFA08208DF8000002208DF89C
:100E100001008DF8020001208DF80300684601F002
:100E2000CAFA0EBD10B50A2000F0E7F92E48006896
:100E3000012807D12D48006808B9012000E00020F2
:100E40002A490860012002F0B2FA10BD10B50A204C
:100E500000F0D3F92448001D0068012807D1234879
:100E6000006808B9012000E0002020490860022045
:100E700002F09DFA10BD10B50A2000F0BEF91A4824
:100E8000001D0068012807D11848006808B9012032
:100E900000E0002015490860042002F088FA10BD27
:100EA00010B50A2000F0A9F90F481430006850B9B5
:100EB0000E48006808B9012000E000200B490860D6
:100EC000202002F074FA08481830006850B907482A
:100ED000006808B9012000E00020044908604020B3
:100EE00002F065FA10BD0000000121428881214214
:100EF00008B50121042000F0F1FF10208DF8030057
:100F00001820ADF8000003208DF8020069462C4837
:100F100000F028FD0121082000F0E0FF18208DF8E6
:100F200003004FF48070ADF8000003208DF802003C
:100F30006946244800F016FD08BD30B589B0054665
:100F40000C460121042000F0D6FF0121082000F00A
:100F5000C5FF4FF48070ADF8200018208DF82300F5
:100F600003208DF8220008A9164800F0FBFC4FF47E
:100F70008071144800F0A3FDADF81850ADF814408E
:100F80000020ADF81A00ADF8160005A90E4801F0D2
:100F90004FFB7020ADF804000120ADF806000020E2
:100FA000ADF80C0001A9084801F00EFC0821064824
:100FB00001F0E0FF0121044801F096FE09B030BDC8
:100FC00000080140000C0140000800401FB501214D
:100FD000022000F090FF0121574802F05FF941F232
:100FE0008730ADF8080041F61F40ADF8040000203E
:100FF000ADF80A00ADF8060001A94F4801F018FB52
:10100000012211464C4801F08AFE01214A4801F0B4
:101010006BFE4FF4C06001F0C9F91D208DF800008F
:1010200000208DF8010001208DF802008DF80300EA
:10103000684601F0C0F91FBD10B501213E4802F01D
:101040001CF9012803D101213B4802F027F910BD0A
:101050007FB505460C460121084600F04CFFADF86F
:101060000850ADF804400020ADF80A00ADF80600C5
:1010700001A94FF0804001F0DBFA012211469007F0
:1010800001F04DFE1C208DF8000000208DF80100BD
:1010900003208DF8020001208DF80300684601F05E
:1010A0008AF90121880701F01FFE7FBD70B501217B
:1010B000880702F0E2F800283DD020A1234802F082
:1010C000DFFB1023214A00211846FFF778FC204857
:1010D000006804F0BFFE044622460B461DA11B48D3
:1010E00002F0CEFB1023194A19460020FFF767FCD7
:1010F0001B481CA10268154802F0C2FB1023134ACA
:1011000020210020FFF75BFC1848006804F0A2FED5
:10111000044622460B4616A10C4802F0B1FB1023F0
:101120000A4A30210020FFF74AFCFFF704FB0121A7
:10113000880702F0B3F870BD0004004057656C6387
:101140006F6D6542795A4A58000000005000002037
:101150000C000020416E676C653A25302E32660027
:101160000400002050574D3A256400001000002074
:10117000566F6C746167653A25302E326600000048
:1011800010B56FF0040001F060F92E4800682E4998
:10119000B0FBF1F02D4908700846007800EB4001E3
:1011A000C1EBC0104FF6FF7101EAC000284908806A
:1011B00010BD0146254A12784A434FF0E0235A6198
:1011C00000229A611A46126942F001021A6100BFB8
:1011D0004FF0E022106900F001021AB100F48032F1
:1011E000002AF5D04FF0E022126922F001024FF000
:1011F000E0231A6100229A6170470146144A12885E
:101200004A434FF0E0235A6100229A611A4612695C
:1012100042F001021A6100BF4FF0E022106900F0B5
:1012200001021AB100F48032002AF5D04FF0E0221A
:10123000126922F001024FF0E0231A6100229A6144
:10124000704700001400002000127A0028000020DF
:101250002A00002003206C4908706C48C8616C4863
:1012600088604FF07C5088616A4848626A488862AA
:10127000002008634FF4A570C88670472DE9F05F21
:1012800005464FF45E7060490884088C04F072FFD4
:1012900081465D48C169484604F080FF01D2BDE83F
:1012A000F09F5E4801F0D7FF574908840846456023
:1012B00002465168906805F07BF85349C8600A46B9
:1012C0001169D06805F074F882464F4801694FF003
:1012D000804004F097FF83464B48C168584605F0AC
:1012E0005DF8814648484169484604F0DFFD0646FE
:1012F00045498869514604F085FF0446424AD16950
:10130000906904F07FFF81463F48416A484604F0F7
:101310003BFE07463C48C168384604F073FF074669
:10132000394A916A906904F06DFF81463648C16977
:10133000484604F029FE80463146404604F062FFEC
:10134000804631480078012804D0022808D00328BC
:101350001ED10FE02C48C46231A002F085FA17E0DC
:101360003946204604F0A2FD2749C8622FA002F0AA
:101370007BFA0DE03946204604F098FD814641464F
:1013800004F094FD2049C8622CA002F06DFA00BF61
:1013900000BF1D49B1F9340004F0D4FE83461A4859
:1013A000C16A584604F082FD814604F0AFFE00B2E7
:1013B000154988860846B0F9341024A002F054FA82
:1013C0001148B0F934001049C98E884204DD0E4836
:1013D000C08E00B20C4988860B48B0F93400002852
:1013E00002DA0020084988860748B0F934101CA0AA
:1013F00002F03AFA04480069034948610846C068A7
:10140000086100BF4BE70000E40400200000A54392
:101410000000F04100002042000020410008004090
:10142000CAB9D3C350D4CBCBE30D0A00CAB9D3C3D6
:101430005049D4CBCBE30D0A00000000CAB9D3C396
:10144000504944D4CBCBE30D0A000000504944CBB3
:10145000E3B5C3B5C44F55543A0925640D0A0000DD
:10146000CAB5BCCACAE4B3F6CAB9D3C3B5C44F55EA
:10147000543A0925640D0A0000B587B001214FF4E4
:10148000017000F02BFD8020ADF8180000208DF8D1
:101490001B0003208DF81A0006A9314800F062FAFB
:1014A0004FF4004000F07EFC2E4801F089FF002040
:1014B00001908DF808008DF809004FF4602003902A
:1014C0000020049001208DF8140001A9254801F0A6
:1014D0009EFF0121234801F0C6FF224801F0E5FFED
:1014E00000BF204801F0E6FF0028FAD11D4801F0B6
:1014F000EBFF00BF1B4801F0ECFF0028FAD107B05A
:1015000000BD10B50446072301222146154802F00C
:1015100016F80121134801F0E6FF00BF022111482F
:1015200002F052F90028F9D00E4802F06FF810BD11
:101530002DE9F04107460C460025002608E0384614
:10154000FFF7DFFF0544C820FFF733FE701CC6B26B
:10155000A642F4DBB5FBF4F080B2BDE8F0810000F8
:10156000000801400024014010B586B00446012166
:10157000042000F0B3FC0121880300F0AFFC182028
:101580008DF817004FF40070ADF8140003208DF8AB
:10159000160005A9AC4800F0E5F904208DF8170005
:1015A0000002ADF8140003208DF8160005A9A64826
:1015B00000F0D8F901940020ADF810000C20ADF82F
:1015C0000E000020ADF80C00ADF80A00ADF80800E0
:1015D00001A99E4800F029FD01219C4800F0B1FDC1
:1015E000012240F22551994800F0B7FD25208DF8E1
:1015F000000001208DF8030000208DF8010002207A
:101600008DF80200684600F0D6FE06B010BD10B599
:1016100086B004460121082000F060FC0121880406
:1016200000F069FC8A4800F0BDFC4FF48060ADF822
:10163000100003208DF8120018208DF8130004A963
:10164000844800F08FF94FF40060ADF810000420DA
:101650008DF8130004A97F4800F084F9009400205D
:10166000ADF80400ADF80600ADF80800ADF80C00C8
:101670000C20ADF80A006946754800F0D6FC01213F
:10168000734800F05EFD012240F22551704800F0E1
:1016900064FD27208DF8140000208DF8150003202C
:1016A0008DF8160001208DF8170005A800F083FEC4
:1016B00000206949088006B010BD0BE000BF6449F6
:1016C000098801F040010029F9D00178604A121D13
:1016D0001180401C01780029F0D170472DE9F041BC
:1016E00007460C46154600260DE014F8011B384647
:1016F00000F094FD00BF4021384600F0FDFD0028B9
:10170000F9D0701C86B2AE42EFDBBDE8F0810FB4B9
:1017100030B5CBB0054601AC50A800904FF49471A1
:1017200001A8009B4F9A02F085F8002000900BE082
:1017300014F8011B284600F071FD00BF4021284627
:1017400000F0DAFD0028F9D020780028F0D14BB065
:1017500030BC5DF814FB10B540F225513B4800F059
:10176000E1FD18B12021394800F0D3FD10BD002063
:101770003949098801F4004181B137490988C8B263
:101780000021364A11543A2801DD3B201154012131
:10179000324A82F83B1000212F4A1180704710B561
:1017A00040F225512A4800F0BDFD38B3284800F02A
:1017B00039FDC4B22848008800F40040E0B926484A
:1017C0000088C0F30E003C2810DA212C07D02249F3
:1017D0000888411C204A118020490C540CE01E4806
:1017E000008840F400401C49088005E01A48008841
:1017F00040F4004018490880FFF7B9FF10BD0FB44E
:1018000038B505A800901648009A049902F000F82F
:1018100000200090124802F073F985B200240DE018
:1018200000BF40210A4800F067FD0028F9D00C48AD
:10183000015D074800F0F2FC601C84B2AC42EFDBB3
:1018400038BC5DF814FB000000080140003801407E
:1018500000480040000C01402C0000201C05002026
:10186000580500200948804709480047FEE7FEE781
:10187000FEE7FEE7FEE7FEE7FEE7FEE7FEE7FEE740
:1018800004480549054A064B70470000E304000878
:101890003101000810090020100F0020100B00205B
:1018A000100B002010B50446CC48844208D1012119
:1018B000042000F02DFB0021042000F029FB46E06D
:1018C000C748844208D10121082000F021FB0021F3
:1018D000082000F01DFB3AE0C248844208D10121F3
:1018E000102000F015FB0021102000F011FB2EE06D
:1018F000BD48844208D10121202000F009FB0021CD
:10190000202000F005FB22E0B848844208D10121E4
:10191000402000F0FDFA0021402000F0F9FA16E026
:10192000B348844208D10121802000F0F1FA00215F
:10193000802000F0EDFA0AE0AE48844207D1012190
:10194000801500F0E5FA0021A01500F0E1FA10BDC5
:1019500010B50121084600F0DBFA0021012000F05B
:10196000D7FA10BD2DE9F0410246002500260020DF
:1019700000230024002791F803C00CF00F0591F814
:1019800003C00CF0100CBCF1000F03D091F802C0A2
:101990004CEA050591F800C0BCF1000F31D0146885
:1019A00000202BE04FF0010C0CFA00F3B1F800C05E
:1019B0000CEA03069E4220D183004FF00F0C0CFA74
:1019C00003F7BC4305FA03FC4CEA040491F803C096
:1019D000BCF1280F06D14FF0010C0CFA00FCC2F844
:1019E00014C00AE091F803C0BCF1480F05D14FF0D4
:1019F000010C0CFA00FCC2F810C0401C0828D1D31E
:101A00001460B1F800C0BCF1FF0F34DD5468002051
:101A10002EE000F1080C4FF0010808FA0CF3B1F8C1
:101A200000C00CEA03069E4221D183004FF00F0C48
:101A30000CFA03F7BC4305FA03FC4CEA040491F8E2
:101A400003C0BCF1280F05D100F1080C08FA0CF80E
:101A5000C2F8148091F803C0BCF1480F07D100F11F
:101A6000080C4FF0010808FA0CF8C2F81080401C6E
:101A70000828CED35460BDE8F0814FF6FF71018095
:101A8000022181700421C1707047024600209368D2
:101A90000B400BB1012000E0002070470146886830
:101AA00080B2704702460020D3680B400BB1012082
:101AB00000E0002070470146C86880B270470161AD
:101AC0007047416170470AB1016100E041617047B0
:101AD000C16070474FF480320A4382618161826144
:101AE00082698269704702460020434B18684FF6AE
:101AF0008073184040EA021008433F4B186070475B
:101B00003E49C8617047F0B50A4600230024002111
:101B1000002500F00046B6F1004F02D1364EF169C3
:101B200001E0354E7168C0F3034583B200F44016FE
:101B3000B6F5401F08D121F070612F4E766826F06F
:101B400070662D4F7E6012E000F48016B6F5801F9F
:101B500006D1032606FA05F4A14341F0706106E0C0
:101B6000460D360103FA06F6B14341F0706122B129
:101B7000460D360103FA06F6314300F00046B6F191
:101B8000004F02D11C4EF16101E01B4E7160F0BDAF
:101B900030B500228B071C0F0F2303FA04F2164BFB
:101BA00008338C1053F824309343134C08348D10B1
:101BB00044F8253023468C1053F824308C07240F2A
:101BC00000FA04F423430C4C08348D1044F82530FB
:101BD00030BD0A49DC310860704700000008014050
:101BE000000C0140001001400014014000180140A9
:101BF000001C014000200140000001400000204284
:101C0000DF48006840F00100DD4908600846406890
:101C1000DC490840DA49486008460068DA4908406B
:101C2000D74908600846006820F48020086008460C
:101C3000406820F4FE0048604FF41F008860704741
:101C4000CF49096821F48031CD4A116011460968F5
:101C500021F480211160B0F5803F03D0B0F5802FD2
:101C60000ED106E0C649096841F48031C44A1160CA
:101C700007E0C349096841F4A021C14A116000E0AE
:101C800000BF00BF704710B50146002200230020AE
:101C90004A11012A02D1BA4C236806E0022A02D175
:101CA000B74C236A01E0B64C636A01F01F020124BD
:101CB00094401C400CB1012000E0002010BD38B55C
:101CC000002000900024002500BF3120FFF7DBFF3B
:101CD00005460098401C00900098B0F5A06F01D018
:101CE000002DF2D03120FFF7CEFF08B1012400E033
:101CF0000024204638BD01460020A14A106820F08B
:101D0000F80040EAC10010607047A04908607047C1
:101D1000024600209A4B586820F47C1042EA0103E6
:101D20001843974B586070479849086670470146BA
:101D30000020934A506820F0030008435060704729
:101D40008F48406800F00C007047014600208C4A24
:101D5000506820F0F00008435060704701460020B2
:101D6000874A506820F4E06008435060704701469D
:101D70000020834A506820F4605040EAC10050605F
:101D8000704729B17E4A527A02437D4B5A7204E071
:101D90007B4A527A82437A4B5A7270477B49D831D8
:101DA0000860704701460020754A506820F44040A2
:101DB0000843506070470021714A20321170704A08
:101DC00082F82010012802D004280AD104E0012161
:101DD0006B4A2032117005E00521694A20321170EA
:101DE00000E000BF00BF7047694908607047644960
:101DF000096A0143624A11627047654944390860C3
:101E0000704730B500210022002400235C4D6D682E
:101E100005F00C0121B1042905D0082923D105E0E2
:101E20005C4D056022E05B4D05601FE0544D6D6820
:101E300005F47012524D6D6805F48034022505EBEF
:101E400092421CB9544D554305600BE04C4D6D68F2
:101E500005F400351DB1504D5543056002E04D4D70
:101E60005543056002E04B4D056000BF00BF444D87
:101E70006D6805F0F0010909484D6B5C0568DD40AF
:101E800045603F4D6D6805F4E061090A434D6B5CA8
:101E90004568DD4085603A4D6D6805F46051C90ABA
:101EA0003E4D6B5C4568DD40C560354D6D6805F4A1
:101EB0004041890B3A4D6B5CC568B5FBF3F5056194
:101EC00030BD29B12E4A526902432D4B5A6104E0BC
:101ED0002B4A526982432A4B5A61704729B1284ADA
:101EE00092690243264B9A6104E0254A9269824333
:101EF000234B9A61704729B1214AD2690243204B92
:101F0000DA6104E01E4AD26982431D4BDA617047F0
:101F100029B11B4AD2680243194BDA6004E0184A1F
:101F2000D2688243164BDA60704729B1144A1269AD
:101F30000243134B1A6104E0114A12698243104BA9
:101F40001A61704712494039086070470F49C864E8
:101F500070470B49C87170470948406A40F080706B
:101F600007494862704701460020054A92680A40C6
:101F70000AB1012000E000207047014988727047D3
:101F8000001002400000FFF8FFFFF6FE0000424292
:101F90008004424200127A0000093D002E00002019
:101FA0003E00002010B50446FB48844209D10121BF
:101FB0008803FFF7ADFF00214FF48040FFF7A8FF33
:101FC00032E0F648844209D101214804FFF7ADFF11
:101FD00000214FF40030FFF7A8FF25E0F0488442CD
:101FE00009D101218804FFF7A0FF00214FF48020D0
:101FF000FFF79BFF18E0EB48844209D10121C80498
:10200000FFF793FF00214FF40020FFF78EFF0BE056
:10201000E548844208D101210805FFF786FF002129
:102020004FF48010FFF781FF10BD2DE9F04786B017
:1020300005460E460024A24600BFA1460027B089EF
:1020400000B100BF2F462C8A4CF6FF700440F08888
:1020500004432C82AC894EF6F3100440B0883189D9
:102060000843718908430443AC81AC8A4FF6FF40B2
:102070000440B0890443AC8201A8FFF7C2FEC64801
:10208000874202D1DDF810A001E0DDF80CA0A8899C
:1020900000F4004040B10AEBCA0000EB0A103168BE
:1020A0004900B0FBF1F807E00AEBCA0000EB0A10A8
:1020B00031688900B0FBF1F86420B8FBF0F004014E
:1020C0002009642101FB1089A88900F4004040B177
:1020D000322000EBC900B0FBF1F000F00700044330
:1020E00008E0322000EB09106421B0FBF1F000F0B1
:1020F0000F0004432C8106B0BDE8F0874FF4165161
:10210000016000218180C18001810C214181002179
:102110008181704710B502460020108A4FF2FF03FC
:1021200018400B884C8823438C882343CC88234356
:102130001843108210BD0021018041808180C18040
:10214000704721B1828942F40052828104E0828981
:102150004DF6FF731A4082817047F0B503460024A4
:1021600000260025002040F66A17B94200D100BFC2
:102170001846C1F3421401F01F06012707FA06F5BD
:10218000012C01D10C3004E0022C01D1103000E010
:1021900014301AB107682F43076002E00768AF43A5
:1021A0000760F0BD1AB1838A0B43838202E0838A01
:1021B0008B4383827047028A4FF6F0731A40028283
:1021C000028A0A430282704782894FF2FF731A40E3
:1021D000828182890A438281704721B1828942F0DB
:1021E0000202828104E082894FF6FD731A408281E7
:1021F0007047028A4FF6DF731A400282028A0A434E
:102200000282704721B1028A42F48042028204E0D5
:10221000028A4BF6FF731A4002827047C1F308022C
:102220008280704701468888C0F308007047818922
:1022300041F0010181817047028BD2B20283028B8F
:1022400042EA012202837047028B02F47F4202833A
:10225000028B0A430283704721B1828A42F0200236
:10226000828204E0828A4FF6DF731A4082827047CE
:1022700021B1828A42F01002828204E0828A4FF603
:10228000EF731A408282704721B1828A42F00802BD
:10229000828204E0828A4FF6F7731A408282704786
:1022A00021B1828942F40042828103E08289C2F333
:1022B0000E028281704721B1828A42F400628282DA
:1022C00004E0828A4FF2FF731A4082827047828A4A
:1022D0004FF6FB731A408282828A0A4382827047D9
:1022E00021B1828A42F00202828204E0828A4FF6A1
:1022F000FD731A408282704702460020B1F5007FCC
:1023000000D100BF13880B400BB1012000E000207A
:10231000704701F40072B2F5007F00D100BFCA43DC
:102320000280704770B5024600240023002500207B
:1023300040F66A16B14200D100BFC1F3421501F068
:102340001F03012606FA03F3012D02D196893340BB
:1023500006E0022D02D1168A334001E0968A33400E
:102360000C12012606FA04F41688344013B10CB19D
:10237000012000E0002070BD10B50022002340F6CF
:102380006A14A14200D100BF0A1201249440A3B2F2
:10239000DC43048010BD00000038014000440040D0
:1023A00000480040004C00400050004031490143CB
:1023B000314A1160704770B5002100230F22C478A4
:1023C00004B32D4C246804F4E064C4F5E064210AED
:1023D000C1F10403CA40447804FA03F1847814403C
:1023E00021430901254C0678A155047804F01F0506
:1023F0000124AC4005786D11AD0005F1E025C5F86C
:10240000004109E0047804F01F050124AC401C4D94
:102410000678761145F8264070BD1A4A0A400243F4
:10242000154B1B1F1A60704739B1134A121D1268F1
:102430000243114B1B1D1A6006E00F4A121D126861
:1024400082430D4B1B1D1A607047042808D14FF0C2
:10245000E021096941F004014FF0E022116107E039
:102460004FF0E021096921F004014FF0E0221161F1
:10247000704700000000FA050CED00E000E400E009
:1024800080E100E080FFFF1F10B50446FE48844253
:1024900008D10121C014FFF73BFD0021E014FFF734
:1024A00037FDC4E0B4F1804F08D101210846FFF7A1
:1024B0003CFD00210120FFF738FDB8E0F3488442DD
:1024C00008D101210220FFF730FD00210220FFF793
:1024D0002CFDACE0EE48844208D101210420FFF736
:1024E00024FD00210420FFF720FDA0E0E9488442FC
:1024F00008D101210820FFF718FD00210820FFF76F
:1025000014FD94E0E448844208D101211020FFF733
:102510000CFD00211020FFF708FD88E0DF48844211
:1025200008D101212020FFF700FD00212020FFF726
:10253000FCFC7CE0DA48844208D101214014FFF71A
:10254000E7FC00216014FFF7E3FC70E0D54884420B
:1025500009D10121C804FFF7DBFC00214FF4002062
:10256000FFF7D6FC63E0D048844209D10121080579
:10257000FFF7CEFC00214FF48010FFF7C9FC56E0B6
:10258000CA48844209D101214805FFF7C1FC002156
:102590004FF40010FFF7BCFC49E0C548844208D165
:1025A00001214020FFF7C1FC00214020FFF7BDFCC6
:1025B0003DE0C048844208D101218020FFF7B5FCEE
:1025C00000218020FFF7B1FC31E0BB48844208D1F4
:1025D00001218015FFF7A9FC0021A015FFF7A5FC3C
:1025E00025E0B648844209D101210804FFF790FC98
:1025F00000214FF48030FFF78BFC18E0B048844294
:1026000009D101214804FFF783FC00214FF4003079
:10261000FFF77EFC0BE0AB48844208D1012188041F
:10262000FFF776FC00214FF48020FFF771FC10BD0E
:1026300000220288944B98420ED0994B98420BD0BE
:10264000B0F1804F08D0914B984205D0904B984202
:1026500002D0904B984204D14FF68F731A404B88AA
:102660001A438D4B984207D08C4B984204D04FF6BA
:10267000FF431A40CB881A4302808B8883850B88DE
:102680000385814B98420BD0854B984208D08B4BE9
:10269000984205D08A4B984202D08A4B984201D189
:1026A0000B7A038601238382704770B500240022D1
:1026B0000023058C4FF6FE7635400584028C838816
:1026C000048B4FF68F752C40B51E2C400D882C4383
:1026D000751E2A400D892A434D882A436A4DA84217
:1026E0000BD06F4DA84208D0744DA84205D0744D50
:1026F000A84202D0734DA84213D14FF6F7752A4075
:102700004D892A434FF6FB752A408D882A434FF6A0
:10271000FF652B404FF6FF552B408D892B43CD890C
:102720002B4383800483CD888586028470BD70B579
:10273000002400220023058C4FF6EF7635400584F7
:10274000028C8388048B48F6FF752C404FF6FF45BA
:102750002C400D884FF6FF7606EA05252C434FF6F0
:10276000DF752A400D8906EA05152A434D8806EAD9
:1027700005152A43444DA84202D0494DA8421DD117
:102780004FF67F752A404D894FF6FF7606EA05150C
:102790002A434FF6BF752A408D8806EA05152A435D
:1027A0004FF6FF352B404FF2FF752B408D8906EA1F
:1027B00085052B43CD8906EA85052B438380048359
:1027C000CD880587028470BD70B5002400220023E7
:1027D000058C4FF6FF6635400584028C8388848B18
:1027E0004FF68F752C404FF6FC752C400D882C430E
:1027F0004FF6FF552A400D894FF6FF7606EA05256C
:102800002A434D8806EA05252A431F4DA84202D0D7
:10281000234DA8421DD14FF2FF752A404D894FF636
:10282000FF7606EA05252A434FF6FF352A408D88B4
:1028300006EA05252A434EF6FF752B404DF6FF7537
:102840002B408D8906EA05152B43CD8906EA05152F
:102850002B4383808483CD888587028470BD70B5C7
:10286000002200230024058C4EF6FF7635400584B7
:10287000038C8488828B48F6FF752A404FF6FF450B
:102880002A400D8820E00000002C01400004004098
:1028900000080040000C0040001000400014004000
:1028A00000340140004C0140005001400054014000
:1028B00000180040001C0040002000400040014083
:1028C00000440140004801404FF6FF7606EA052526
:1028D0002A434DF6FF752B400D8906EA05352B433B
:1028E0004D8806EA05352B43FA4DA84202D0FA4D31
:1028F000A84208D14BF6FF752C408D894FF6FF7624
:1029000006EA85152C4384808283CD88A0F8405048
:10291000038470BD828B4FF2FF331A408283828B17
:102920004FF6FF7303EA01231A4382837047F0B521
:102930000C461546002200210026078C4EF6FF7C2F
:1029400007EA0C070784828B018C4FF6FF7707EAB2
:10295000043640F6FF473A404FF6FF7707EA05276F
:102960003A434FF6FF7707EA03373A43D94FB84265
:102970000ED0D94FB8420BD0B0F1804F08D0D74F0E
:10298000B84205D0D64FB84202D0D64FB84206D191
:102990004DF6FF77394046F48057394305E047F656
:1029A000FF57394044F48057394382830184F0BD96
:1029B000828B4FF6F3731A408283828B0A438283A1
:1029C0007047F0B50C461546002200210026078C02
:1029D0004FF6FF6C07EA0C070784828B018C4FF6D9
:1029E000FF7707EA04264FF60C773A404FF6FF7759
:1029F00007EA03172F433A43B64FB8420ED0B64FFB
:102A0000B8420BD0B0F1804F08D0B44FB84205D0D7
:102A1000B34FB84202D0B34FB84206D14FF6FF577A
:102A2000394046F48077394305E04FF2FF5739408B
:102A300044F48077394382830184F0BD028B4FF2E6
:102A4000FF331A400283028B4FF6FF7303EA012320
:102A50001A4302837047F0B50C4615460022002148
:102A60000026078C4FF6EF7C07EA0C070784028BE1
:102A7000018C4FF6FF7707EA041640F6FF473A400D
:102A80004FF6FF7707EA03373A434FF6FF7707EA37
:102A900005273A438F4FB8420ED08F4FB8420BD024
:102AA000B0F1804F08D08D4FB84205D08C4FB8425E
:102AB00002D08C4FB84206D14FF6DF77394046F04E
:102AC0001007394305E04FF65F77394044F01007AF
:102AD000394302830184F0BD028B4FF6F3731A4031
:102AE0000283028B0A4302837047F0B50C461546F9
:102AF00000220021068C4FF6FE773E400684028BB2
:102B0000018C4FF60C7632407E1C06EA03162E43EB
:102B10003243704EB0420ED06F4EB0420BD0B0F187
:102B2000804F08D06D4EB04205D06D4EB04202D0FD
:102B30006C4EB04206D14FF6FD76314044F00106AE
:102B4000314305E04FF6F576314044F0010631435C
:102B500002830184F0BD70B505460C465D48854290
:102B60000ED05D4885420BD0B5F1804F08D05B4850
:102B7000854205D05A48854202D05A48854200D144
:102B800000E000BF208850B92389A28861882846C8
:102B9000FFF7ABFFE1882846FFF79EFF25E020887E
:102BA00004280AD12389A28861882846FFF753FFA9
:102BB000E1882846FFF742FF17E0208808280AD15D
:102BC0002389A28861882846FFF7FBFEE188284612
:102BD000FFF7EEFE09E02389A28861882846FFF707
:102BE000A6FEE1882846FFF795FE70BD2DE9F0416D
:102BF00005460C4600260127608808B9022600E039
:102C00000026A088012801D1022700E001272088A2
:102C1000A0B92389A28861882846FFF766FFE1886A
:102C20002846FFF759FF23893A4631462846FFF7E1
:102C300012FFE1882846FFF701FF13E02389A288ED
:102C400061882846FFF707FFE1882846FFF7F6FE70
:102C500023893A4631462846FFF747FFE188284650
:102C6000FFF73AFFBDE8F0810A884B881A438B884A
:102C70001A43CB881A430B891A434B891A438B8911
:102C80001A43A0F8442070474FF6FF71818000215D
:102C90000180C18041800172704700210180418024
:102CA0008180C180018141818181C1817047002182
:102CB00001804180012181800021C1800181704714
:102CC0000021018041808180C18001814181818119
:102CD00070470000002C0140003401400004004017
:102CE00000080040000C004021B1028842F00102BF
:102CF000028004E002884FF6FE731A40028070479B
:102D000031B1B0F8442042F40042A0F8442005E07C
:102D1000B0F84420C2F30E02A0F8442070471AB164
:102D200083890B43838102E083898B4383817047CE
:102D30008182704741EA0203A0F8483070471AB117
:102D400083890B43838102E083898B4383817047AE
:102D500001894FF6F8721140018170470A4600213F
:102D600001894FF68F73194011430181704730B5C7
:102D700004460D4629462046FFF7F0FF208940F023
:102D80000700208130BD2DE9F04104460D4616466E
:102D90001F46602D06D13B46012231462046FFF7F3
:102DA0005AFE05E03B46012231462046FFF79DFED4
:102DB00029462046FFF7D2FF208940F007002081F6
:102DC000BDE8F08130B50C4600210189C9B24FF64B
:102DD000FF7505EA0325154325432943018130BDCD
:102DE0002DE9F04105460E46174698460024434615
:102DF0003A4631462846FFF7E5FF2C894FF6F87032
:102E0000044044F007044FF68F70044044F070040F
:102E10002C81BDE8F081F0B504460D4616461F46EC
:102E20003B46324629462046FFF7CCFF208940F436
:102E300080402081F0BD0185828270470A460021D2
:102E400001884FF68F731940114301807047F0B528
:102E50000C4615461E460021002200230189028BE4
:102E6000038C4FF6F877394021434FF6FC473A4040
:102E700040F201173A434FF6DD773B404FF6FF77BC
:102E800007EA06172F433B43018102830384F0BD09
:102E90000A460021018B4FF68F73194011430183BD
:102EA00070470A460021018B48F6FF7319404FF620
:102EB000FF7303EA02231943018370470A46002186
:102EC000818B4FF68F7319401143818370470A46F7
:102ED0000021818B48F6FF7319404FF6FF7303EA18
:102EE000022319438183704721B1028842F0800296
:102EF000028004E002884FF67F731A400280704718
:102F000021B1828842F00402828004E082884FF678
:102F1000FB731A408280704721B1828842F0080218
:102F2000828004E082884FF6F7731A4082807047EF
:102F300021B1828842F00102828004E082884FF64B
:102F4000FE731A40828070470A460021018B4FF6BB
:102F5000F77319401143018370470A460021018B22
:102F60004FF2FF7319404FF6FF7303EA0223194330
:102F7000018370470A460021818B4FF6F773194091
:102F80001143818370470A460021818B4FF2FF7302
:102F900019404FF6FF7303EA0223194381837047F8
:102FA0000A460021018B4FF6FB7319401143018340
:102FB00070470A460021018B4FF6FF3319404FF648
:102FC000FF7303EA02231943018370470A46002175
:102FD000818B4FF6FB7319401143818370470A467A
:102FE0000021818B4FF6FF3319404FF6FF7303EA40
:102FF00002231943818370470A460021018B4FF653
:103000007F7319401143018370470A460021018BE9
:10301000C1F30E014FF6FF7303EA02231943018344
:1030200070470A460021818B4FF67F731940114388
:10303000818370470A460021818BC1F30E014FF650
:10304000FF7303EA02231943818370470A46002174
:10305000018C4FF6FD7319401143018470470A46F5
:103060000021018C4FF6F77319401143018470471A
:103070000A460021018C4FF6DF7319404FF6FF73AB
:1030800003EA02131943018470470A460021018CA8
:103090004FF67F7319404FF6FF7303EA021319438B
:1030A000018470470A460021018C4FF6FF531940F6
:1030B0004FF6FF7303EA02231943018470470A465F
:1030C0000021018C4FF2FF7319404FF6FF7303EAA2
:1030D00002231943018470470A460021018C4DF6F2
:1030E000FF7319404FF6FF7303EA0233194301845B
:1030F000704730B5002301248C40A3B2048C9C435C
:103100000484048C02FA01F5ADB22C43048430BD72
:1031100030B5002304248C40A3B2048C9C43048467
:10312000048C02FA01F5ADB22C43048430BD70B5B5
:103130000346002000241846183001258D40ACB20B
:103140001D8CA5431D8409B1082909D100EB61003C
:10315000056825F0700505600568154305600EE0FB
:103160000D1FC5F34E052844056825F4E0450560AC
:1031700005684FF6FF7606EA02263543056070BD06
:1031800021B1028842F00202028004E002884FF678
:10319000FD731A400280704721B1028842F0040298
:1031A000028004E002884FF6FB731A4002807047E9
:1031B00021B1828842F08002828004E082884FF64A
:1031C0007F731A408280704702884FF6F7731A4067
:1031D000028002880A430280704782884FF68F730C
:1031E0001A40828082880A438280704702894FF6A3
:1031F000F8731A40028102890A43028170470289EA
:103200004FF67F731A40028102890A430281704798
:103210008184704781857047818670470187704738
:1032200081877047A0F84010704702884FF6FF432F
:103230001A40028002880A43028070470146888E45
:1032400070470146088F70470146888F70470146D6
:10325000B1F8400070470146888C70470146088DE0
:10326000704702460020138A0B400BB1012000E09A
:1032700000207047CA430282704730B502460020E2
:1032800000230024158A05EA0103958905EA010453
:1032900013B10CB1012000E0002030BDCA4302820E
:1032A00070470000002044490860091D0860091D9E
:1032B0000860091D086041483F49143108607047A3
:1032C00000213D498279002A3AD00A4612680368F3
:1032D0009A430B461A600A1D126803689A430B1D35
:1032E0001A60027911440A6803681A430A60324A74
:1032F0000832126803689A432F4B08331A601A1D6C
:10330000126803689A432C4B0C331A604279102AD6
:103310000ED11A1F126803681A43274B08331A602C
:103320001A1D126803681A43234B0C331A600DE010
:103330002149427911440A6803681A430A6005E08A
:10334000027911440A6803689A430A6070470021B1
:10335000016001710C214171002181717047164992
:10336000103109680143144A103211607047014658
:103370000020114A143212680A400AB1012000E00C
:10338000002070470C491431086070470146002046
:103390000022094B1B6803EA0102074B14331B6828
:1033A0000B4013B10AB1012000E000207047024930
:1033B000143108607047000000040140FFFF0F0057
:1033C00010B50446FA48844208D101214015FEF7A1
:1033D0009FFD00216015FEF79BFD17E0F548844234
:1033E00008D101210015FEF793FD00212015FEF7FD
:1033F0008FFD0BE0F048844208D10121C803FEF79D
:1034000087FD00214FF40040FEF782FD10BD30B56E
:103410000246002000235068E84C20400D790C68DB
:1034200044EA0524204350609068E54C2040D1E9EF
:1034300002542C434D7944EA450420439060D06AFD
:1034400020F470000C7C641EE4B2234340EA035075
:10345000D06230BD00210160017141718160C160A5
:1034600001210174704721B1826842F0010282603B
:1034700003E0826822F001028260704721B1826815
:1034800042F48072826003E0826822F4807282607B
:10349000704710B50023CBB21AB144681C43446096
:1034A00002E044689C43446010BD816841F008011B
:1034B00081607047014600208A6802F008020AB164
:1034C000012000E000207047816841F00401816024
:1034D0007047014600208A6802F004020AB1012008
:1034E00000E00020704721B1826842F4A0028260AF
:1034F00003E0826822F4A002826070470146002047
:103500008A6802F480020AB1012000E000207047BE
:1035100010B50A4600210023416821F46041531E82
:1035200041EA4331416010BD21B1426842F400627A
:10353000426003E0426822F4006242607047F0B5E6
:1035400004460D4600200021092D11DDE068A5F19B
:103550000A0606EB4607072606FA07F18843A5F197
:103560000A0606EB460603FA06F10843E0600CE0A3
:10357000206905EB4507072606FA07F1884305EBA6
:10358000450603FA06F108432061072A0FDA606B4B
:10359000561E06EB86071F2606FA07F18843561EBD
:1035A00006EB860605FA06F10843606322E00D2A61
:1035B0000FDA206BD61F06EB86071F2606FA07F1E7
:1035C0008843D61F06EB860605FA06F108432063FA
:1035D00010E0E06AA2F10D0606EB86071F2606FA48
:1035E00007F18843A2F10D0606EB860605FA06F1FF
:1035F0000843E062F0BD21B1826842F4801282602B
:1036000003E0826822F48012826070470146C86C31
:1036100080B2704766484C300068704721B14268FC
:1036200042F48062426003E0426822F480624260B9
:10363000704721B1426842F48052426003E0426820
:1036400022F48052426070470A460021816821F4CA
:10365000E04111438160704721B1826842F4004229
:10366000826003E0826822F400428260704721B1E8
:10367000826842F40212826003E0826822F402123D
:1036800082607047014600208A6802F400120AB185
:10369000012000E000207047F0B5044615460020E8
:1036A00000220026092911DDE068A1F10A0707EBD5
:1036B000470C072707FA0CF29043A1F10A0707EB22
:1036C000470703FA07F21043E0600CE0206901EBC2
:1036D000410C072707FA0CF2904301EB410703FA6C
:1036E00007F210432061A06BC0F30156EF1C06F1F6
:1036F000010CA7EB0C0707EB870C1F2707FA0CF24E
:103700009043EF1C06F1010CA7EB0C0707EB8707B2
:1037100001FA07F21043A063F0BD10B50A4600217C
:103720000023816B21F44011531E41EA0351816350
:1037300010BD08B5002300930090009B0B4400933C
:10374000009B1A6008BD08B5024600200090009258
:1037500001F12800009B184400900098006880B296
:1037600008BD0A4600214168164B194011434160CB
:1037700070474162826270470A460021416821F029
:103780001F0111434160704740B109490831096880
:1037900041F40001064A0832116007E0044908318B
:1037A000096821F40001024A0832116070470000E4
:1037B0000024014000280140003C0140FFFEF0FFD2
:1037C000FDF7F1FFFFFD3FFF0246002013680B40AD
:1037D0000BB1012000E000207047CA43026070472F
:1037E00070B502460020002300240B125568CEB2AB
:1037F00005EA060415681D4015B10CB1012000E072
:10380000002070BD00220A12D343036070470000FD
:103810001CB50C46064B7B4469460090204600F0E0
:103820004AFC04460020694600F058FC20461CBDB6
:10383000C30800007CB51D4616460C00009001D060
:103840002044401E074B7B442A466946019030467F
:1038500000F031FC05461CB10020694600F03EFC3A
:1038600028467CBD9D0800000FB4044910B503AA8A
:10387000029800F057FC10BC5DF814FB040800200F
:103880000FB41CB5084B06AA7B4469460090059806
:1038900000F011FC04460020694600F01FFC2046A1
:1038A0001CBC5DF814FB00005108000070B50C460C
:1038B0000546012A05D02878800600D5EA6900234C
:1038C00002E0012305E05B1C934202D2E05C002889
:1038D000F9D1A869E618C01AA861286A18442862B4
:1038E000284600F02FF904E0D5E9012114F8010B76
:1038F0009047B442F8D3284600F03AF970BD000072
:103900002DE9F0410646002410687529314616A5B8
:1039100010D000F03EF9002802DA404213A507E07B
:1039200031688A0701D512A502E0490704D511A51F
:10393000012401E000F036F900210A2206F12407F3
:1039400009E0B0FBF2FCB0FBF2F302FB1C003030EC
:1039500078541846491C0028F3D123462A4630469D
:10396000BDE8F04100F027B9000000002D00000084
:103970002B000000200000002DE9F05F894604467E
:103980004FF0000ADFF874B1FB44C0F820A02046D5
:10399000E1688847002874D0252806D0D4E90121A1
:1039A0009047206A401C2062F1E700265F462046CF
:1039B000E16888472028054607DB312D05D27819B4
:1039C00010F8200C08B10643F1E7B00701D526F046
:1039D0000406C4F81CA00027C4F818A02A2D09D09A
:1039E000284602F0C6F838B304EB8708303DC8F823
:1039F000185019E059F8041B204604EB8702916126
:103A0000E1688847012F054618D1E069002820DACF
:103A100026F020061DE0D8F8180000EB800005EB2A
:103A200040003038C8F818002046E168884705464D
:103A300002F09FF80028EED1012F0AD02E2D08D1D8
:103A40002046E16888477F1C0546022F46F0200685
:103A5000C4DBA069002803DA404246F00106A061F9
:103A6000F00701D026F010066C2D0BD0682D09D080
:103A70004C2D39D06A2D35D0742D35D07A2D33D0D8
:103A800016E038E0E1682F4620468847B8420546F0
:103A900009D16C2F26D04FF48060E16806432046A0
:103AA0008847054604E06C2F1AD04FF48070064317
:103AB0000DB3A5F14100192802D8203546F400665F
:103AC0004A462946204626604E46FCF76BFB80B1ED
:103AD00001280BD0F61D26F0070000F1080956E773
:103AE0004020E4E78020D8E70020D6E706F104096B
:103AF0004DE7284652E7206ABDE8F09FD642000015
:103B000010B5431C02E010F8011B71B18107FAD116
:103B10004FF0013202C88C1A8C4314EAC211F9D05A
:103B2000C01A0A0603D0C01E10BDC01A10BD0A0478
:103B300001D0801E10BD0902FCD0401E10BD704790
:103B40007047704770B5044685690068C10601D5A5
:103B5000302600E02026C00707D070BDD4E901213F
:103B600030469047206A401C20626D1EF6D570BD1D
:103B700070B5044685690078C00707D170BDD4E9E7
:103B8000012120209047206A401C20626D1EF6D53E
:103B900070BD09684A0501D540B27047C905FCD51A
:103BA00000B2704709684A0501D5C0B27047C9051F
:103BB000FCD580B270472DE9F0470D4699469246F4
:103BC000044600F124080168880604D5E06921F064
:103BD0001001216000E00120A84201DD471B00E048
:103BE0000027A1697A1902EB0900081AA061207860
:103BF000C00602D42046FFF7A5FF002608E0D4E95E
:103C000001211AF806009047206A401C761C2062A9
:103C10004E45F4DB2078C0060AD52046FFF792FF18
:103C200006E0D4E9012130209047206A401C206240
:103C3000381EA7F10107F4DC07E0D4E9012118F8E8
:103C400005009047206A401C2062281EA5F101054E
:103C5000F3DC2046FFF78CFF2078000602D5022017
:103C6000BDE8F0870120FBE711680268006A530590
:103C700001D508700AE0D30501D5088006E01306D7
:103C800003D5C217C1E9000200E0086001207047B7
:103C900070472DE9FF4F0C461E464FF0FF378BB0A3
:103CA000D2E90001DDF860800A908A46C1F30A5526
:103CB00005B93D46002108464FF00000BAF1000F5B
:103CC00000F4400005DA00EB80004FF4400101EA07
:103CD00050004FEA9059B9F1010F00DDB9460A983A
:103CE00050EA4A000ED044F61050A5F2FF35454385
:103CF0002F14B8F1000F1ED07542291E1EDDC9F128
:103D000000021CE0B8F1010F4FF0000001D030219B
:103D100003E0F24305E02154401CB042FBDB304697
:103D20000022002121540B99C1F80880C1E900202C
:103D30000FB0BDE8F08FBD1B6D1CDEE74A4600DA10
:103D4000694206A800F064FD06AB93E8070003ABE8
:103D500083E8070050460A9901F03CFB8DE8070014
:103D6000A0F500501F3800900398002D09DD42F2A5
:103D70001F014A46084403A90390684601F09BFDD1
:103D800008E0A0F500504A461F3803A90390684692
:103D900001F0A5FD8DE807000004000C03D04FF0F2
:103DA000FF30410800E01046B8F1000F03D00022B8
:103DB000009215461EE0751E05D400F00FFB303250
:103DC00062556D1EF9D5B3460122084302D0002288
:103DD0007F1C04E02078302801D100227F1E002AB9
:103DE000099786D01DE0112D07DA00F0F7FA30327E
:103DF00062556D1C50EA0102F5D1084302D00098CB
:103E0000C8B10EE00021681E05E0235C625C6354CB
:103E10002254401E491C8142F7DBAB46A81B401EC2
:103E20000990002004F80B000B98099AC0F808804C
:103E3000C0E9002B7CE711264FF0000859E72DE977
:103E4000F04F88460446D21D22F0070191B0D1E917
:103E50000001CDE90A0101F078FE02460B98C00F7F
:103E600001D02D2007E02068810701D52B2002E03A
:103E7000202101EAC000032A099001D0072A05DBAE
:103E800003464146204600F06DFC0BE12078800699
:103E900001D5E06900E00620B8F1650F814606D043
:103EA000B8F1660F18D0B8F1670F70D131E000207B
:103EB000B9F1110F009001DB112301E009F10103B9
:103EC0000AAA01A90CA8FFF7E4FEDDE90C700026A0
:103ED00009F10105834647E001204B4600904FF071
:103EE00000470AAA01A90CA8FFF7D3FEDDE90DB02F
:103EF0000C995D46002610B909F101000D18B9EBC7
:103F0000050003D4C0F1FF3609F10105A5EB090056
:103F10002BE0B9F1010F01DA4FF001090020B9F1EE
:103F2000110F0090484601DD112300E003460AAA64
:103F300001A90CA8FFF7ADFEDDE90C704D46002687
:103F40008346207800070AD4AB4500DA5D4601A815
:103F5000012D04DD411911F8011C302907D04F450E
:103F600002DA17F1040F04DA012082460FE06D1E19
:103F7000EEE7002F02DCED1B3E4403E0781CA84274
:103F800000DD7D1CB81B00F1010A4FF000472078CE
:103F9000000703D4AA4501DB4FF0FF3A0021B7F137
:103FA000004F0DF143088DF8431024D002202B233D
:103FB000002F01DA7F422D230A21021EA0F1010009
:103FC00000DC5FB197FBF1FC97FBF1F201FB1C7C7D
:103FD00017460CF1300C08F801CDEEE7A8F101000E
:103FE00003702188090501D5452100E06521A0F174
:103FF000010800F8011C09980FA9A1EB0807FF1D93
:1040000000B10120411901EBEA70A1693844081A96
:10401000401EA0612078C00602D42046FFF792FD22
:10402000099828B1D4E901219047206A401C2062F8
:104030002078C00622D52046FFF784FD1EE0002E22
:1040400004DBB34502DD01A8805D00E03020D4E947
:1040500001219047206A401C2062761CAAF10100D1
:104060005FEA000A0AD100F0B5F9C0680168405C57
:10407000D4E901219047206A401C2062281EA5F146
:104080000105DCDC07E0D4E9012118F8010B9047B9
:10409000206A401C2062381EA7F10107F3DC20468D
:1040A000FFF766FD032011B043E6000001694A1CDA
:1040B00002610878704700B58FB0CDE90131002169
:1040C000059105497944CDE9031011466846FFF78B
:1040D00053FC0FB000BD0000E5FFFFFF0A6802F8C7
:1040E000010B0A607047D1E900239A4202D2531CA7
:1040F0000B601070704710B5436913B1AFF30080C7
:1041000001E0FFF7D3FB012010BD127800F124017C
:104110000A7000224A700122EDE711684FF0FF3269
:10412000E9E70000074B70B50D467B44FFF7C3FF7E
:104130000446284600F0DAFB10B14FF0FF3070BDA6
:10414000204670BD531A00002DE9FF5F15468A46D0
:104150000446DFF8AC80F8440027D8E900103E465A
:10416000CDE9001010E03AF816106A4602A800F0F7
:104170005DFC411C07D02178890603D5E269391816
:1041800091420DD80744761C2078800602D5E0695C
:10419000B84205DDAE42E6DB3AF816000028E2D16F
:1041A000A069C01BA0612046FFF7CCFCD8E9001035
:1041B000CDE90010002017E03AF818106A4602A86E
:1041C00000F034FCB0F1FF3F81460BD000250DF12B
:1041D000080B05E0D4E901211BF8050090476D1C90
:1041E0004D45F7D308F10100B0428046E4DB206A78
:1041F000384420622046FFF7BBFCBDE8FF9F00006B
:104200001A3B00002DE9F0418046D21D22F0070242
:104210000025D2E90002F52915A614D0011E72F17D
:10422000000106DA0023D0EB030063EB020211A6C3
:1042300008E0D8F800108B0701D50FA602E0490767
:1042400001D50EA601251146002408F1240704E03B
:1042500000F0C4F830323A55641C50EA0102F7D13C
:104260002B46324621464046BDE8F041FFF7A3BC4D
:10427000000000002D0000002B00000020000000C6
:1042800030B4002100F1240408E002F00705D20850
:10429000303542EA4372DB086554491C52EA030593
:1042A000F3D10468002310A2250708D504F02004E8
:1042B0000C4304D0C46901230CA2641EC46130BC49
:1042C000FFF779BC10B5044621461068FFF76AFC79
:1042D00002462046BDE810400023D1E7D21D22F05F
:1042E0000701D1E90023CBE7000000003000000007
:1042F000F0B40D460188090502D5214C7C4402E04A
:104300001F4C7C440E34002100F1240608E002F02A
:104310000F071209E75D42EA03721B097754491C33
:1043200052EA0307F3D102780023120704D5702D57
:1043300006D009B1022311342246F0BCFFF73BBC82
:1043400001231034F8E770B504460D462146106885
:10435000FFF728FC024629462046BDE870400023AE
:10436000C6E7D21D22F00703D3E90023C0E70368A4
:10437000126843F0200303600823C3610023B7E7FA
:104380007C3900004FF0000200B513469446964673
:10439000203922BFA0E80C50A0E80C50B1F1200158
:1043A000BFF4F7AF090728BFA0E80C5048BF0CC006
:1043B0005DF804EB890028BF40F8042B08BF704764
:1043C00048BF20F8022B11F0804F18BF00F8012BD6
:1043D0007047000000487047CC08002030B5B0F1AD
:1043E0000A024FEA900E71F100034EEA817EB0EBB3
:1043F0000E0061EB91014FEA101E4EEA017E10EBB8
:104400000E0041EB11114FEA102E4EEA016E10EB37
:104410000E0041EB11214FEA104E4EEA014E10EB17
:104420000E0041EB1141401841F100014FEAD0006C
:1044300040EA41704FEAD10110EB80054FEA810458
:1044400044EA907444EB01046D1944EB0404521BDC
:10445000A3414FF0000348BF0A3200D530BD401CD5
:1044600041F1000130BD00002DE9F04F04460D463A
:10447000D21D22F0070089B0D0E9009248461746C5
:10448000394601F062FB0246F80F01D02D2307E008
:104490002068810701D52B2302E0202101EAC00317
:1044A0008DF820300BB1012000E00020032A824665
:1044B00001D0072A04DB2946204600F053F93DE1EC
:1044C0002078800601D40D2500E0E569C7F30A567F
:1044D0000D2D49DA00214FEA175B08464FF0000026
:1044E000002F00F4400007DA00EB80004FF4400199
:1044F00000EBD07001EA60008115012901DD4FF069
:10450000FF3100224FEA850CBCF1180F06D3134689
:10451000ACF118004FF08052C24003E04FF480131A
:1045200023FA0CF30CF10C0CBCF1200F04D3ACF10A
:10453000200C09FA0CF001E007FA0CF000294FF00A
:10454000004801DD18B90FE00ED140450CD319EB3E
:1045500002095F4121B9404502D19F4329EA02097E
:10456000BBEB175F00D0761C2088000502D57B4886
:10457000784402E079487844193808AA302302F8D0
:104580000A30037C0AF10101002E0AF1020A535499
:104590006A4602DC4FF0300101E04FF031014FF08C
:1045A00001088DF8001002D0A6F2FF3603E059EAA8
:1045B000470100D06A4E002D02DC2178090704D59E
:1045C0004FF002082E218DF80110C44600210BE0A7
:1045D000C7F303433F01C35C491C6D1E02F808305A
:1045E000052908F1010801DA002DF1DC00210CE0B9
:1045F00000EB1973491C1B786D1E082902F808305E
:104600004FEA091908F1010801DA002DF0DC2178E0
:10461000890602D514E0A8F10108E04505DD02EBAA
:10462000080111F8011C3029F5D0B8F1000F07DDA1
:1046300002EB080111F8011C2E2901D1A8F1010893
:10464000002D05DD3E2102F808106D1E08F101085D
:10465000407C002E02F8080008F1010804DA2D2041
:10466000764202F8080002E02B2002F808000A2136
:104670004FF47A70864208F101080BDB96FBF0F3E9
:10468000303302F8083096FBF0F308F1010800FB24
:10469000136601E0642E0CDB642096FBF0F33033EC
:1046A00002F8083096FBF0F308F1010800FB1366EE
:1046B00001E00A2E06DB96FBF1F0303002F808002C
:1046C00008F1010896FBF1F001FB1060303002F8B0
:1046D0000800A16908F1010808EB050202EB0A00D5
:1046E000081AA0612078C00602D42046FFF72AFAF3
:1046F000216A08AE01EB0A00206204E0D4E901213E
:1047000016F8010B9047BAF1010AF7D22078C006DB
:1047100002D52046FFF716FA6E4609E016F8010B9F
:104720003E280FD0D4E901219047206A401C206226
:10473000B8F10108F2D22046FFF71AFA09B00320B7
:10474000BDE8F08F206A2844206203E0D4E901210B
:10475000302090476D1EEBD3F8E700004337000090
:1047600002FCFFFF2DE9F0411F46044603260168C5
:10477000072A01F4006004DB08B116A505E016A5C0
:1047800003E008B115A500E015A521F01000206098
:10479000A069C01EA0610FB1401EA0612046FFF7B6
:1047A000D1F94FB1D4E9012138469047206A401C25
:1047B0002062C01C206206E0206AFAE7D4E90121E9
:1047C00015F8010B9047761EF8D22046FFF7D0F976
:1047D000BDE8F0814E414E006E616E00494E4600CC
:1047E000696E660010B5436913B1AFF3008001E054
:1047F000FFF7AAFC012010BD128800F12401828479
:104800000022C2840122EDE711684FF0FF32E9E790
:104810002DE9F047814616468AB0334878440DC8E2
:104820008DE80D0030487844801C03AC0DC884E846
:104830000D0041F69B300844372190FBF1F290FBCC
:10484000F1F5A5F1800501FB12041B3C02D5644281
:10485000012000E00020DFF890A080460027FA4405
:10486000AAF1BE0A0DE0E00709D03246684607EB20
:1048700047010AEB810101F032F88DE8070064106E
:104880007F1C002CEFD1184F7F44AC3F18E0E807A5
:1048900014D007EB04100DF1180A90E80E008AE816
:1048A0000E00C068F04201D198190890324606A95E
:1048B00003A801F014F803AB83E807006D10641C33
:1048C000002DE4D132466946B8F1000F03A802D0AA
:1048D00000F0F1FF01E001F002F8C9E90001C9F8B8
:1048E00008200AB0BDE8F08728350000007B00F002
:1048F0008000704710B542485421FFF743FD4148FE
:104900005421FFF73FFD40485421FFF73BFD3F494D
:104910003B483C4A3F4B08603D490A603A491960B0
:10492000531C0365481C1065012008653B48344A48
:1049300039A1784400F036FA20B9384878440A386A
:1049400000F0D5FA37482F4A35A1784400F02AFA0A
:1049500020B9344878440A3800F0C9FA32482A4A63
:104960002FA1784400F01EFA20B92F4878440A3865
:1049700000F0BDFA40232248DC000021224600F06E
:10498000EDF920B125487844543800F0B0FA1D48BC
:1049900022464023002100F0E1F920B1214878446B
:1049A000543800F0A4FA184822461023002100F0E1
:1049B000D5F9002806D01C487844BDE81040563888
:1049C00000F095BA10BD104870B5006D20F00104DC
:1049D0000B4800F05DFA0B4800F05AFA0A4800F064
:1049E00057FA09E0206D20F00105204600F050FA4A
:1049F000204600F0A1F82C46002CF3D170BD000039
:104A0000B0070020040800205808002044000020BF
:104A1000480000204C000020720000002A340000F2
:104A200077000000163400000234000070B516460E
:104A30000C46054600F078F8036893F80101012858
:104A400006D0FF2C0FD8185D68B101202C7070BD06
:104A5000D3F807013246214603F2071303442846E0
:104A6000BDE8704018474FF0FF3070BD0EB5CDE97E
:104A70000001FFF745F8029069460120ABBE0EBD6C
:104A800008B5694600900220ABBE08BD1FB58DE891
:104A9000070069460520ABBE04B010BD1FB58DE808
:104AA0000F0069460620ABBEF6E708B569460090E0
:104AB0000920ABBE08BD1CB5CDE9000169460A203E
:104AC000ABBE1CBD704708B5694600900C20ABBE5C
:104AD00008BD000000487047AC0800207546FFF78D
:104AE000F9FFAE4605006946534620F007008546AB
:104AF00018B020B5FCF7C4FEBDE820404FF000061A
:104B00004FF000074FF000084FF0000B21F00701B5
:104B1000AC46ACE8C009ACE8C009ACE8C009ACE8F8
:104B2000C0098D467047000010B5FFF753FC001D0B
:104B300010BD00BF9510000070B50446051F00F0C1
:104B40001FFA0068002C14BF446870BD002C18BF09
:104B5000AC423CBF20466468F8D301680A18AA42F8
:104B600018BF456003D12A680546114401602868D2
:104B70004119A1421CBF6C6070BD61686960216809
:104B80000844286070BD2DE9F04705460C46C8680A
:104B900020F4201040F48000C860800602D508464A
:104BA00000F03BFBE06841F282014FF0FF39014029
:104BB000022903D0204600F0D9FAB5E000F42041E4
:104BC000B1F5004F0FD1C00306D56168E06A884295
:104BD00000D80846606006E02069E06260606069B5
:104BE000FFF771FFA061A0680022EEB200280DDA85
:104BF000E1688B050AD4C043A06041F49030226084
:104C0000E0606068411C61600670A5E0E068904665
:104C1000226040F40050E060206968BB6069FFF7E3
:104C200044FF012704F12405A0B1A08910F4407FBE
:104C300008D0E06900F0EFF9206118B1E06840F4B5
:104C4000006016E0E7612561E06820F4407040F400
:104C500080600EE0E06900F0DEF900282061F1D00C
:104C6000E06840F4006010F4407FE06002D140F45E
:104C70008070E06020696060E06825696FF0010A7B
:104C8000C1051FD56168E06A884200D80846411B0B
:104C900004D02246284600F073FAF0BBE068010217
:104CA00003D5E562C4E9015854E0691CE162616022
:104CB000E16940F48030491EC4E9021030462E708C
:104CC000BDE8F087010202D500F480320AE0606896
:104CD000411C61600670E0680A2E40F48030E0609C
:104CE00006D00022E16A6068814203D90B4602E0E7
:104CF0000122F7E70346A7895B1B7F0503D4E76919
:104D00009F4200DDE2B1814200D80146E5620F1A00
:104D1000C4E90158002B09DD00E005E022461946F0
:104D2000284600F02DFA08B14846C9E747B1A06906
:104D3000E5626560C01BA061E06840F01000E060C3
:104D4000E068000208D56168A069E562491B084473
:104D50006560A0615046B3E73046B1E770B5C468FE
:104D6000A50713D0650211D4B2F5807F09D0B2F542
:104D7000007F06D0B2F5806F08D1012300F1240135
:104D800006E05D1E6FF07F46B54201D3012070BD85
:104D90000161C361416024F470611143C16000206E
:104DA00070BD00002DE9F0410C460746164610463E
:104DB00000F06EF82078611C61280AD0722802D0B9
:104DC00077283CD102E00125002405E002250424D7
:104DD00002E0082448F2020511F8010B2B2806D046
:104DE000622809D011F8010C74280AD00BE045F0B4
:104DF000030544F00204EFE745F0040544F0010424
:104E0000EAE744F0100438462146FFF72FFE411C24
:104E100015D00021316171604FF40071F560F161CE
:104E20007061200704D530460222002100F022F9EB
:104E3000306D40F0010030653046BDE8F081002063
:104E4000FBE72DE9F0410D460646104C206DC107E9
:104E500004D0410804D020F00104F7E722460EE018
:104E6000542000F0D8F807000ED0206D47F0010163
:104E70000843542120653846FFF784FA3A4629460C
:104E80003046BDE8F0418DE70020D6E7B0070020AE
:104E90002DE9F04704464FF000094FF0FF37C56891
:104EA000D4E90486A80707D0204600F093F93046DD
:104EB000FFF7E6FD002802DA3846BDE8F08728054E
:104EC00002D54046FFF738FE4C212046FFF75AFA3C
:104ED000206D20F0010020654846EEE710B504463D
:104EE000AFF300802046BDE81040FBF7C6B910B50F
:104EF00000F0BAF9BDE8104000F0B0B94FF0013C45
:104F000050F8042B51F8043B9A4221D1A2EB0C0338
:104F1000934313EACC1317D150F8042B51F8043BF8
:104F20009A4215D1A2EB0C03934313EACC130BD195
:104F300050F8042B51F8043B9A4209D1A2EB0C0320
:104F4000934313EACC13DBD04FF00000704700BF4F
:104F5000D01A01BAB1FA81F101F0180122FA01F078
:104F6000CB40C1F12001DBB2C0B2C01A2CFA01F370
:104F7000D11A914311EAC311E6D17047704700007E
:104F800000487047B408002070477047704770476A
:104F900038B504460A4600206946AFF30080002871
:104FA00008BF38BD02460099204600F084F9012070
:104FB00038BD012000F0D3B9F8B5AFF30080054645
:104FC00000200C46102000BF0646A819A0420DD9AB
:104FD000324669460020AFF30080070008BF00F0AA
:104FE000BEF90098A04218BF0546C419FFF7C8FFD4
:104FF00005600746F01D20F007004619284600F01E
:1050000053F9B44208BFF8BDA21B31463868BDE869
:10501000F84000F050B970B50646FFF7B1FF0568DB
:1050200006F10B0020F00704B4429CBF002070BDC5
:105030002B466A68BAB11068A04210D304F1080187
:1050400088423CBF5068586007D3516810194160CE
:105050001168091B016058601460101D70BD134673
:105060005268002AE7D121462846FFF791FF002821
:10507000DED170BD2DE9F041044616460D46476964
:10508000007B80072ED03846FFF70FFD50BB3EB3A4
:10509000012E02D0022E25D104E0204600F025F991
:1050A00005441DE03846FFF70EFDE168002841F099
:1050B0001001E16005DA204600F058F80120BDE853
:1050C000F081C9030BD56268E16A914200D81146AC
:1050D000A26911442269891A814200DD084605440B
:1050E000002D01DA0220EAE7E16A6068E2688142A5
:1050F00006D29103E06203D522F4003141F01002A0
:10510000A6690027AE4213DCE16A814201D90B4651
:1051100000E0034603EB060C2369ACEB030CAC4543
:1051200006DD814201D98C4600E084469C4505D1CC
:10513000A760276042F02000A5620DE0AD1BE66984
:10514000AE1B8142A66000D90846C01A281A20600A
:105150005819606022F0200003490840E0600020F8
:1051600084F84870ABE70000BFCFD7FFC16821F4D7
:10517000001141F08001C160002181600160704731
:105180002DE9F047814614460E464FF0FF3832486D
:10519000D5685769054209D03846A169FFF78BFCED
:1051A000002811DB2C48C0430540E5602B46324601
:1051B00049463846FFF76AFCA16920F00042B21A5E
:1051C00011440028A16103D02046FFF7CFFF4046DD
:1051D000BDE8F08770B504460569C06A6168884219
:1051E00000D80846E16821F42011E160C90312D516
:1051F000A84208D02246411B2846FFF7C1FF10B144
:105200004FF0FF3070BD0020E562C4E90150E06856
:1052100020F48030E060002070BD10B50446C06806
:1052200020F02000E060A16AA06988420DD02046ED
:10523000FFF7D0FFE06820F4405040F01000E0603D
:10524000A06AA0612069E062606044F24001E06809
:105250008843E06010BD000010000200002801D06B
:1052600000F01CB87047000010B5014602A000F025
:105270005DF8012010BD0000534947525452454487
:105280003A2052656469726563743A2063616E27DF
:1052900074206F70656E3A200000000001491820EC
:1052A000ABBEFEE72600020000210160C0E901104C
:1052B000704710207047034640688C46002818BF8E
:1052C00088423CBF03464068F8D3186818448842B7
:1052D00007D00CF1030020F00700001D411A521AFC
:1052E0000146081D0A60FFF727BC10B50146C268D9
:1052F000900703D0900607D5886A0AE000F03EF8D0
:1053000001210160881E10BD8B69486818440B6933
:10531000C01A91F848301BB191F84910401A10BDDD
:105320001103FCD50028FADD401E10BD70B50546FE
:105330000C460A2000E06D1C00F018F835B1287802
:105340000028F8D102E0641C00F010F814B12078B5
:105350000028F8D1BDE870400A2000F007B810B569
:1053600000F010F8BDE81040FFF778BF08B56946B7
:105370008DF800000320ABBE08BD00000048704758
:10538000AC08002010B5012805D0002103A0FFF7CC
:10539000CDFF012010BD09A1F8E700005349475295
:1053A000544D454D3A204F7574206F6620686561F5
:1053B00070206D656D6F7279000000003A204865BD
:1053C0006170206D656D6F727920636F7272757098
:1053D000746564005FEA400C08BF91F0000F4FEA6B
:1053E0008C234FEAC12243EA51514FEA1C5018BFA7
:1053F00000F5F0404FEA300018BF41F000415FEA8D
:105400006C5C00F02980BCF1FF3F08BF40F0804099
:105410007047130C06BF12044FF0100C4FF0000C35
:10542000130E04BF12020CF1080C130F04BF12017B
:105430000CF1040C930F04BF92000CF1020CD30F7B
:1054400004BF52000CF1010C11464FF00002A0F114
:105450001F00A0EB0C00704711F0004F08BF704711
:1054600031F000413FF4D5AF0B0C06BF09044FF0FB
:10547000100C4FF0000C0B0E04BF09020CF1080CCD
:105480000B0F04BF09010CF1040C8B0F04BF890042
:105490000CF1020CCB0F04BF49000CF1010CCCF154
:1054A0002003A0EB0C0022FA03F302FA0CF241EA0B
:1054B000030100F10100704720F07F4C80EA0300F7
:1054C00023F07F47ACEB070303F57C5300F000406B
:1054D00003F1FF032DE980494FEA154B09B44FEA68
:1054E000144325EA0B4E24EA03480FF2042606EB88
:1054F000132749083E785FEA320203FB0667C7F5C7
:10550000000707FB06F64FEA54374FEAD64606F186
:10551000020607FB066CCCF1005C4FEA1C472CEA44
:10552000074C07FB06F40CFB06F504EB15464FEAA7
:10553000961634BF00204FF000404FEAD13706FBEB
:1055400007FC4FEA1C4C0CFB0BF7D21B03FB0CF7C0
:1055500061EB07010CFB0EF7B0EB074072EB174253
:105560000CFB08F734BFA2EB0742B2EB074261EB3A
:1055700017414FEA0C444FEA910706FB07FC4FEA3C
:105580001C4C0CFB0BF7B0EBC74072EB573203FB24
:105590000CF734BFA2EBC742B2EBC74261EB573105
:1055A0000CFB0EF7B0EBC70072EB57720CFB08F761
:1055B00034BFA2EBC702B2EBC70261EB5771039F86
:1055C0004FEA816141EA921104EBCC044FEAD137F2
:1055D0004FEA826206FB07FC42EA90124FEA8060C3
:1055E0004FEA1C4C0CFB0BF7D21B03FB0CF761EBD7
:1055F00007010CFB0EF7B0EB074072EB17420CFBF8
:1056000008F734BFA2EB0742B2EB074261EB174148
:105610004FEA8C554FEA910704EB9C2406FB07FCEC
:105620004FEA1C4C0CFB0BF7B0EBC74072EB573248
:1056300003FB0CF734BFA2EBC742B2EBC74261EBEE
:1056400057310CFB0EF7B0EBC70072EB57720CFB37
:1056500008F734BFA2EBC702B2EBC70261EB577188
:1056600015EB4C254FEA816141EA92114FEA8262C3
:105670004FEAD13742EA901206FB07FC44F10004DE
:105680004FEA80604FEA1C4C0CFB0BF7D21B03FB6C
:105690000CF761EB07010CFB0EF7B0EB074072EB68
:1056A00017420CFB08F734BFA2EB0742B2EB0742EC
:1056B00061EB174115EB1C154FEA813141EA92412C
:1056C0004FEA823242EA90424FEA80304FEA0C764B
:1056D00044F1000448EA03434EEA0B484FF0000E41
:1056E000B2EB080C71EB030724BF624639464EEB60
:1056F0000E0E4FF0000B0018524149414BEB0B0BC3
:10570000B2EB080C71EB03077BF1000B24BF624680
:1057100039464EEB0E0E4FF0000B00185241494136
:105720004BEB0B0BB2EB080C71EB03077BF1000B9F
:1057300024BF624639464EEB0E0E51EA020718BFEF
:1057400046F0010616EB0E7655F1000254F1000109
:1057500003D5BDE88901BDE80088BDE88901BDE841
:105760000048B619524141EB0101A3F10103704712
:1057700080807F7E7D7C7B7A79787776767574738E
:10578000727171706F6E6E6D6C6C6B6A6A6968684D
:10579000676666656464636362616160605F5F5EE3
:1057A0005E5D5D5C5C5B5B5A5A5959585857575659
:1057B00056555555545453535252525151505050BE
:1057C0004F4F4F4E4E4D4D4D4C4C4C4B4B4B4A4A10
:1057D0004A49494948484847474747464646454554
:1057E000454444444443434343424242424141418D
:1057F000002B26D4770021D01CB54FEA370703B41D
:105800004FF010004FF010014FF000000FBCBDE84A
:1058100010400BF1010BBBF1010F08BF5FEA170746
:1058200022BF12F1010211F101014FF0004143F1D9
:10583000000300F0004043EA00007047F9D3570826
:10584000DAE746EA064613F1400F4FEA16461FDD37
:1058500013F1200FDFBF16430A46002120335B42BD
:10586000C8D0C3F1200746EA064602FA07F74FEA16
:10587000164646EA0706C3F1200722FA03F201FAA8
:1058800007F721FA03F14FF0000342EA0702B1E7FC
:1058900046EA020646EA06464FEA164646EA010688
:1058A000BCBF46EA0646360C4FF000034FF000023C
:1058B0004FF000019EE72DE9C048934630B491E8CF
:1058C000380007C831EA400C48BF34EA430C03D51E
:1058D000FFF7F2FDFFF78CFFF0BCBDE800882DE973
:1058E000C048934630B491E8380007C810F0804FA4
:1058F00008BF13F0804F03D100F005F8FFF778FFE1
:10590000F0BCBDE8008820F07F4780EA030023F068
:105910007F4C07EB0C03A3F57C5300F00040A3F190
:10592000FE0392F0000F00F0B38095F0000F00F03E
:1059300077802DE901494FEA11404FEA144621EAE8
:10594000004800FB06FC24EA064708FB06F607FBB6
:1059500008F800FB07F718EB06484CEB164C4FEA2B
:10596000124B18EB07484FEA15464CEB174022EA5A
:105970000B4E0BFB06FC25EA06470EFB06F607FB63
:105980000EFE0BFB07F71EEB064E4CEB164C4FF0D2
:1059900000061EEB074E4CEB174B18EB0B0840F1C3
:1059A000000018EB0E0B58EB000840F100008F1AB6
:1059B0004FF000013CBFC943661B14BFB5EB040C9C
:1059C00000213CBFC943F61B4FEA17444EEA8E0E36
:1059D00027EA04454FEA1C4704FB07622CEA074C00
:1059E00005FB07F70CFB05F604FB0CFC16EB074662
:1059F00042EB174216EB0C4642EB1C421BEB060631
:105A000058EB0202414146EA9E0601D5BDE80189F4
:105A1000B619524141EB0101A3F10103BDE801892F
:105A20004FEA14454FEA114724EA054621EA074C9C
:105A300005FB07F406FB07F70CFB06F105FB0CFC66
:105A400011EB074144EB17444FEA124711EB0C41AD
:105A500044EB1C4422EA074C05FB07F206FB07F760
:105A60000CFB06F605FB0CFC16EB074642EB174257
:105A700016EB0C4642EB1C456A1854F1000148BF76
:105A80007047B619524141EB0101A3F10103704780
:105A900095F0000F37D04FEA11424FEA144721EA40
:105AA000024624EA074C02FB07F106FB07F70CFB52
:105AB00006F402FB0CFC14EB074441EB17414FEAE0
:105AC000154714EB0C4441EB1C4125EA074C02FB43
:105AD00007F506FB07F70CFB06F602FB0CFC16EBC2
