:020000040800F2
:10000000000E0020691800087D0400087F04000825
:1000100083040008870400088B0400080000000027
:100020000000000000000000000000008F04000835
:1000300091040008000000009304000895040008E3
:100040008318000883180008831800088318000824
:100050008318000883180008B90E0008710F000803
:100060002B10000883180008831800088318000864
:1000700083180008831800088318000883180008F4
:1000800083180008831800088318000883180008E4
:10009000831800088318000883180008551000080A
:1000A00083180008831800088318000883180008C4
:1000B000DD120008F51100088318000883180008F5
:1000C00083180008831800088318000883180008A4
:1000D000831800085B17000883180008A31700089E
:1000E0008318000883180008831800088318000884
:1000F0008318000883180008831800088318000874
:100100008318000883180008831800088318000863
:100110008318000883180008831800088318000853
:100120008318000883180008831800088318000843
:1001300000F002F800F090F80AA090E8000C824469
:100140008344AAF10107DA4501D100F085F8AFF246
:10015000090EBAE80F0013F0010F18BFFB1A43F0A5
:1001600001031847D0730000F0730000103A24BF59
:1001700078C878C1FAD8520724BF30C830C144BF0C
:1001800004680C607047000000230024002500264E
:10019000103A28BF78C1FBD8520728BF30C148BFEA
:1001A0000B6070476E2903F05485702903F0B58603
:1001B000662905F05C85652905F05985672905F0F4
:1001C0005685612905F0558503681B0A28BF41F053
:1001D0008001692903F0B083642903F0AD83752998
:1001E00003F0AA836F2903F04386782903F0818600
:1001F000E92903F0DD85E42903F0DA85F52903F028
:10020000D785EF2903F04086F82903F0808603683C
:10021000DB0928BF41F08001632903F05E85732963
:1002200003F06385E32904F05D82F32904F0628220
:10023000002070471FB504F0AFFA04000020002131
:1002400004F09EFF401C60600020002104F082FF4B
:10025000E0601FBD10B510BD04F070FA1146FFF745
:10026000E9FF00F03DF804F049FB03B4FFF7F2FFAB
:1002700003BC04F091FB00002DE9F04705466448FB
:10028000006805F017FB0746294605F070FC044698
:1002900060480168204605F075FC5F4908605F48CA
:1002A000006805F007FB82465B480168504605F090
:1002B00061FB80465A480068404205F0FBFA8246DE
:1002C000214605F057FB8146414605F05BFC074699
:1002D00005F0D4FA06464F4804603046BDE8F08782
:1002E00000204B49086040F283304E49086001F01D
:1002F0005BF84FF4E13001F039F94BA14F4801F0C0
:1003000008FA00F025FD00F03FFF4FF4A06002F076
:100310004FF800F0E3FC00F035FD00F053FC002046
:1003200000F013FA002000F01EFA00F071FA00F05D
:100330004CFA41F61F4141F2873000F0A1FF00F076
:10034000B5FE10213E4801F0BEFB08213C4801F0FB
:10035000B8FB002140F2833000F0CDFE01F08EF8B2
:1003600000BF54E00A21072001F0E4F83549088075
:100370000846008805F0B6FA804605F0E5F906461D
:100380004FF06632304B04F0EBFF044604F00EFFF2
:100390002E4908600846006805F0D6F906462C4A42
:1003A0002C4B04F0DDFF044600222B4B05F0D6F861
:1003B000804604F0FBFE294908604FF07E51274833
:1003C000006805F0A3FA03D20020254908600DE07B
:1003D00024492248006805F099FB03D200202049F7
:1003E000086003E01D4800681D4908601C4800685B
:1003F00005F0AAF9044622460B461BA10F4801F05E
:1004000088F90848008881B21B4802F00BFFA9E771
:10041000300000203C000020400000203800002078
:10042000340000201C000020204861726477617253
:100430006520696E6974204F4B0D0A000038014039
:10044000000801401800002066664A3F2C0000208A
:1004500046175D74D1455B4000807640280000203F
:10046000240000200000C842616E676C653A2530A8
:100470002E32660D0A00000000080040704700BFE1
:10048000FEE700BFFEE700BFFEE700BFFEE77047E4
:1004900070477047704700000CB500200190009035
:1004A0006C48006840F480306A49086000BF6948C1
:1004B000006800F4003000900198401C0190009802
:1004C00018B90198B0F5A06FF1D16248006800F446
:1004D000003010B10120009001E000200090009851
:1004E000012843D15C48006840F010005A49086078
:1004F0000846006820F0030008600846006840F0E5
:100500000200086053484068524948600846406805
:1005100048600846406840F480604860084640688B
:1005200020F47C1048600846406840F4E8104860B9
:100530000846006840F08070086000BF45480068C9
:1005400000F000700028F9D04248406820F0030015
:10055000404948600846406840F00200486000BFDB
:100560003C48406800F00C000828F9D10CBD10B5DB
:10057000FFF792FF10BD10B53648006840F001004B
:1005800034490860084640683449084031494860A9
:1005900008460068324908402E490860084600684D
:1005A00020F4802008600846406820F4FE0048607F
:1005B0004FF41F008860FFF7DAFF4FF00060294911
:1005C000086010BD10B5002100200022214B5B689F
:1005D00003F00C0121B1042906D0082928D107E035
:1005E000214B224C236027E01F4B204C236023E04B
:1005F000184B5B6803F47010164B5B6803F4803291
:10060000022303EB904022B9194B4343174C23605C
:100610000DE0104B5B6803F4003323B1144B4343EC
:10062000124C236003E0104B4343104C236003E063
:100630000D4B0E4C236000BF00BF064B5B68C3F33D
:1006400003130C4CE15C094B1B68CB40074C236047
:1006500010BD000000100240002002400000FFF822
:10066000FFFFF6FE08ED00E000127A0044000020D3
:1006700000093D004800002010B54021F84801F075
:1006800020FA8021F64801F01EFA8021F44801F09A
:1006900018FA10BD10B54021F14801F012FA4021BE
:1006A000EF4801F010FA10BD70B5044600251BE0BC
:1006B0004021EB4801F007FA04F0800020B18021CE
:1006C000E74801F0FEF903E08021E54801F0FBF97D
:1006D0004021E34801F0F5F94021E14801F0F3F948
:1006E0006006040E681CC5B2082DE1DB70BD10B5B4
:1006F0008021DB4801F0E5F94021D94801F0E1F91A
:100700008021D74801F0DFF94021D54801F0DBF91D
:1007100010BD70B505460C46FFF7E9FF7820FFF7DE
:10072000C3FFFFF7B7FF1CB14020FFF7BDFF02E09A
:100730000020FFF7B9FFFFF7ADFF2846FFF7B4FF32
:10074000FFF7A8FFFFF798FF70BD10B504461CB96E
:100750000021A620FFF7DDFF012C03D10021A720F7
:10076000FFF7D7FF10BD10B504463CB90021C820E3
:10077000FFF7CFFF0021A120FFF7CBFF012C07D10E
:100780000021C020FFF7C5FF0021A020FFF7C1FF17
:1007900010BD10B500218D20FFF7BBFF00211420F4
:1007A000FFF7B7FF0021AF20FFF7B3FF10BD10B573
:1007B00000218D20FFF7ADFF00211020FFF7A9FFDA
:1007C0000021AF20FFF7A5FF10BD70B500241CE08D
:1007D00004F1B001C8B20021FFF79BFF00210846D9
:1007E000FFF797FF00211020FFF793FF002508E097
:1007F0009C4901EBC501085D0121FFF78AFF681CD8
:10080000C5B2802DF4DB601CC4B2082CE0DB70BDE7
:1008100070B500240CE0002506E00020914901EBB2
:10082000C5010855681CC5B2802DF6DB601CC4B23A
:10083000082CF0DBFFF7C9FF70BD70B50A46CE1774
:1008400001EB5676C6F3C703CE1701EB5676F610CA
:10085000A1EBC606F4B20122A240D5B2814A02EB56
:10086000C002D25C2A437F4E06EBC006F25470BD34
:1008700070B50B46CE1701EB5676C6F3C702CE17FE
:1008800001EB5676F610A1EBC606F4B20123A340A5
:10089000DDB2744B03EBC0039B5CDB43714E06EB94
:1008A000C006B3546F4B03EBC0039B5C2B436D4EF0
:1008B00006EBC006B3546B4B03EBC0039B5CDB43FE
:1008C000684E06EBC006B35470BD2DE9F0430646F2
:1008D0000F469046002544463BE03A1BD1B27219C0
:1008E000D0B2FFF7AAFF3A1BD1B2721BD0B2FFF70A
:1008F000A4FF3A19D1B2721BD0B2FFF79EFF3A198A
:10090000D1B27219D0B2FFF798FF7A19D1B2321969
:10091000D0B2FFF792FF7A1BD1B23219D0B2FFF7F3
:100920008CFF7A1BD1B2321BD0B2FFF786FF7A1947
:10093000D1B2321BD0B2FFF780FF6D1C05FB05F072
:1009400004FB040008FB1809B9F1000F01DD641E67
:100950006D1E6000604308FB08F18842BDDABDE807
:10096000F0832DE9FF4F81B080460E461C4600966D
:100970002046E31704EB5373DB1021464FEAE47C77
:1009800004EB5C7C4FEAEC0CA4EBCC0CBCF1000F4C
:1009900002D04FF0010C01E04FF0000C63442246FE
:1009A00004EBD27C4FEA6C0C03FB0CF303F0FF0B5F
:1009B00003982038C7B2002547E00C2C07D107EB7D
:1009C0004700294901EB800010F805A014E0102C25
:1009D00005D1264800EB071010F805A00CE0182CF4
:1009E00007D107EBC700224901EB800010F805A0F2
:1009F00002E005B0BDE8F08F4FF000091FE00AF0FB
:100A0000800020B131464046FFF717FF03E0314632
:100A10004046FFF72DFF4FEA4A604FEA106A701C0C
:100A2000C6B20098301AA04205D1009E08F101001C
:100A300000F0FF0806E009F1010000F0FF09B9F13C
:100A4000080FDCDB00BF681CC5B25D45B5DB00BF2D
:100A5000CFE7F0B506460F4614461D461EE00000DF
:100A6000000C014088000020765C0008EA60000865
:100A7000DA66000822782B4639463046FFF771FFC8
:100A8000284605EBD07106EB6101CEB2C5F18000BE
:100A9000B04202DA0026B81CC7B2641C20782028B5
:100AA00002DB20787E28E5DDF0BD10B5024601208E
:100AB00000E050430B1EA1F10104E1B2F9D110BDD9
:100AC0002DE9F04F06468A4691461F46099C0025AF
:100AD0002CE0781B401EC1B20A20FFF7E6FFB9FBED
:100AE000F0F00A21B0FBF1F201FB1208B8F1000F9F
:100AF0000CD1A34604EBDB71491001FB0561C8B2C0
:100B0000234630225146FFF72CFF0DE0A34604EBAD
:100B1000DB71491001FB0561C8B208F13001CAB2AE
:100B200023465146FFF71DFF681CC5B2BD42D0DB0E
:100B3000BDE8F08F70B504460D4605F1B001C8B2AE
:100B40000021FFF7E6FD102141EA14100021FFF714
:100B5000E0FD04F00F0141F001000021FFF7D9FD95
:100B600070BD2DE9F05F05460E4617469846DDF844
:100B700028B04FF00009CA460024E11704EB517178
:100B8000C910A4EBC10101B901E0601CC4B2344634
:100B900014E021462846FFF7CDFFAA460AE01BF8DD
:100BA00009000121FFF7B5FD09F101090AF1010072
:100BB00000F0FF0ABA45F2DB601CC4B24445E8DB32
:100BC000BDE8F09F08B50121082001F089F9C02097
:100BD000ADF8000010208DF8030003208DF802000E
:100BE00069463D4800F0C0FEC0213B4800F069FF67
:100BF0000021AE20FFF78DFD00210846FFF789FD9B
:100C000000211020FFF785FD00214020FFF781FD26
:100C100000218120FFF77DFD0021CF20FFF779FD26
:100C20000021A120FFF775FD0021C820FFF771FD0D
:100C30000021A620FFF76DFD0021A820FFF769FD28
:100C400000213F20FFF765FD0021D320FFF761FD64
:100C500000210846FFF75DFD0021D520FFF759FD73
:100C600000218020FFF755FD0021D920FFF751FD1D
:100C70000021F120FFF74DFD0021DA20FFF749FDAB
:100C800000211220FFF745FD0021DB20FFF741FD89
:100C900000214020FFF73DFD00212020FFF739FD16
:100CA00000210220FFF735FD00218D20FFF731FDE7
:100CB00000211420FFF72DFD0021A420FFF729FDBE
:100CC0000021A620FFF725FD0021AF20FFF721FD21
:100CD000FFF79EFD08BD0000000C014008B5012192
:100CE000042001F0FDF80120ADF8000048208DF847
:100CF00003006946154800F037FE0220ADF80000F9
:100D000048208DF803006946104800F02DFE0420AD
:100D1000ADF8000048208DF8030069460B4800F04C
:100D200023FE2020ADF8000048208DF8030069461E
:100D3000064800F019FE4020ADF8000048208DF86C
:100D400003006946014800F00FFE08BD000801409D
:100D500008B50121082001F0C3F80420ADF8000017
:100D600010208DF8030003208DF802006946044826
:100D700000F0FAFD0421024800F0A3FE08BD0000C7
:100D8000000C01400EB50121084601F0A9F8FFF75B
:100D9000A5FF0521002000F0FDFE2020019000208D
:100DA0008DF808000C208DF8090001208DF80A004C
:100DB00001A802F087FA0621002000F0EBFE402097
:100DC000019000208DF808000C208DF8090001200A
:100DD0008DF80A0001A802F075FA17208DF80000BE
:100DE00002208DF8010001208DF802008DF803002B
:100DF000684601F0E2FA0021084600F0CBFE01202F
:100E0000019000208DF8080008208DF809000120CD
:100E10008DF80A0001A802F055FA06208DF80000AE
:100E200002208DF801008DF8020001208DF80300EA
:100E3000684601F0C2FA0121002000F0ABFE02205A
:100E4000019000208DF8080008208DF8090001208D
:100E50008DF80A0001A802F035FA07208DF800008D
:100E600002208DF801008DF8020001208DF80300AA
:100E7000684601F0A2FA0221002000F08BFE042057
:100E8000019000208DF8080008208DF8090001204D
:100E90008DF80A0001A802F015FA08208DF800006C
:100EA00002208DF801008DF8020001208DF803006A
:100EB000684601F082FA0EBD10B50A2000F0B1FAC2
:100EC0007648006801284FD17548006808B90120AC
:100ED00000E000207249086072480068401F7149B4
:100EE0000860084600681E2802DD0020086006E051
:100EF0006C480068002802DA1E206A4908606948C8
:100F000000680F281CD005DC58B105280ED00A282F
:100F100029D110E0142818D019281BD01E2822D15E
:100F20001DE040F28330604908601CE04FF44370DC
:100F30005D49086017E04FF42F705B49086012E0CC
:100F400040F27620584908600DE040F226205649CC
:100F5000086008E04FF4D7705349086003E0DC20D4
:100F60005149086000BF00BF012002F022FA10BD05
:100F700010B50A2000F055FA4848001D0068012805
:100F80004FD14748006808B9012000E000204449DB
:100F9000086044480068401D4249086008460068EF
:100FA0001E2802DD0020086006E03E480068002898
:100FB00002DA1E203B4908603A4800680F281CD01E
:100FC00005DC58B105280ED00A2829D110E01428D4
:100FD00018D019281BD01E2822D11DE040F28330E2
:100FE000314908601CE04FF443702F49086017E056
:100FF0004FF42F702C49086012E040F276202A4905
:1010000008600DE040F226202749086008E04FF410
:10101000D7702549086003E0DC202349086000BF41
:1010200000BF022002F0C5F910BD10B50A2000F083
:10103000F8F91A48001D0068012807D1184800680F
:1010400008B9012000E0002015490860042002F0E2
:10105000B0F910BD10B50A2000F0E3F90F481430C4
:10106000006850B90E48006808B9012000E000206F
:101070000B490860202002F09CF9084818300068ED
:1010800050B90748006808B9012000E00020044971
:101090000860402002F08DF910BD000000012142DF
:1010A00088812142300000201C00002008B5012169
:1010B000042000F015FF10208DF803001820ADF873
:1010C000000003208DF8020069462C4800F04CFC1B
:1010D0000121082000F004FF18208DF803004FF4D0
:1010E0008070ADF8000003208DF8020069462448A6
:1010F00000F03AFC08BD30B589B005460C46012128
:10110000042000F0FAFE0121082000F0E9FE4FF46F
:101110008070ADF8200018208DF8230003208DF892
:10112000220008A9164800F01FFC4FF480711448F3
:1011300000F0C7FCADF81850ADF814400020ADF831
:101140001A00ADF8160005A90E4801F073FA7020D8
:10115000ADF804000120ADF806000020ADF80C0049
:1011600001A9084801F032FB0821064801F004FFFC
:101170000121044801F0BAFD09B030BD000801406A
:10118000000C0140000800401FB50121022000F0C2
:10119000B4FE0121744802F083F842F6F720ADF85E
:1011A000080041F61F40ADF804000020ADF80A0029
:1011B000ADF8060001A96C4801F03CFA0122114685
:1011C000694801F0AEFD0121674801F08FFD4FF441
:1011D000C06001F0EDF81D208DF8000000208DF8B2
:1011E000010001208DF802008DF80300684601F02F
:1011F000E4F81FBD10B501215B4802F040F801285A
:101200003DD15A48006804F039FB0446224658A1F3
:101210005A4802F02BFB1023584A00210846FFF7DA
:1012200018FC5248006804F029FB0446224654A1E9
:10123000524802F01BFB1023504A19460020FFF7CA
:1012400008FC524852A102684C4802F00FFB1023E0
:101250004A4A20210020FFF7FCFB4F484FA10268BB
:10126000464802F003FB1023444A30210020FFF7D8
:10127000F0FBFFF7AAFA01213B4802F011F810BD7C
:101280007FB505460C460121084600F036FEADF854
:101290000850ADF804400020ADF80A00ADF8060093
:1012A00001A94FF0804001F0C5F9012211469007D5
:1012B00001F037FD1C208DF8000000208DF80100A2
:1012C00003208DF8020001208DF80300684601F02C
:1012D00074F80121880701F009FD7FBD10B50121D7
:1012E000880701F0CCFF00283DD02048006804F0BA
:1012F000C5FA044622461EA1204802F0B7FA102380
:101300001E4A00210846FFF7A4FB1848006804F0B5
:10131000B5FA044622461AA1184802F0A7FA10238B
:10132000164A19460020FFF794FB184818A10268D6
:10133000124802F09BFA1023104A20210020FFF7E8
:1013400088FB154815A102680C4802F08FFA10239B
:101350000A4A30210020FFF77CFBFFF736FA012113
:10136000880701F09DFF10BD00040040240000200C
:101370004572726F723A25303264000074000020AA
:10138000416E676C653A2530326400001C00002015
:1013900050574D3A256400003000002054616E67BC
:1013A0006C653A253032640010B56FF0040001F02E
:1013B0004EF82E4800682E49B0FBF1F02D49087018
:1013C0000846007800EB4001C1EBC0104FF6FF71FA
:1013D00001EAC0002849088010BD0146254A12785C
:1013E0004A434FF0E0235A6100229A611A4612697B
:1013F00042F001021A6100BF4FF0E022106900F0D4
:1014000001021AB100F48032002AF5D04FF0E02238
:10141000126922F001024FF0E0231A6100229A6162
:1014200070470146144A12884A434FF0E0235A613C
:1014300000229A611A46126942F001021A6100BF45
:101440004FF0E022106900F001021AB100F480327E
:10145000002AF5D04FF0E022126922F001024FF08D
:10146000E0231A6100229A617047000044000020C6
:1014700000127A00580000205A00002000B587B002
:1014800001214FF4017000F02BFD8020ADF8180011
:1014900000208DF81B0003208DF81A0006A93148A2
:1014A00000F062FA4FF4004000F07EFC2E4801F09C
:1014B00089FF002001908DF808008DF809004FF495
:1014C000602003900020049001208DF8140001A9F1
:1014D000254801F09EFF0121234801F0C6FF224864
:1014E00001F0E5FF00BF204801F0E6FF0028FAD137
:1014F0001D4801F0EBFF00BF1B4801F0ECFF002886
:10150000FAD107B000BD10B50446072301222146D9
:10151000154802F016F80121134801F0E6FF00BF5C
:101520000221114802F052F90028F9D00E4802F0C9
:101530006FF810BD2DE9F04107460C460025002646
:1015400008E03846FFF7DFFF0544C820FFF745FFF6
:10155000701CC6B2A642F4DBB5FBF4F080B2BDE865
:10156000F0810000000801400024014010B586B061
:1015700004460121042000F0B3FC0121880300F09F
:10158000AFFC18208DF817004FF40070ADF8140070
:1015900003208DF8160005A9AC4800F0E5F90420F9
:1015A0008DF817000002ADF8140003208DF8160026
:1015B00005A9A64800F0D8F901940020ADF8100064
:1015C0000C20ADF80E000020ADF80C00ADF80A00BC
:1015D000ADF8080001A99E4800F029FD01219C48B2
:1015E00000F0B1FD012240F22551994800F0B7FD0D
:1015F00025208DF8000001208DF8030000208DF8D3
:10160000010002208DF80200684600F0D6FE06B008
:1016100010BD10B586B004460121082000F060FC22
:101620000121880400F069FC8A4800F0BDFC4FF4F9
:101630008060ADF8100003208DF8120018208DF89E
:10164000130004A9844800F08FF94FF40060ADF84E
:10165000100004208DF8130004A97F4800F084F9DD
:1016600000940020ADF80400ADF80600ADF80800C5
:10167000ADF80C000C20ADF80A006946754800F082
:10168000D6FC0121734800F05EFD012240F2255195
:10169000704800F064FD27208DF8140000208DF8BC
:1016A000150003208DF8160001208DF8170005A8FD
:1016B00000F083FE00206949088006B010BD0BE0F1
:1016C00000BF6449098801F040010029F9D0017880
:1016D000604A121D1180401C01780029F0D170472A
:1016E0002DE9F04107460C46154600260DE014F89A
:1016F000011B384600F094FD00BF4021384600F041
:10170000FDFD0028F9D0701C86B2AE42EFDBBDE8CB
:10171000F0810FB430B5CBB0054601AC50A80090B5
:101720004FF4947101A8009B4F9A02F085F80020B5
:1017300000900BE014F8011B284600F071FD00BF7B
:101740004021284600F0DAFD0028F9D02078002852
:10175000F0D14BB030BC5DF814FB10B540F2255110
:101760003B4800F0E1FD18B12021394800F0D3FDDD
:1017700010BD00203949098801F4004181B1374981
:101780000988C8B20021364A11543A2801DD3B20AD
:1017900011540121324A82F83B1000212F4A118056
:1017A000704710B540F225512A4800F0BDFD38B30E
:1017B000284800F039FDC4B22848008800F40040F1
:1017C000E0B926480088C0F30E003C2810DA212C2E
:1017D00007D022490888411C204A118020490C5416
:1017E0000CE01E48008840F400401C49088005E0D9
:1017F0001A48008840F4004018490880FFF7B9FFF4
:1018000010BD0FB438B505A800901648009A049989
:1018100002F000F800200090124802F08DF985B225
:1018200000240DE000BF40210A4800F067FD0028B9
:10183000F9D00C48015D074800F0F2FC601C84B24E
:10184000AC42EFDB38BC5DF814FB0000000801403F
:101850000038014000480040000C01405C000020BE
:101860000805002044050020094880470948004732
:10187000FEE7FEE7FEE7FEE7FEE7FEE7FEE7FEE740
:10188000FEE7FEE704480549054A064B704700009D
:10189000770500083101000800080020000E002034
:1018A000000A0020000A002010B50446CC488442FB
:1018B00008D10121042000F02DFB0021042000F0BC
:1018C00029FB46E0C748844208D10121082000F0E6
:1018D00021FB0021082000F01DFB3AE0C2488442B1
:1018E00008D10121102000F015FB0021102000F08C
:1018F00011FB2EE0BD48844208D10121202000F0D8
:1019000009FB0021202000F005FB22E0B8488442BA
:1019100008D10121402000F0FDFA0021402000F014
:10192000F9FA16E0B348844208D10121802000F082
:10193000F1FA0021802000F0EDFA0AE0AE4884427E
:1019400007D10121801500F0E5FA0021A01500F073
:10195000E1FA10BD10B50121084600F0DBFA0021C4
:10196000012000F0D7FA10BD2DE9F0410246002514
:101970000026002000230024002791F803C00CF06B
:101980000F0591F803C00CF0100CBCF1000F03D050
:1019900091F802C04CEA050591F800C0BCF1000FB7
:1019A00031D0146800202BE04FF0010C0CFA00F34A
:1019B000B1F800C00CEA03069E4220D183004FF02C
:1019C0000F0C0CFA03F7BC4305FA03FC4CEA0404C1
:1019D00091F803C0BCF1280F06D14FF0010C0CFAAE
:1019E00000FCC2F814C00AE091F803C0BCF1480F33
:1019F00005D14FF0010C0CFA00FCC2F810C0401CDD
:101A00000828D1D31460B1F800C0BCF1FF0F34DD59
:101A1000546800202EE000F1080C4FF0010808FA8D
:101A20000CF3B1F800C00CEA03069E4221D18300FA
:101A30004FF00F0C0CFA03F7BC4305FA03FC4CEA19
:101A4000040491F803C0BCF1280F05D100F1080C83
:101A500008FA0CF8C2F8148091F803C0BCF1480FE2
:101A600007D100F1080C4FF0010808FA0CF8C2F891
:101A70001080401C0828CED35460BDE8F0814FF69A
:101A8000FF710180022181700421C17070470246FC
:101A9000002093680B400BB1012000E0002070474C
:101AA0000146886880B2704702460020D3680B4028
:101AB0000BB1012000E0002070470146C86880B2E9
:101AC000704701617047416170470AB1016100E0F0
:101AD00041617047C16070474FF480320A438261B0
:101AE0008161826182698269704702460020434BAE
:101AF00018684FF68073184040EA021008433F4BC5
:101B0000186070473E49C8617047F0B50A46002327
:101B100000240021002500F00046B6F1004F02D15C
:101B2000364EF16901E0354E7168C0F3034583B26A
:101B300000F44016B6F5401F08D121F070612F4E19
:101B4000766826F070662D4F7E6012E000F48016F5
:101B5000B6F5801F06D1032606FA05F4A14341F02D
:101B6000706106E0460D360103FA06F6B14341F016
:101B7000706122B1460D360103FA06F6314300F0DA
:101B80000046B6F1004F02D11C4EF16101E01B4E40
:101B90007160F0BD30B500228B071C0F0F2303FAD4
:101BA00004F2164B08338C1053F824309343134C33
:101BB00008348D1044F8253023468C1053F8243017
:101BC0008C07240F00FA04F423430C4C08348D10C6
:101BD00044F8253030BD0A49DC3108607047000008
:101BE00000080140000C01400010014000140140B9
:101BF00000180140001C014000200140000001408D
:101C000000002042DF48006840F00100DD49086024
:101C100008464068DC490840DA49486008460068E0
:101C2000DA490840D74908600846006820F4802057
:101C300008600846406820F4FE0048604FF41F002A
:101C400088607047CF49096821F48031CD4A11601E
:101C50001146096821F480211160B0F5803F03D05E
:101C6000B0F5802F0ED106E0C649096841F48031F5
:101C7000C44A116007E0C349096841F4A021C14A80
:101C8000116000E000BF00BF704710B501460022A0
:101C9000002300204A11012A02D1BA4C236806E031
:101CA000022A02D1B74C236A01E0B64C636A01F004
:101CB0001F02012494401C400CB1012000E00020D0
:101CC00010BD38B5002000900024002500BF312051
:101CD000FFF7DBFF05460098401C00900098B0F528
:101CE000A06F01D0002DF2D03120FFF7CEFF08B158
:101CF000012400E00024204638BD01460020A14A0E
:101D0000106820F0F80040EAC10010607047A04958
:101D100008607047024600209A4B586820F47C10F7
:101D200042EA01031843974B586070479849086688
:101D3000704701460020934A506820F00300084392
:101D4000506070478F48406800F00C0070470146B3
:101D500000208C4A506820F0F00008435060704723
:101D600001460020874A506820F4E0600843506034
:101D7000704701460020834A506820F4605040EAD2
:101D8000C1005060704729B17E4A527A02437D4BB0
:101D90005A7204E07B4A527A82437A4B5A727047F5
:101DA0007B49D8310860704701460020754A506869
:101DB00020F440400843506070470021714A2032AF
:101DC0001170704A82F82010012802D004280AD12C
:101DD00004E001216B4A2032117005E00521694AB7
:101DE0002032117000E000BF00BF704769490860F1
:101DF00070476449096A0143624A11627047654944
:101E000044390860704730B50021002200240023C7
:101E10005C4D6D6805F00C0121B1042905D008293D
:101E200023D105E05C4D056022E05B4D05601FE0BD
:101E3000544D6D6805F47012524D6D6805F4803490
:101E4000022505EB92421CB9544D554305600BE049
:101E50004C4D6D6805F400351DB1504D554305607E
:101E600002E04D4D5543056002E04B4D056000BF5B
:101E700000BF444D6D6805F0F0010909484D6B5CE9
:101E80000568DD4045603F4D6D6805F4E061090A75
:101E9000434D6B5C4568DD4085603A4D6D6805F4E7
:101EA0006051C90A3E4D6B5C4568DD40C560354DEB
:101EB0006D6805F44041890B3A4D6B5CC568B5FB14
:101EC000F3F5056130BD29B12E4A526902432D4B0D
:101ED0005A6104E02B4A526982432A4B5A61704787
:101EE00029B1284A92690243264B9A6104E0254AA7
:101EF00092698243234B9A61704729B1214AD26982
:101F00000243204BDA6104E01E4AD26982431D4B32
:101F1000DA61704729B11B4AD2680243194BDA6073
:101F200004E0184AD2688243164BDA60704729B140
:101F3000144A12690243134B1A6104E0114A1269F0
:101F40008243104B1A61704712494039086070474C
:101F50000F49C86470470B49C87170470948406A07
:101F600040F0807007494862704701460020054AEA
:101F700092680A400AB1012000E000207047014940
:101F800088727047001002400000FFF8FFFFF6FE65
:101F9000000042428004424200127A0000093D00E3
:101FA0005E0000206E00002010B50446FB4884420D
:101FB00009D101218803FFF7ADFF00214FF48040D4
:101FC000FFF7A8FF32E0F648844209D10121480416
:101FD000FFF7ADFF00214FF40030FFF7A8FF25E029
:101FE000F048844209D101218804FFF7A0FF0021B5
:101FF0004FF48020FFF79BFF18E0EB48844209D1A3
:102000000121C804FFF793FF00214FF40020FFF7E0
:102010008EFF0BE0E548844208D101210805FFF757
:1020200086FF00214FF48010FFF781FF10BD2DE9DE
:10203000F04786B005460E460024A24600BFA146E2
:102040000027B08900B100BF2F462C8A4CF6FF70E4
:102050000440F08804432C82AC894EF6F31004400F
:10206000B08831890843718908430443AC81AC8A44
:102070004FF6FF400440B0890443AC8201A8FFF74B
:10208000C2FEC648874202D1DDF810A001E0DDF8AB
:102090000CA0A88900F4004040B10AEBCA0000EB94
:1020A0000A1031684900B0FBF1F807E00AEBCA00FA
:1020B00000EB0A1031688900B0FBF1F86420B8FB2E
:1020C000F0F004012009642101FB1089A88900F4C3
:1020D000004040B1322000EBC900B0FBF1F000F04D
:1020E0000700044308E0322000EB09106421B0FB34
:1020F000F1F000F00F0004432C8106B0BDE8F0873A
:102100004FF41651016000218180C18001810C21B2
:10211000418100218181704710B502460020108A5C
:102120004FF2FF0318400B884C8823438C882343CD
:10213000CC8823431843108210BD002101804180C8
:102140008180C180704721B1828942F4005282812E
:1021500004E082894DF6FF731A4082817047F0B522
:102160000346002400260025002040F66A17B942E5
:1021700000D100BF1846C1F3421401F01F06012729
:1021800007FA06F5012C01D10C3004E0022C01D134
:10219000103000E014301AB107682F43076002E0E6
:1021A0000768AF430760F0BD1AB1838A0B4383828F
:1021B00002E0838A8B4383827047028A4FF6F07372
:1021C0001A400282028A0A430282704782894FF2D1
:1021D000FF731A40828182890A438281704721B14C
:1021E000828942F00202828104E082894FF6FD7307
:1021F0001A4082817047028A4FF6DF731A400282CA
:10220000028A0A430282704721B1028A42F4804264
:10221000028204E0028A4BF6FF731A400282704782
:10222000C1F308028280704701468888C0F3080025
:102230007047818941F0010181817047028BD2B2E0
:102240000283028B42EA012202837047028B02F46E
:102250007F420283028B0A430283704721B1828A44
:1022600042F02002828204E0828A4FF6DF731A4035
:102270008282704721B1828A42F01002828204E099
:10228000828A4FF6EF731A408282704721B1828AA8
:1022900042F00802828204E0828A4FF6F7731A4005
:1022A0008282704721B1828942F40042828103E038
:1022B0008289C2F30E028281704721B1828A42F480
:1022C0000062828204E0828A4FF2FF731A408282A7
:1022D0007047828A4FF6FB731A408282828A0A43D1
:1022E0008282704721B1828A42F00202828204E037
:1022F000828A4FF6FD731A408282704702460020A0
:10230000B1F5007F00D100BF13880B400BB1012055
:1023100000E00020704701F40072B2F5007F00D1A8
:1023200000BFCA430280704770B5024600240023F4
:102330000025002040F66A16B14200D100BFC1F36B
:10234000421501F01F03012606FA03F3012D02D105
:102350009689334006E0022D02D1168A334001E00F
:10236000968A33400C12012606FA04F4168834408B
:1023700013B10CB1012000E0002070BD10B50022A7
:10238000002340F66A14A14200D100BF0A120124C2
:102390009440A3B2DC43048010BD0000003801402B
:1023A0000044004000480040004C00400050004005
:1023B00031490143314A1160704770B50021002353
:1023C0000F22C47804B32D4C246804F4E064C4F5EF
:1023D000E064210AC1F10403CA40447804FA03F11D
:1023E0008478144021430901254C0678A1550478CE
:1023F00004F01F050124AC4005786D11AD0005F116
:10240000E025C5F8004109E0047804F01F05012427
:10241000AC401C4D0678761145F8264070BD1A4A2E
:102420000A400243154B1B1F1A60704739B1134A0B
:10243000121D12680243114B1B1D1A6006E00F4A61
:10244000121D126882430D4B1B1D1A607047042831
:1024500008D14FF0E021096941F004014FF0E0227A
:10246000116107E04FF0E021096921F004014FF00C
:10247000E0221161704700000000FA050CED00E059
:1024800000E400E080E100E080FFFF1F10B504469B
:10249000FE48844208D10121C014FFF73BFD002112
:1024A000E014FFF737FDC4E0B4F1804F08D10121FB
:1024B0000846FFF73CFD00210120FFF738FDB8E09A
:1024C000F348844208D101210220FFF730FD0021AA
:1024D0000220FFF72CFDACE0EE48844208D1012138
:1024E0000420FFF724FD00210420FFF720FDA0E0D9
:1024F000E948844208D101210820FFF718FD002196
:102500000820FFF714FD94E0E448844208D101213B
:102510001020FFF70CFD00211020FFF708FD88E0D8
:10252000DF48844208D101212020FFF700FD00216F
:102530002020FFF7FCFC7CE0DA48844208D101212E
:102540004014FFF7E7FC00216014FFF7E3FC70E0A4
:10255000D548844209D10121C804FFF7DBFC0021E2
:102560004FF40020FFF7D6FC63E0D048844209D145
:1025700001210805FFF7CEFC00214FF48010FFF782
:10258000C9FC56E0CA48844209D101214805FFF739
:10259000C1FC00214FF40010FFF7BCFC49E0C54826
:1025A000844208D101214020FFF7C1FC00214020D6
:1025B000FFF7BDFC3DE0C048844208D101218020E6
:1025C000FFF7B5FC00218020FFF7B1FC31E0BB48EC
:1025D000844208D101218015FFF7A9FC0021A01534
:1025E000FFF7A5FC25E0B648844209D10121080483
:1025F000FFF790FC00214FF48030FFF78BFC18E0D0
:10260000B048844209D101214804FFF783FC00212E
:102610004FF40030FFF77EFC0BE0AB48844208D15A
:1026200001218804FFF776FC00214FF48020FFF79A
:1026300071FC10BD00220288944B98420ED0994B39
:1026400098420BD0B0F1804F08D0914B984205D002
:10265000904B984202D0904B984204D14FF68F7322
:102660001A404B881A438D4B984207D08C4B9842A6
:1026700004D04FF6FF431A40CB881A4302808B8860
:1026800083850B880385814B98420BD0854B9842FC
:1026900008D08B4B984205D08A4B984202D08A4B87
:1026A000984201D10B7A038601238382704770B56B
:1026B000002400220023058C4FF6FE763540058469
:1026C000028C8388048B4FF68F752C40B51E2C40EE
:1026D0000D882C43751E2A400D892A434D882A43B4
:1026E0006A4DA8420BD06F4DA84208D0744DA84245
:1026F00005D0744DA84202D0734DA84213D14FF6B5
:10270000F7752A404D892A434FF6FB752A408D887C
:102710002A434FF6FF652B404FF6FF552B408D891E
:102720002B43CD892B4383800483CD888586028407
:1027300070BD70B5002400220023058C4FF6EF76A3
:1027400035400584028C8388048B48F6FF752C4045
:102750004FF6FF452C400D884FF6FF7606EA05251B
:102760002C434FF6DF752A400D8906EA05152A43EA
:102770004D8806EA05152A43444DA84202D0494D2A
:10278000A8421DD14FF67F752A404D894FF6FF763E
:1027900006EA05152A434FF6BF752A408D8806EADA
:1027A00005152A434FF6FF352B404FF2FF752B409E
:1027B0008D8906EA85052B43CD8906EA85052B43DD
:1027C00083800483CD880587028470BD70B50024A2
:1027D00000220023058C4FF6FF6635400584028CED
:1027E0008388848B4FF68F752C404FF6FC752C40F8
:1027F0000D882C434FF6FF552A400D894FF6FF7682
:1028000006EA05252A434D8806EA05252A431F4D79
:10281000A84202D0234DA8421DD14FF2FF752A4095
:102820004D894FF6FF7606EA05252A434FF6FF3518
:102830002A408D8806EA05252A434EF6FF752B406F
:102840004DF6FF752B408D8906EA05152B43CD8982
:1028500006EA05152B4383808483CD88858702840F
:1028600070BD70B5002200230024058C4EF6FF7663
:1028700035400584038C8488828B48F6FF752A4096
:102880004FF6FF452A400D8820E00000002C014053
:102890000004004000080040000C00400010004010
:1028A0000014004000340140004C01400050014041
:1028B0000054014000180040001C0040002000406F
:1028C0000040014000440140004801404FF6FF76BF
:1028D00006EA05252A434DF6FF752B400D8906EAC9
:1028E00005352B434D8806EA05352B43FA4DA842A2
:1028F00002D0FA4DA84208D14BF6FF752C408D89C5
:102900004FF6FF7606EA85152C4384808283CD88B6
:10291000A0F84050038470BD828B4FF2FF331A4001
:102920008283828B4FF6FF7303EA01231A4382836B
:102930007047F0B50C461546002200210026078C92
:102940004EF6FF7C07EA0C070784828B018C4FF65A
:10295000FF7707EA043640F6FF473A404FF6FF7725
:1029600007EA05273A434FF6FF7707EA03373A436A
:10297000D94FB8420ED0D94FB8420BD0B0F1804FEA
:1029800008D0D74FB84205D0D64FB84202D0D64F64
:10299000B84206D14DF6FF77394046F480573943A7
:1029A00005E047F6FF57394044F4805739438283A6
:1029B0000184F0BD828B4FF6F3731A408283828BC1
:1029C0000A4382837047F0B50C4615460022002169
:1029D0000026078C4FF6FF6C07EA0C070784828BF2
:1029E000018C4FF6FF7707EA04264FF60C773A4042
:1029F0004FF6FF7707EA03172F433A43B64FB84223
:102A00000ED0B64FB8420BD0B0F1804F08D0B44FC3
:102A1000B84205D0B34FB84202D0B34FB84206D146
:102A20004FF6FF57394046F48077394305E04FF2BF
:102A3000FF57394044F48077394382830184F0BDE5
:102A4000028B4FF2FF331A400283028B4FF6FF7363
:102A500003EA01231A4302837047F0B50C4615467A
:102A6000002200210026078C4FF6EF7C07EA0C07B6
:102A70000784028B018C4FF6FF7707EA041640F6B5
:102A8000FF473A404FF6FF7707EA03373A434FF6DE
:102A9000FF7707EA05273A438F4FB8420ED08F4F92
:102AA000B8420BD0B0F1804F08D08D4FB84205D05E
:102AB0008C4FB84202D08C4FB84206D14FF6DF7728
:102AC000394046F01007394305E04FF65F7739404B
:102AD00044F01007394302830184F0BD028B4FF6A6
:102AE000F3731A400283028B0A4302837047F0B5E6
:102AF0000C46154600220021068C4FF6FE773E401C
:102B00000684028B018C4FF60C7632407E1C06EA5E
:102B100003162E433243704EB0420ED06F4EB04279
:102B20000BD0B0F1804F08D06D4EB04205D06D4E45
:102B3000B04202D06C4EB04206D14FF6FD76314025
:102B400044F00106314305E04FF6F576314044F09C
:102B50000106314302830184F0BD70B505460C4681
:102B60005D4885420ED05D4885420BD0B5F1804F5F
:102B700008D05B48854205D05A48854202D05A4861
:102B8000854200D100E000BF208850B92389A28887
:102B900061882846FFF7ABFFE1882846FFF79EFFD4
:102BA00025E0208804280AD12389A2886188284644
:102BB000FFF753FFE1882846FFF742FF17E0208820
:102BC00008280AD12389A28861882846FFF7FBFEDE
:102BD000E1882846FFF7EEFE09E02389A288618894
:102BE0002846FFF7A6FEE1882846FFF795FE70BD50
:102BF0002DE9F04105460C4600260127608808B9FA
:102C0000022600E00026A088012801D1022700E06A
:102C100001272088A0B92389A28861882846FFF768
:102C200066FFE1882846FFF759FF23893A46314677
:102C30002846FFF712FFE1882846FFF701FF13E05F
:102C40002389A28861882846FFF707FFE188284684
:102C5000FFF7F6FE23893A4631462846FFF747FF3D
:102C6000E1882846FFF73AFFBDE8F0810A884B88E3
:102C70001A438B881A43CB881A430B891A434B8912
:102C80001A438B891A43A0F8442070474FF6FF710E
:102C9000818000210180C180418001727047002144
:102CA000018041808180C180018141818181C18118
:102CB0007047002101804180012181800021C18075
:102CC000018170470021018041808180C1800181A4
:102CD0004181818170470000002C01400034014097
:102CE0000004004000080040000C004021B10288B0
:102CF00042F00102028004E002884FF6FE731A409F
:102D00000280704731B1B0F8442042F40042A0F88C
:102D1000442005E0B0F84420C2F30E02A0F844209D
:102D200070471AB183890B43838102E083898B4307
:102D3000838170478182704741EA0203A0F84830DE
:102D400070471AB183890B43838102E083898B43E7
:102D50008381704701894FF6F872114001817047F5
:102D60000A46002101894FF68F73194011430181F2
:102D7000704730B504460D4629462046FFF7F0FF60
:102D8000208940F00700208130BD2DE9F041044644
:102D90000D4616461F46602D06D13B4601223146A0
:102DA0002046FFF75AFE05E03B4601223146204609
:102DB000FFF79DFE29462046FFF7D2FF208940F00D
:102DC00007002081BDE8F08130B50C460021018963
:102DD000C9B24FF6FF7505EA03251543254329437C
:102DE000018130BD2DE9F04105460E461746984653
:102DF000002443463A4631462846FFF7E5FF2C8932
:102E00004FF6F870044044F007044FF68F7004400A
:102E100044F070042C81BDE8F081F0B504460D4605
:102E200016461F463B46324629462046FFF7CCFF52
:102E3000208940F480402081F0BD01858282704766
:102E40000A46002101884FF68F7319401143018013
:102E50007047F0B50C4615461E460021002200239F
:102E60000189028B038C4FF6F877394021434FF6E6
:102E7000FC473A4040F201173A434FF6DD773B40BA
:102E80004FF6FF7707EA06172F433B430181028382
:102E90000384F0BD0A460021018B4FF68F73194061
:102EA0001143018370470A460021018B48F6FF73E6
:102EB00019404FF6FF7303EA022319430183704759
:102EC0000A460021818B4FF68F731940114381838D
:102ED00070470A460021818B48F6FF7319404FF670
:102EE000FF7303EA022319438183704721B10288EB
:102EF00042F08002028004E002884FF67F731A409D
:102F00000280704721B1828842F00402828004E08E
:102F100082884FF6FB731A408280704721B1828805
:102F200042F00802828004E082884FF6F7731A406C
:102F30008280704721B1828842F00102828004E0E1
:102F400082884FF6FE731A40828070470A4600213D
:102F5000018B4FF6F77319401143018370470A46FE
:102F60000021018B4FF2FF7319404FF6FF7303EA04
:102F700002231943018370470A460021818B4FF6D3
:102F8000F77319401143818370470A460021818BF2
:102F90004FF2FF7319404FF6FF7303EA0223194300
:102FA000818370470A460021018B4FF6FB7319405D
:102FB0001143018370470A460021018B4FF6FF330E
:102FC00019404FF6FF7303EA022319430183704748
:102FD0000A460021818B4FF6FB7319401143818310
:102FE00070470A460021818B4FF6FF3319404FF698
:102FF000FF7303EA02231943818370470A460021C5
:10300000018B4FF67F7319401143018370470A46C5
:103010000021018BC1F30E014FF6FF7303EA022377
:103020001943018370470A460021818B4FF67F7355
:1030300019401143818370470A460021818BC1F3F7
:103040000E014FF6FF7303EA022319438183704791
:103050000A460021018C4FF6FD731940114301848B
:1030600070470A460021018C4FF6F773194011434F
:10307000018470470A460021018C4FF6DF73194026
:103080004FF6FF7303EA02131943018470470A469F
:103090000021018C4FF67F7319404FF6FF7303EA4E
:1030A00002131943018470470A460021018C4FF630
:1030B000FF5319404FF6FF7303EA022319430184BB
:1030C00070470A460021018C4FF2FF7319404FF6FA
:1030D000FF7303EA02231943018470470A46002163
:1030E000018C4DF6FF7319404FF6FF7303EA02336C
:1030F00019430184704730B5002301248C40A3B2EA
:10310000048C9C430484048C02FA01F5ADB22C4378
:10311000048430BD30B5002304248C40A3B2048C59
:103120009C430484048C02FA01F5ADB22C43048460
:1031300030BD70B503460020002418461830012524
:103140008D40ACB21D8CA5431D8409B1082909D15D
:1031500000EB6100056825F0700505600568154302
:1031600005600EE00D1FC5F34E052844056825F4E3
:10317000E045056005684FF6FF7606EA022635430E
:10318000056070BD21B1028842F00202028004E0B5
:1031900002884FF6FD731A400280704721B1028801
:1031A00042F00402028004E002884FF6FB731A40EA
:1031B0000280704721B1828842F08002828004E060
:1031C00082884FF67F731A408280704702884FF6DC
:1031D000F7731A40028002880A430280704782888F
:1031E0004FF68F731A40828082880A43828070472C
:1031F00002894FF6F8731A40028102890A4302815C
:10320000704702894FF67F731A40028102890A4390
:10321000028170478184704781857047818670473D
:103220000187704781877047A0F840107047028877
:103230004FF6FF431A40028002880A43028070471B
:103240000146888E70470146088F70470146888F77
:1032500070470146B1F8400070470146888C7047BE
:103260000146088D704702460020138A0B400BB1BF
:10327000012000E000207047CA430282704730B549
:103280000246002000230024158A05EA01039589DF
:1032900005EA010413B10CB1012000E0002030BDAB
:1032A000CA43028270470000002044490860091D9B
:1032B0000860091D0860091D086041483F49143134
:1032C0000860704700213D498279002A3AD00A46B9
:1032D000126803689A430B461A600A1D1268036855
:1032E0009A430B1D1A60027911440A6803681A4355
:1032F0000A60324A0832126803689A432F4B083337
:103300001A601A1D126803689A432C4B0C331A601A
:103310004279102A0ED11A1F126803681A43274BEC
:1033200008331A601A1D126803681A43234B0C33C2
:103330001A600DE02149427911440A6803681A4372
:103340000A6005E0027911440A6803689A430A603A
:1033500070470021016001710C21417100218171D0
:1033600070471649103109680143144A1032116040
:10337000704701460020114A143212680A400AB10F
:10338000012000E0002070470C49143108607047AC
:10339000014600200022094B1B6803EA0102074B8B
:1033A00014331B680B4013B10AB1012000E0002068
:1033B0007047024914310860704700000004014062
:1033C000FFFF0F0010B50446FA48844208D10121DE
:1033D0004015FEF79FFD00216015FEF79BFD17E0ED
:1033E000F548844208D101210015FEF793FD002124
:1033F0002015FEF78FFD0BE0F048844208D1012133
:10340000C803FEF787FD00214FF40040FEF782FD60
:1034100010BD30B50246002000235068E84C204023
:103420000D790C6844EA0524204350609068E54C0F
:103430002040D1E902542C434D7944EA450420430D
:103440009060D06A20F470000C7C641EE4B22343C8
:1034500040EA0350D06230BD00210160017141712A
:103460008160C16001210174704721B1826842F01E
:103470000102826003E0826822F0010282607047EC
:1034800021B1826842F48072826003E0826822F493
:1034900080728260704710B50023CBB21AB14468C5
:1034A0001C43446002E044689C43446010BD816852
:1034B00041F0080181607047014600208A6802F0EF
:1034C00008020AB1012000E000207047816841F045
:1034D000040181607047014600208A6802F00402FE
:1034E0000AB1012000E00020704721B1826842F457
:1034F000A002826003E0826822F4A002826070472A
:10350000014600208A6802F480020AB1012000E02E
:103510000020704710B50A4600210023416821F4BD
:103520006041531E41EA4331416010BD21B1426800
:1035300042F40062426003E0426822F400624260AA
:103540007047F0B504460D4600200021092D11DD1D
:10355000E068A5F10A0606EB4607072606FA07F11A
:103560008843A5F10A0606EB460603FA06F108436E
:10357000E0600CE0206905EB4507072606FA07F135
:10358000884305EB450603FA06F108432061072A44
:103590000FDA606B561E06EB86071F2606FA07F148
:1035A0008843561E06EB860605FA06F1084360635B
:1035B00022E00D2A0FDA206BD61F06EB86071F26A6
:1035C00006FA07F18843D61F06EB860605FA06F1D0
:1035D0000843206310E0E06AA2F10D0606EB8607BF
:1035E0001F2606FA07F18843A2F10D0606EB8606B0
:1035F00005FA06F10843E062F0BD21B1826842F4A9
:103600008012826003E0826822F480128260704738
:103610000146C86C80B2704766484C3000687047FD
:1036200021B1426842F48062426003E0426822F4C1
:1036300080624260704721B1426842F48052426029
:1036400003E0426822F48052426070470A4600213B
:10365000816821F4E04111438160704721B18268A3
:1036600042F40042826003E0826822F400428260F9
:10367000704721B1826842F40212826003E08268DE
:1036800022F4021282607047014600208A6802F428
:1036900000120AB1012000E000207047F0B5044696
:1036A0001546002000220026092911DDE068A1F15D
:1036B0000A0707EB470C072707FA0CF29043A1F122
:1036C0000A0707EB470703FA07F21043E0600CE034
:1036D000206901EB410C072707FA0CF2904301EB3C
:1036E000410703FA07F210432061A06BC0F30156B3
:1036F000EF1C06F1010CA7EB0C0707EB870C1F274B
:1037000007FA0CF29043EF1C06F1010CA7EB0C0733
:1037100007EB870701FA07F21043A063F0BD10B56D
:103720000A4600210023816B21F44011531E41EA17
:103730000351816310BD08B5002300930090009BE6
:103740000B440093009B1A6008BD08B50246002098
:103750000090009201F12800009B1844009000980E
:10376000006880B208BD0A4600214168164B194026
:103770001143416070474162826270470A460021EE
:10378000416821F01F0111434160704740B1094970
:103790000831096841F40001064A0832116007E067
:1037A00004490831096821F40001024A0832116015
:1037B000704700000024014000280140003C014007
:1037C000FFFEF0FFFDF7F1FFFFFD3FFF0246002087
:1037D00013680B400BB1012000E000207047CA4382
:1037E0000260704770B502460020002300240B12CF
:1037F0005568CEB205EA060415681D4015B10CB136
:10380000012000E0002070BD00220A12D3430360B3
:10381000704700001CB50C46064B7B44694600907F
:10382000204600F030FA04460020694600F03EFAD7
:1038300020461CBD8F0400007CB51D4616460C00BA
:10384000009001D02044401E074B7B442A46694625
:103850000190304600F017FA05461CB10020694679
:1038600000F024FA28467CBD690400000FB41CB5A2
:10387000084B06AA7B4469460090059800F003FABD
:1038800004460020694600F011FA20461CBC5DF891
:1038900014FB00003504000070B50446856900681B
:1038A000C10601D5302600E02026C00707D070BD34
:1038B000D4E9012130469047206A401C20626D1EE9
:1038C000F6D570BD70B5044685690078C00707D18C
:1038D00070BDD4E9012120209047206A401C20625D
:1038E0006D1EF6D570BD70B50C460546012A05D093
:1038F0002878800600D5EA69002302E0012305E06C
:103900005B1C934202D2E05C0028F9D1A869E6185A
:10391000C01AA861286A184428622846FFF7BCFF2D
:1039200004E0D5E9012114F8010B9047B442F8D323
:103930002846FFF7C7FF70BD2DE9F0410646002479
:1039400010687529314616A510D000F017F9002827
:1039500002DA404213A507E031688A0701D512A5B3
:1039600002E0490704D511A5012401E000F00FF998
:1039700000210A2206F1240709E0B0FBF2FCB0FBAB
:10398000F2F302FB1C00303078541846491C002822
:10399000F3D123462A463046BDE8F04100F000B995
:1039A000000000002D0000002B000000200000009F
:1039B0002DE9F05F894604464FF0000ADFF874B144
:1039C000FB44C0F820A02046E1688847002874D056
:1039D000252806D0D4E901219047206A401C2062A6
:1039E000F1E700265F462046E16888472028054623
:1039F00007DB312D05D2781910F8200C08B10643E9
:103A0000F1E7B00701D526F00406C4F81CA0002792
:103A1000C4F818A02A2D09D0284601F093FB38B32A
:103A200004EB8708303DC8F8185019E059F8041B1A
:103A3000204604EB87029161E1688847012F054623
:103A400018D1E069002820DA26F020061DE0D8F819
:103A5000180000EB800005EB40003038C8F8180073
:103A60002046E1688847054601F06CFB0028EED14E
:103A7000012F0AD02E2D08D12046E16888477F1CEF
:103A80000546022F46F02006C4DBA069002803DAB1
:103A9000404246F00106A061F00701D026F0100672
:103AA0006C2D0BD0682D09D04C2D39D06A2D35D016
:103AB000742D35D07A2D33D016E038E0E1682F46EA
:103AC00020468847B842054609D16C2F26D04FF4CE
:103AD0008060E168064320468847054604E06C2F75
:103AE0001AD04FF4807006430DB3A5F14100192898
:103AF00002D8203546F400664A462946204626600C
:103B00004E46FCF74FFB80B101280BD0F61D26F086
:103B1000070000F1080956E74020E4E78020D8E7D5
:103B20000020D6E706F104094DE7284652E7206A4F
:103B3000BDE8F09F723A000010B5431C02E010F897
:103B4000011B71B18107FAD14FF0013202C88C1A02
:103B50008C4314EAC211F9D0C01A0A0603D0C01E61
:103B600010BDC01A10BD0A0401D0801E10BD09028C
:103B7000FCD0401E10BD70477047704709684A0569
:103B800001D540B27047C905FCD500B2704709683D
:103B90004A0501D5C0B27047C905FCD580B270474F
:103BA0002DE9F0470D4699469246044600F1240857
:103BB0000168880604D5E06921F01001216000E069
:103BC0000120A84201DD471B00E00027A1697A1906
:103BD00002EB0900081AA0612078C00602D4204632
:103BE000FFF75AFE002608E0D4E901211AF8060082
:103BF0009047206A401C761C20624E45F4DB2078FA
:103C0000C0060AD52046FFF747FE06E0D4E90121A9
:103C100030209047206A401C2062381EA7F101071F
:103C2000F4DC07E0D4E9012118F805009047206A88
:103C3000401C2062281EA5F10105F3DC2046FFF799
:103C400041FE2078000602D50220BDE8F087012061
:103C5000FBE711680268006A530501D508700AE0A5
:103C6000D30501D5088006E0130603D5C217C1E9C4
:103C7000000200E0086001207047000001694A1C52
:103C800002610878704700B58FB0CDE9013100219D
:103C9000059105497944CDE9031011466846FFF7BF
:103CA00087FE0FB000BD0000E5FFFFFF0A6802F8C5
:103CB000010B0A607047D1E900239A4202D2531CDB
:103CC0000B601070704710B5436913B1AFF30080FB
:103CD00001E0FFF708FE012010BD127800F1240179
:103CE0000A7000224A700122EDE711684FF0FF329E
:103CF000E9E700002DE9FF5F15468A460446DFF834
:103D0000AC80F8440027D8E900103E46CDE9001009
:103D100010E03AF816106A4602A800F0EFFC411CC9
:103D200007D02178890603D5E269391891420DD868
:103D30000744761C2078800602D5E069B84205DD8C
:103D4000AE42E6DB3AF816000028E2D1A069C01BBB
:103D5000A0612046FFF7A0FDD8E90010CDE90010D2
:103D6000002017E03AF818106A4602A800F0C6FCD6
:103D7000B0F1FF3F81460BD000250DF1080B05E0A7
:103D8000D4E901211BF8050090476D1C4D45F7D380
:103D900008F10100B0428046E4DB206A384420622A
:103DA0002046FFF78FFDBDE8FF9F0000423700006F
:103DB0002DE9F0418046D21D22F007020025D2E90C
:103DC0000002F52915A614D0011E72F1000106DAD1
:103DD0000023D0EB030063EB020211A608E0D8F841
:103DE00000108B0701D50FA602E0490701D50EA6EA
:103DF00001251146002408F1240704E000F098F89A
:103E000030323A55641C50EA0102F7D12B46324653
:103E100021464046BDE8F041FFF7C2BE0000000069
:103E20002D0000002B0000002000000030B4002115
:103E300000F1240408E002F00705D208303542EA18
:103E40004372DB086554491C52EA0305F3D1046848
:103E5000002310A2250708D504F020040C4304D049
:103E6000C46901230CA2641EC46130BCFFF798BE74
:103E700010B5044621461068FFF789FE0246204629
:103E8000BDE810400023D1E7D21D22F00701D1E99F
:103E90000023CBE70000000030000000F0B40D4626
:103EA0000188090502D5214C7C4402E01F4C7C446A
:103EB0000E34002100F1240608E002F00F07120979
:103EC000E75D42EA03721B097754491C52EA030773
:103ED000F3D102780023120704D5702D06D009B162
:103EE000022311342246F0BCFFF75ABE01231034DE
:103EF000F8E770B504460D4621461068FFF747FE07
:103F0000024629462046BDE870400023C6E7D21D80
:103F100022F00703D3E90023C0E70368126843F0E7
:103F2000200303600823C3610023B7E7A435000022
:103F300030B5B0F10A024FEA900E71F100034EEA7B
:103F4000817EB0EB0E0061EB91014FEA101E4EEA4C
:103F5000017E10EB0E0041EB11114FEA102E4EEADC
:103F6000016E10EB0E0041EB11214FEA104E4EEAAC
:103F7000014E10EB0E0041EB1141401841F10001E0
:103F80004FEAD00040EA41704FEAD10110EB8005C2
:103F90004FEA810444EA907444EB01046D1944EB48
:103FA0000404521BA3414FF0000348BF0A3200D55E
:103FB00030BD401C41F1000130BD70472DE9FF4F7D
:103FC0000C461E464FF0FF378BB0D2E90001DDF8FA
:103FD00060800A908A46C1F30A5505B93D46002122
:103FE00008464FF00000BAF1000F00F4400005DA77
:103FF00000EB80004FF4400101EA50004FEA905975
:10400000B9F1010F00DDB9460A9850EA4A000ED016
:1040100044F61050A5F2FF3545432F14B8F1000FB8
:104020001ED07542291E1EDDC9F100021CE0B8F148
:10403000010F4FF0000001D0302103E0F24305E012
:104040002154401CB042FBDB3046002200212154A9
:104050000B99C1F80880C1E900200FB0BDE8F08FCE
:10406000BD1B6D1CDEE74A4600DA694206A800F077
:10407000D7FB06AB93E8070003AB83E80700504685
:104080000A9900F090FC8DE80700A0F500501F3859
:1040900000900398002D09DD42F21F014A460844B2
:1040A00003A90390684600F0EFFE08E0A0F5005079
:1040B0004A461F3803A90390684600F0F9FE8DE8D0
:1040C00007000004000C03D04FF0FF30410800E06F
:1040D0001046B8F1000F03D00022009215461EE0F2
:1040E000751E05D4FFF724FF303262556D1EF9D5D9
:1040F000B3460122084302D000227F1C04E020784E
:10410000302801D100227F1E002A099786D01DE0A9
:10411000112D07DAFFF70CFF303262556D1C50EAA3
:104120000102F5D1084302D00098C8B10EE0002189
:10413000681E05E0235C625C63542254401E491CE7
:104140008142F7DBAB46A81B401E0990002004F813
:104150000B000B98099AC0F80880C0E9002B7CE797
:1041600011264FF0000859E72DE9F04F8846044624
:10417000D21D22F0070191B0D1E90001CDE90A0179
:1041800000F0CCFF02460B98C00F01D02D2007E0B5
:104190002068810701D52B2002E0202101EAC00020
:1041A000032A099001D0072A05DB03464146204631
:1041B00000F0F6FA0BE12078800601D5E06900E016
:1041C0000620B8F1650F814606D0B8F1660F18D009
:1041D000B8F1670F70D131E00020B9F1110F0090F4
:1041E00001DB112301E009F101030AAA01A90CA8CE
:1041F000FFF7E4FEDDE90C70002609F101058346B6
:1042000047E001204B4600904FF000470AAA01A961
:104210000CA8FFF7D3FEDDE90DB00C995D46002632
:1042200010B909F101000D18B9EB050003D4C0F174
:10423000FF3609F10105A5EB09002BE0B9F1010FEB
:1042400001DA4FF001090020B9F1110F0090484642
:1042500001DD112300E003460AAA01A90CA8FFF71B
:10426000ADFEDDE90C704D46002683462078000740
:104270000AD4AB4500DA5D4601A8012D04DD4119E1
:1042800011F8011C302907D04F4502DA17F1040F4D
:1042900004DA012082460FE06D1EEEE7002F02DCFB
:1042A000ED1B3E4403E0781CA84200DD7D1CB81BDA
:1042B00000F1010A4FF000472078000703D4AA4517
:1042C00001DB4FF0FF3A0021B7F1004F0DF1430839
:1042D0008DF8431024D002202B23002F01DA7F42D7
:1042E0002D230A21021EA0F1010000DC5FB197FB23
:1042F000F1FC97FBF1F201FB1C7C17460CF1300C32
:1043000008F801CDEEE7A8F1010003702188090546
:1043100001D5452100E06521A0F1010800F8011C4C
:1043200009980FA9A1EB0807FF1D00B10120411951
:1043300001EBEA70A1693844081A401EA061207898
:10434000C00602D42046FFF7A7FA099828B1D4E99D
:1043500001219047206A401C20622078C00622D5A7
:104360002046FFF799FA1EE0002E04DBB34502DD7C
:1043700001A8805D00E03020D4E901219047206A47
:10438000401C2062761CAAF101005FEA000A0AD1F3
:1043900000F002FAC0680168405CD4E9012190474E
:1043A000206A401C2062281EA5F10105DCDC07E024
:1043B000D4E9012118F8010B9047206A401C2062C3
:1043C000381EA7F10107F3DC2046FFF77BFA032034
:1043D00011B043E62DE9F04F04460D46D21D22F000
:1043E000070089B0D0E9009248461746394600F0E8
:1043F00095FE0246F80F01D02D2307E020688107C3
:1044000001D52B2302E0202101EAC0038DF82030E2
:104410000BB1012000E00020032A824601D0072AC8
:1044200004DB2946204600F0BBF93DE120788006F8
:1044300001D40D2500E0E569C7F30A560D2D49DAD0
:1044400000214FEA175B08464FF00000002F00F4F0
:10445000400007DA00EB80004FF4400100EBD07021
:1044600001EA60008115012901DD4FF0FF310022D2
:104470004FEA850CBCF1180F06D31346ACF11800B7
:104480004FF08052C24003E04FF4801323FA0CF344
:104490000CF10C0CBCF1200F04D3ACF1200C09FA88
:1044A0000CF001E007FA0CF000294FF0004801DDA4
:1044B00018B90FE00ED140450CD319EB02095F414A
:1044C00021B9404502D19F4329EA0209BBEB175F9E
:1044D00000D0761C2088000502D57B48784402E095
:1044E00079487844193808AA302302F80A30037C46
:1044F0000AF10101002E0AF1020A53546A4602DC55
:104500004FF0300101E04FF031014FF001088DF81C
:10451000001002D0A6F2FF3603E059EA470100D0AE
:104520006A4E002D02DC2178090704D54FF00208FD
:104530002E218DF80110C44600210BE0C7F3034380
:104540003F01C35C491C6D1E02F80830052908F1C3
:10455000010801DA002DF1DC00210CE000EB1973F9
:10456000491C1B786D1E082902F808304FEA09190A
:1045700008F1010801DA002DF0DC2178890602D566
:1045800014E0A8F10108E04505DD02EB080111F88F
:10459000011C3029F5D0B8F1000F07DD02EB08014E
:1045A00011F8011C2E2901D1A8F10108002D05DD0B
:1045B0003E2102F808106D1E08F10108407C002E13
:1045C00002F8080008F1010804DA2D20764202F80A
:1045D000080002E02B2002F808000A214FF47A704C
:1045E000864208F101080BDB96FBF0F3303302F84A
:1045F000083096FBF0F308F1010800FB136601E0B8
:10460000642E0CDB642096FBF0F3303302F80830A4
:1046100096FBF0F308F1010800FB136601E00A2E97
:1046200006DB96FBF1F0303002F8080008F10108D3
:1046300096FBF1F001FB1060303002F80800A16930
:1046400008F1010808EB050202EB0A00081AA06154
:104650002078C00602D42046FFF71EF9216A08AE72
:1046600001EB0A00206204E0D4E9012116F8010BF5
:104670009047BAF1010AF7D22078C00602D5204649
:10468000FFF70AF96E4609E016F8010B3E280FD035
:10469000D4E901219047206A401C2062B8F101084A
:1046A000F2D22046FFF70EF909B00320BDE8F08FE3
:1046B000206A2844206203E0D4E901213020904799
:1046C0006D1EEBD3F8E70000AB2F000002FCFFFFEC
:1046D00010B5436913B1AFF3008001E0FFF70AFBA7
:1046E000012010BD128800F1240182840022C284BE
:1046F0000122EDE711684FF0FF32E9E770B5164689
:104700000C46054600F040F8036893F801010128C3
:1047100006D0FF2C0FD8185D68B101202C7070BD39
:10472000D3F807013246214603F207130344284613
:10473000BDE8704018474FF0FF3070BD754600F07F
:10474000E7F8AE4605006946534620F00700854667
:1047500018B020B5FDF796F8BDE820404FF00006F0
:104760004FF000074FF000084FF0000B21F0070159
:10477000AC46ACE8C009ACE8C009ACE8C009ACE89C
:10478000C0098D467047000010B500F005F8001D07
:1047900010BD00BFED09000000487047BC070020B5
:1047A0002DE9F0411F46044603260168072A01F45B
:1047B000006004DB08B116A505E016A503E008B10A
:1047C00015A500E015A521F010002060A069C01E0D
:1047D000A0610FB1401EA0612046FFF75DF84FB108
:1047E000D4E9012138469047206A401C2062C01C51
:1047F000206206E0206AFAE7D4E9012115F8010BEE
:104800009047761EF8D22046FFF75CF8BDE8F081AD
:104810004E414E006E616E00494E4600696E660064
:104820002DE9F047814616468AB0334878440DC8D2
:104830008DE80D0030487844801C03AC0DC884E836
:104840000D0041F69B300844372190FBF1F290FBBC
:10485000F1F5A5F1800501FB12041B3C02D5644271
:10486000012000E00020DFF890A080460027FA44F5
:10487000AAF1BE0A0DE0E00709D03246684607EB10
:1048800047010AEB810100F013FB8DE8070064107B
:104890007F1C002CEFD1184F7F44AC3F18E0E80795
:1048A00014D007EB04100DF1180A90E80E008AE806
:1048B0000E00C068F04201D198190890324606A94E
:1048C00003A800F0F5FA03AB83E807006D10641C41
:1048D000002DE4D132466946B8F1000F03A802D09A
:1048E00000F0D2FA01E000F0E3FAC9E90001C9F8EA
:1048F00008200AB0BDE8F087EC2C000010B5044693
:10490000AFF300802046BDE81040FBF7AEBC0000CE
:10491000004870479C0700204FF0013C50F8042BE2
:1049200051F8043B9A4221D1A2EB0C03934313EAC2
:10493000CC1317D150F8042B51F8043B9A4215D1EF
:10494000A2EB0C03934313EACC130BD150F8042BC6
:1049500051F8043B9A4209D1A2EB0C03934313EAAA
:10496000CC13DBD04FF00000704700BFD01A01BA63
:10497000B1FA81F101F0180122FA01F0CB40C1F146
:104980002001DBB2C0B2C01A2CFA01F3D11A914354
:1049900011EAC311E6D1704701491820ABBEFEE70A
:1049A0002600020070475FEA400C08BF91F0000F3C
:1049B0004FEA8C234FEAC12243EA51514FEA1C507F
:1049C00018BF00F5F0404FEA300018BF41F0004139
:1049D0005FEA6C5C00F02980BCF1FF3F08BF40F04B
:1049E00080407047130C06BF12044FF0100C4FF0BC
:1049F000000C130E04BF12020CF1080C130F04BFBD
:104A000012010CF1040C930F04BF92000CF1020C84
:104A1000D30F04BF52000CF1010C11464FF00002FD
:104A2000A0F11F00A0EB0C00704711F0004F08BF71
:104A3000704731F000413FF4D5AF0B0C06BF0904BD
:104A40004FF0100C4FF0000C0B0E04BF09020CF1DC
:104A5000080C0B0F04BF09010CF1040C8B0F04BFF1
:104A600089000CF1020CCB0F04BF49000CF1010CC2
:104A7000CCF12003A0EB0C0022FA03F302FA0CF2B3
:104A800041EA030100F10100704720F07F4C80EA09
:104A9000030023F07F47ACEB070303F57C5300F0E2
:104AA000004003F1FF032DE980494FEA154B09B49B
:104AB0004FEA144325EA0B4E24EA03480FF204267A
:104AC00006EB132749083E785FEA320203FB0667CC
:104AD000C7F5000707FB06F64FEA54374FEAD646FC
:104AE00006F1020607FB066CCCF1005C4FEA1C479E
:104AF0002CEA074C07FB06F40CFB06F504EB154605
:104B00004FEA961634BF00204FF000404FEAD137ED
:104B100006FB07FC4FEA1C4C0CFB0BF7D21B03FBFC
:104B20000CF761EB07010CFB0EF7B0EB074072EBE3
:104B300017420CFB08F734BFA2EB0742B2EB074267
:104B400061EB17414FEA0C444FEA910706FB07FC63
:104B50004FEA1C4C0CFB0BF7B0EBC74072EB573223
:104B600003FB0CF734BFA2EBC742B2EBC74261EBC9
:104B700057310CFB0EF7B0EBC70072EB57720CFB12
:104B800008F734BFA2EBC702B2EBC70261EB577163
:104B9000039F4FEA816141EA921104EBCC044FEA92
:104BA000D1374FEA826206FB07FC42EA90124FEAD5
:104BB00080604FEA1C4C0CFB0BF7D21B03FB0CF77D
:104BC00061EB07010CFB0EF7B0EB074072EB1742ED
:104BD0000CFB08F734BFA2EB0742B2EB074261EBD4
:104BE00017414FEA8C554FEA910704EB9C2406FBD2
:104BF00007FC4FEA1C4C0CFB0BF7B0EBC74072EB09
:104C0000573203FB0CF734BFA2EBC742B2EBC742EB
:104C100061EB57310CFB0EF7B0EBC70072EB57722C
:104C20000CFB08F734BFA2EBC702B2EBC70261EB83
:104C3000577115EB4C254FEA816141EA92114FEA19
:104C400082624FEAD13742EA901206FB07FC44F138
:104C500000044FEA80604FEA1C4C0CFB0BF7D21BA0
:104C600003FB0CF761EB07010CFB0EF7B0EB074001
:104C700072EB17420CFB08F734BFA2EB0742B2EB12
:104C8000074261EB174115EB1C154FEA813141EAF0
:104C900092414FEA823242EA90424FEA80304FEA34
:104CA0000C7644F1000448EA03434EEA0B484FF007
:104CB000000EB2EB080C71EB030724BF62463946C5
:104CC0004EEB0E0E4FF0000B0018524149414BEBDA
:104CD0000B0BB2EB080C71EB03077BF1000B24BF4D
:104CE000624639464EEB0E0E4FF0000B0018524153
:104CF00049414BEB0B0BB2EB080C71EB03077BF15B
:104D0000000B24BF624639464EEB0E0E51EA0207F5
:104D100018BF46F0010616EB0E7655F1000254F16D
:104D2000000103D5BDE88901BDE80088BDE889011F
:104D3000BDE80048B619524141EB0101A3F101035E
:104D4000704780807F7E7D7C7B7A797877767675F8
:104D50007473727171706F6E6E6D6C6C6B6A6A6970
:104D60006868676666656464636362616160605F0A
:104D70005F5E5E5D5D5C5C5B5B5A5A595958585783
:104D800057565655555554545353525252515150EB
:104D900050504F4F4F4E4E4D4D4D4C4C4C4B4B4B3E
:104DA0004A4A4A4949494848484747474746464684
:104DB00045454544444444434343434242424241BF
:104DC0004141002B26D4770021D01CB54FEA37078C
:104DD00003B44FF010004FF010014FF000000FBC73
:104DE000BDE810400BF1010BBBF1010F08BF5FEAFA
:104DF000170722BF12F1010211F101014FF000412A
:104E000043F1000300F0004043EA00007047F9D38B
:104E10005708DAE746EA064613F1400F4FEA16460E
:104E20001FDD13F1200FDFBF16430A460021203398
:104E30005B42C8D0C3F1200746EA064602FA07F7EC
:104E40004FEA164646EA0706C3F1200722FA03F2A4
:104E500001FA07F721FA03F14FF0000342EA0702D3
:104E6000B1E746EA020646EA06464FEA164646EA31
:104E70000106BCBF46EA0646360C4FF000034FF071
:104E800000024FF000019EE72DE9C048934630B480
:104E900091E8380007C831EA400C48BF34EA430CB7
:104EA00003D5FFF7F2FDFFF78CFFF0BCBDE80088EB
:104EB0002DE9C048934630B491E8380007C810F097
:104EC000804F08BF13F0804F03D100F005F8FFF7C3
:104ED00078FFF0BCBDE8008820F07F4780EA03003F
:104EE00023F07F4C07EB0C03A3F57C5300F000404C
:104EF000A3F1FE0392F0000F00F0B38095F0000FD5
:104F000000F077802DE901494FEA11404FEA14463D
:104F100021EA004800FB06FC24EA064708FB06F6E7
:104F200007FB08F800FB07F718EB06484CEB164C9C
:104F30004FEA124B18EB07484FEA15464CEB174067
:104F400022EA0B4E0BFB06FC25EA06470EFB06F693
:104F500007FB0EFE0BFB07F71EEB064E4CEB164C49
:104F60004FF000061EEB074E4CEB174B18EB0B08EF
:104F700040F1000018EB0E0B58EB000840F1000068
:104F80008F1A4FF000013CBFC943661B14BFB5EB3D
:104F9000040C00213CBFC943F61B4FEA17444EEAFC
:104FA0008E0E27EA04454FEA1C4704FB07622CEAF1
:104FB000074C05FB07F70CFB05F604FB0CFC16EB96
:104FC000074642EB174216EB0C4642EB1C421BEB2A
:104FD000060658EB0202414146EA9E0601D5BDE8AD
:104FE0000189B619524141EB0101A3F10103BDE86A
:104FF00001894FEA14454FEA114724EA054621EAA0
:10500000074C05FB07F406FB07F70CFB06F105FB55
:105010000CFC11EB074144EB17444FEA124711EB2C
:105020000C4144EB1C4422EA074C05FB07F206FB4B
:1050300007F70CFB06F605FB0CFC16EB074642EBEC
:10504000174216EB0C4642EB1C456A1854F100015E
:1050500048BF7047B619524141EB0101A3F101036A
:10506000704795F0000F37D04FEA11424FEA1447CE
:1050700021EA024624EA074C02FB07F106FB07F788
:105080000CFB06F402FB0CFC14EB074441EB17414C
:105090004FEA154714EB0C4441EB1C4125EA074C41
:1050A00002FB07F506FB07F70CFB06F602FB0CFC00
:1050B00016EB074645EB174516EB0C4645EB1C4235
:1050C000121951F1000148BF7047B619524141EB26
:1050D0000101A3F1010370474FEA14454FEA11475C
:1050E00024EA054621EA074C05FB07F106FB07F712
:1050F0000CFB06F24FF0000605FB0CFC12EB07421E
:1051000041EB174112EB0C4251EB1C4148BF704779
:10511000921841EB0101A3F101037047490050EAE5
:10512000C12018BF04204A0D18BF40F0010040F212
:10513000FF72B2EB515F08BF40F00200012808BFC8
:105140000520704730380A2801D20120704700201E
:105150007047000010B500290AD00878002807D051
:1051600005487844FFF7D8FB002801D0002010BD87
:105170000248784410BD0000F2230000EA2300003A
:1051800010B500290AD00878002807D005487844CF
:10519000FFF7C2FB002801D0002010BD0248784470
:1051A00010BD0000E2230000DA23000021F00042DD
:1051B000A2F16052B2F5801F01F0004328BFD2F186
:1051C0007F6C0BD95FEA001C43EAC20242EB5070CD
:1051D00018BF704728BF20F001007047B2F5801F4C
:1051E000BCBF184670474FEA410C1CF5001F02D2A5
:1051F000084600F086BC70B500F05CF9000000893C
:10520000FFF7F6BF4FF00040A0F5800070470000A8
:1052100010B591EA030F48BF83F0004300F1B2815B
:10522000841A71EB030C05D2121943EB0C03001B1B
:1052300061EB0C01DFF824E14FEA1154A4EB135C9D
:105240001EEA430F18BF9EEA445F73D023EA0E03A1
:10525000DCF1200E21EA045143F4801332D322FA08
:105260000CFE10EB0E0023FA0CFE41EB0E01CCF10C
:10527000200E03FA0EFE10EB0E0051F10001B1F505
:10528000801FCCF1200E32D201EB045112FA0EF243
:10529000BDE8104058BF7047401C38BF5FEA42026B
:1052A00018BF7047002814BF20F0010041F1000131
:1052B0004FEA410313F5001F38BF7047A1F1C04109
:1052C00000F046B9012A43EB0302ACF1200CDCF1FB
:1052D0001F0E32BF4FF0000E23FA0CF310EB030049
:1052E00041EB0451B4EB115FD0D0A1EB045101F5B7
:1052F000801149085FEA300001EB04510ED350F1F0
:10530000000038BF12FA0EFE08D1BDE81040C9E710
:10531000401C38BF5FEA4202CAD1C3E7BDE8104073
:105320004FEA410313F5001F38BF7047A1F1C04198
:1053300000F00EB99EEA445F08D011EA5E0FBDE8A6
:10534000104004BF01F0004100207047BDE810404C
:1053500070B500F0AFF800BF64FBBE3E0000E0FF98
:10536000DFF848C170B51CEA111E1EBF1CEA1315F8
:105370009EEA0C0F95EA0C0F00F06F8081EA03049F
:1053800023EA4C134EEAD47E21EA4C1141F48011F9
:1053900043F48013AE44A1FB024CA0FB0365AEF1C5
:1053A0007F7E361955EB0C05A1FB034C4CF1000335
:1053B000A0FB021C16EB0C06654153F100030942E9
:1053C00018BF46F0010613F4007F0BD14FEA0331FA
:1053D0004FEA0530340341EA155140EA16506FF0A8
:1053E00003020AE04FEAC3214FEAC520F40241EA72
:1053F000555140EA56506FF0020202EB2E4201EB8B
:10540000025585EACE710AD05FEA440C18BF24F039
:10541000004450F1000041F1000120EAD47040F254
:10542000FE7C624500D270BDA84214BF4FF080449C
:105430004FF04044002E08BF0024BEF1806FA8BF8B
:10544000A1F1C041BDE8704080F282804FF00000C1
:1054500001F1C04101F0004170479EEA0C0F0CEAD7
:10546000131518BF95EA0C0F06D04FF0000081EA23
:10547000030E0EF0004170BD00F01CF88900013EE3
:1054800000F007B800F009B84FEA430C5FEA5C5C33
:1054900008D081EA030100F05BB84FEA410C5FEAF3
:1054A0005C5CF6D14FF00000014970470000FF0737
:1054B0000000F87F0EF1020E2EF0030E5EF8046B72
:1054C000364205D4012A43EB030515F5001F12D817
:1054D000012841EB010C1CF5001F0CD80ED14FEA3E
:1054E000D17C15F5001F0CEB4C0C0CF1020C08BF25
:1054F0004CEBD37C04E04FF0080C01E04FEAD37C86
:105500000CEB4C0526FA05F606F00706B6F1040C7E
:1055100006D20EEB860CBDE870404CF0010C6047E3
:10552000DFE80CF0090B02024FF000414FF00000E1
:10553000A1F5002170BD19461046012851EB010468
:1055400018BFD4F5001484BF002001F0004170BDE5
:105550000808A0F500114FEA3101704791EA030FE6
:1055600010B581F000413FF55BAE83F0004300F0E1
:1055700009B8000010B591EA030F48BF83F000435B
:105580003FF54EAE841A71EB030C07D212198CF062
:10559000004C43EB0C03001B61EB0C01DFF8A4E1B2
:1055A0004FEA1154A4EB135C1EEA430F18BF9EEAA6
:1055B000445F00F0B08023EA6E03524221EA0451B6
:1055C000C3EB6E0338BF5B1EDCF1200E25D322FA3D
:1055D0000CFE10EB0E0043FA0CFE41EB0E01CCF179
:1055E000200E03FA0EFE10EB0E0051F10001CCF17B
:1055F000200E29D412FA0EF201EB0451BDE810403E
:1056000058BF7047401C1CBFB2F1004F70470028C4
:105610000CBF491C20F00100704712EB020E43EB57
:10562000030218BF4FF0010E4EEA4202ACF1200C0B
:10563000DCF11E0E54D943FA0CFE10EB0E0051F1B2
:10564000FF31CCF11E0ED5D50EF1010E12FA0EFE71
:10565000404141EB010101EB445C5FEA5C5C10D925
:1056600010EBDE7001EB045138BFBEF1004FBDE816
:10567000104018BF704700280CBF491C20F00100E3
:10568000704730D24FEAD42C11F5001124F4006495
:105690001BD0B1FA81F20B3AA41AA41ED2F1200356
:1056A000914030FA03F31943904001EBCC71002C88
:1056B00001EB0451BDE81040A8BF704701F1C041A3
:1056C0004FF0000001F000417047B0FA80F310FA8B
:1056D00003F100D110BDE41A173C4805C90AE4E7FC
:1056E00001EB045110BD491001EB0451BDE810401D
:1056F0004FEA300002E04FF0000170474A0008BF57
:105700000042F8D0B2F5001F28BF704701F00041F9
:105710004FF0000070479EEA445F07D011EA5E0F29
:10572000BDE8104004BF002100207047BDE81040D4
:1057300070B5FFF7BFFE00BF40DFF63E83F00041CB
:10574000104670470000E0FF43004FEAD30C4FEAD9
:105750003C0C43401FBF40070CF1605113F0FE4F5B
:1057600070471CF0006F03D100200CF0004170471F
:105770000CF0004343EA507010B540EACC0000F052
:105780007AF900BF000000924FEA0001FFF7E0BE87
:105790004FF000414FF00000A1F5002170470000DC
:1057A00090EA010F48BF81F0004100F1F281421AF6
:1057B0003CBF801A89184FEAD0524FF07F4C1CEA48
:1057C000410FA2EBD15318BF9CEA026F00F03B805F
:1057D0004FF0004C4CEA00204CEA012121FA03FC76
:1057E00010EB0C0C1ED202F1FF325FEA1C2040EBE2
:1057F000C25038BF70471CF07F0F4FEA400C18BFF3
:10580000BCF17F4F38BF7047C3F12003994008BFF8
:1058100020F00100BCF17F4F38BF7047A0F1C040BD
:1058200000F06FB94FEA3C00000A40EBC25028BFBD
:105830001CF0FF0F4FEA400CE6D018BFBCF17F4FC1
:1058400038BF7047EAE79CEA026F05D010EA5C0FA8
:1058500008BF00F00040704710B500F00CF900BF21
:1058600064FBBE3E401058BFC0F14040491058BFD5
:10587000C1F140418142EFF30080704741000B0EBF
:10588000D3F19E0208D950F400034FEA032323FA10
:1058900002F048BF4042704710B500F0ECF800BF7E
:1058A00049922480002070476FF0004282EA200075
:1058B0007047000010F0004148BF4042B0FA80F34A
:1058C00010FA03F2C3F19D030BD051EAC35101EB6F
:1058D0001220530638BF704700F1010008BF20F0C6
:1058E00001007047B0FA80F310FA03F2C3F19D0390
:1058F0000AD0D90501EB1220530638BF704700F1DA
:10590000010008BF20F001007047000050EA010CC0
:1059100000F113801CF5000F58BFBCF5000F01D437
:105920008842704707D710F5000F58BF11F5000FD8
:1059300015D488427047894270471CF5000F04D582
:10594000BCF5000FF7D5814270474FF0807C1CEB0F
:10595000400F38BF1CEB410F01D28142704710B598
:1059600000F089F8922449004FF000504FF0805128
:10597000FFF778BF4FF47F0C1CEAD0121EBF1CEA61
:10598000D11392EA0C0F93EA0C0F00F0478090EAD3
:10599000010F48BF42F480724FF0004C4CEA0020E7
:1059A0004CEA012102EB0302A0FB0113A2F5000265
:1059B000002918BF43F001035B0028BF4FEA3303FF
:1059C00042EB22425FEA132C4CEBC2502EBFBCEBE1
:1059D000436FB2F57C0F70474FEA036CBCF1004F88
:1059E00008BF20F00100B2F57C0F38BF70470BD51F
:1059F00082F0FF0212F5803FC8BF704700F1C0403F
:105A0000D8BF00F00040704700F5000C5FEA4C0C76
:105A100048BF7047B0F1C04000F073B890EA010F82
:105A20000CEAD11348BF42F48072624538BF634527
:105A300004D280EA010000F00040704710B500F089
:105A40001AF800BF8900013E00F007B800F009B85D
:105A50005FEA410C5FEA1C6C08D080EA010000F0AC
:105A600050B85FEA400C5FEA1C6CF6D14FF0004082
:105A7000A0F5800070470EF1020E2EF0030E5EF8C6
:105A8000044B244204D44FEA4102B2F17F4F11D8B3
:105A90004FEA4003B3F17F4F0CD80ED14FEAD07CD0
:105AA000B2F17F4F0CEB4C0C0CF1020C08BF4CEB2D
:105AB000D17C04E04FF0080C01E04FEAD17C0CEB04
:105AC0004C0324FA03F404F00704B4F1040C06D2E6
:105AD0000EEB840CBDE810404CF0010C6047DFE891
