:020000040800F2
:10000000E80D0020E9160008110400081304000898
:10001000170400081B0400081F040008000000006B
:1000200000000000000000000000000023040008A1
:100030002504000800000000270400082904000827
:100040000317000803170008031700080317000828
:1000500003170008031700084D0E0008750E00086E
:100060009F0E000803170008031700080317000875
:1000700003170008031700080317000803170008F8
:1000800003170008031700080317000803170008E8
:10009000031700080317000803170008C90E00081B
:1000A00003170008031700080317000803170008C8
:1000B000D510000861100008031700080317000896
:1000C00003170008031700080317000803170008A8
:1000D00003170008DB1500080317000823160008A3
:1000E0000317000803170008031700080317000888
:1000F0000317000803170008031700080317000878
:100100000317000803170008031700080317000867
:100110000317000803170008031700080317000857
:100120000317000803170008031700080317000847
:1001300000F002F800F090F80AA090E8000C824469
:100140008344AAF10107DA4501D100F085F8AFF246
:10015000090EBAE80F0013F0010F18BFFB1A43F0A5
:1001600001031847586E0000786E0000103A24BF53
:1001700078C878C1FAD8520724BF30C830C144BF0C
:1001800004680C607047000000230024002500264E
:10019000103A28BF78C1FBD8520728BF30C148BFEA
:1001A0000B6070476E2903F09584702904F0058078
:1001B000662905F0A082652905F09D82672905F072
:1001C0009A82612905F0998203681B0A28BF41F0D1
:1001D0008001692903F0CA82642903F0C782752966
:1001E00003F0C4826F2903F09287782903F0D18746
:1001F000E92903F02D87E42903F02A87F52903F084
:100200002787EF2903F08F87F82903F0D087036849
:10021000DB0928BF41F08001632903F0AE86732912
:1002200003F0B386E32904F0E581F32904F0EA81C1
:10023000002070471FB503F0CBFF04000020002111
:1002400004F0F2FE401C60600020002104F0D6FEA5
:10025000E0601FBD10B510BD04F06EFA1146FFF747
:10026000E9FF00F009F804F095FA03B4FFF7F2FF94
:1002700003BC04F0D9FA00001FB500F095FF4FF45D
:10028000E13001F0B3F84AA14E4801F082F900F0E4
:1002900029FD00F0AFFE4FF4A06001F0C9FF00F0AF
:1002A000E7FC00F039FD00F057FC002000F017FAE1
:1002B000002000F022FA00F075FA43A1444803F050
:1002C00015FA1023424A0021202000F08CFB00F098
:1002D00046FA41F61F4141F2873000F0CDFE00F0B2
:1002E0001BFE10213B4801F02EFB0821394801F08C
:1002F00028FB002140F2833000F033FE00F0FEFFC7
:1003000054E00A21072001F055F8334908800846D7
:10031000008805F091F8804604F0CCFF06464FF0C7
:1003200066322E4B04F0C8FE044604F093FE2C49BE
:1003300008600846006804F0BDFF0646294A2A4BBB
:1003400004F0BAFE044604F085FE28490860084619
:10035000006804F0AFFF044622460B4624A119486A
:1003600001F017F9264B08330FCB8DE80F00244816
:1003700024490CC81D48006800F080FF224908602D
:1003800008460068B0F5487F03DD4FF44870086008
:1003900006E01D480068002802DA00201A490860BB
:1003A0001948008881B2194802F07CFEA9E70000D4
:1003B00020486172647761726520696E6974204FAC
:1003C0004B0D0A000038014057656C636F6D650086
:1003D0005C000020000801401800002066664A3FCB
:1003E0002800002046175D74D1455B4024000020A2
:1003F000616E676C653A25302E32660D0A0000008A
:10040000000000200000C8411C000020000800403F
:10041000704700BFFEE700BFFEE700BFFEE700BF7A
:10042000FEE7704770477047704700000CB500202A
:10043000019000906C48006840F480306A49086080
:1004400000BF6948006800F4003000900198401C2B
:100450000190009818B90198B0F5A06FF1D16248E9
:10046000006800F4003010B10120009001E000208D
:1004700000900098012843D15C48006840F01000CB
:100480005A4908600846006820F0030008600846E2
:10049000006840F0020008605348406852494860D4
:1004A0000846406848600846406840F480604860FC
:1004B0000846406820F47C1048600846406840F4D4
:1004C000E81048600846006840F08070086000BF8F
:1004D0004548006800F000700028F9D042484068A4
:1004E00020F00300404948600846406840F00200A0
:1004F000486000BF3C48406800F00C000828F9D173
:100500000CBD10B5FFF792FF10BD10B5364800685E
:1005100040F001003449086008464068344908400A
:100520003149486008460068324908402E49086051
:100530000846006820F4802008600846406820F4DF
:10054000FE0048604FF41F008860FFF7DAFF4FF0AD
:1005500000602949086010BD10B50021002000226C
:10056000214B5B6803F00C0121B1042906D0082956
:1005700028D107E0214B224C236027E01F4B204C61
:10058000236023E0184B5B6803F47010164B5B6824
:1005900003F48032022303EB904022B9194B43430A
:1005A000174C23600DE0104B5B6803F4003323B15C
:1005B000144B4343124C236003E0104B4343104C55
:1005C000236003E00D4B0E4C236000BF00BF064BC1
:1005D0005B68C3F303130C4CE15C094B1B68CB4015
:1005E000074C236010BD00000010024000200240B4
:1005F0000000FFF8FFFFF6FE08ED00E000127A00B1
:100600002C00002000093D003000002010B54021E2
:10061000F84801F096F98021F64801F094F980211C
:10062000F44801F08EF910BD10B54021F14801F0F9
:1006300088F94021EF4801F086F910BD70B50446F5
:1006400000251BE04021EB4801F07DF904F080001B
:1006500020B18021E74801F074F903E08021E548EA
:1006600001F071F94021E34801F06BF94021E148C4
:1006700001F069F96006040E681CC5B2082DE1DBC3
:1006800070BD10B58021DB4801F05BF94021D948ED
:1006900001F057F98021D74801F055F94021D5489C
:1006A00001F051F910BD70B505460C46FFF7E9FFA2
:1006B0007820FFF7C3FFFFF7B7FF1CB14020FFF71B
:1006C000BDFF02E00020FFF7B9FFFFF7ADFF2846AE
:1006D000FFF7B4FFFFF7A8FFFFF798FF70BD10B555
:1006E00004461CB90021A620FFF7DDFF012C03D131
:1006F0000021A720FFF7D7FF10BD10B504463CB975
:100700000021C820FFF7CFFF0021A120FFF7CBFF7A
:10071000012C07D10021C020FFF7C5FF0021A02038
:10072000FFF7C1FF10BD10B500218D20FFF7BBFF03
:1007300000211420FFF7B7FF0021AF20FFF7B3FF20
:1007400010BD10B500218D20FFF7ADFF0021102056
:10075000FFF7A9FF0021AF20FFF7A5FF10BD70B57F
:1007600000241CE004F1B001C8B20021FFF79BFF98
:1007700000210846FFF797FF00211020FFF793FFA5
:10078000002508E09C4901EBC501085D0121FFF748
:100790008AFF681CC5B2802DF4DB601CC4B2082C33
:1007A000E0DB70BD70B500240CE0002506E0002001
:1007B000914901EBC5010855681CC5B2802DF6DBD7
:1007C000601CC4B2082CF0DBFFF7C9FF70BD70B528
:1007D0000A46CE1701EB5676C6F3C703CE1701EBD8
:1007E0005676F610A1EBC606F4B20122A240D5B2AD
:1007F000814A02EBC002D25C2A437F4E06EBC00660
:10080000F25470BD70B50B46CE1701EB5676C6F3A9
:10081000C702CE1701EB5676F610A1EBC606F4B26E
:100820000123A340DDB2744B03EBC0039B5CDB43AD
:10083000714E06EBC006B3546F4B03EBC0039B5CD9
:100840002B436D4E06EBC006B3546B4B03EBC0035A
:100850009B5CDB43684E06EBC006B35470BD2DE9CC
:10086000F04306460F469046002544463BE03A1BBF
:10087000D1B27219D0B2FFF7AAFF3A1BD1B2721BE4
:10088000D0B2FFF7A4FF3A19D1B2721BD0B2FFF772
:100890009EFF3A19D1B27219D0B2FFF798FF7A19B8
:1008A000D1B23219D0B2FFF792FF7A1BD1B232190E
:1008B000D0B2FFF78CFF7A1BD1B2321BD0B2FFF758
:1008C00086FF7A19D1B2321BD0B2FFF780FF6D1CC0
:1008D00005FB05F004FB040008FB1809B9F1000F43
:1008E00001DD641E6D1E6000604308FB08F1884254
:1008F000BDDABDE8F0832DE9FF4F81B080460E469A
:100900001C4600962046E31704EB5373DB10214688
:100910004FEAE47C04EB5C7C4FEAEC0CA4EBCC0CDF
:10092000BCF1000F02D04FF0010C01E04FF0000CC1
:100930006344224604EBD27C4FEA6C0C03FB0CF3BD
:1009400003F0FF0B03982038C7B2002547E00C2CBA
:1009500007D107EB4700294901EB800010F805A0FB
:1009600014E0102C05D1264800EB071010F805A064
:100970000CE0182C07D107EBC700224901EB8000DF
:1009800010F805A002E005B0BDE8F08F4FF00009B7
:100990001FE00AF0800020B131464046FFF717FF04
:1009A00003E031464046FFF72DFF4FEA4A604FEA29
:1009B000106A701CC6B20098301AA04205D1009E81
:1009C00008F1010000F0FF0806E009F1010000F065
:1009D000FF09B9F1080FDCDB00BF681CC5B25D453B
:1009E000B5DB00BFCFE7F0B506460F4614461D46FF
:1009F0001EE00000000C014070000020FE560008C0
:100A0000725B00086261000822782B463946304646
:100A1000FFF771FF284605EBD07106EB6101CEB2FE
:100A2000C5F18000B04202DA0026B81CC7B2641CCF
:100A30002078202802DB20787E28E5DDF0BD10B587
:100A40000246012000E050430B1EA1F10104E1B277
:100A5000F9D110BD2DE9F04F06468A4691461F4652
:100A6000099C00252CE0781B401EC1B20A20FFF72C
:100A7000E6FFB9FBF0F00A21B0FBF1F201FB12082E
:100A8000B8F1000F0CD1A34604EBDB71491001FB58
:100A90000561C8B2234630225146FFF72CFF0DE016
:100AA000A34604EBDB71491001FB0561C8B208F1F4
:100AB0003001CAB223465146FFF71DFF681CC5B27C
:100AC000BD42D0DBBDE8F08F70B504460D4605F1A0
:100AD000B001C8B20021FFF7E6FD102141EA141071
:100AE0000021FFF7E0FD04F00F0141F001000021BB
:100AF000FFF7D9FD70BD2DE9F05F05460E4617469C
:100B00009846DDF828B04FF00009CA460024E117E6
:100B100004EB5171C910A4EBC10101B901E0601CE3
:100B2000C4B2344614E021462846FFF7CDFFAA465A
:100B30000AE01BF809000121FFF7B5FD09F10109E1
:100B40000AF1010000F0FF0ABA45F2DB601CC4B2F2
:100B50004445E8DBBDE8F09F08B50121082001F01D
:100B6000FFF8C020ADF8000010208DF8030003202E
:100B70008DF8020069463D4800F036FEC0213B4832
:100B800000F0DFFE0021AE20FFF78DFD00210846BA
:100B9000FFF789FD00211020FFF785FD002140208F
:100BA000FFF781FD00218120FFF77DFD0021CF208F
:100BB000FFF779FD0021A120FFF775FD0021C82076
:100BC000FFF771FD0021A620FFF76DFD0021A82091
:100BD000FFF769FD00213F20FFF765FD0021D320CD
:100BE000FFF761FD00210846FFF75DFD0021D520DC
:100BF000FFF759FD00218020FFF755FD0021D92086
:100C0000FFF751FD0021F120FFF74DFD0021DA2013
:100C1000FFF749FD00211220FFF745FD0021DB20F1
:100C2000FFF741FD00214020FFF73DFD002120207E
:100C3000FFF739FD00210220FFF735FD00218D204F
:100C4000FFF731FD00211420FFF72DFD0021A42026
:100C5000FFF729FD0021A620FFF725FD0021AF2089
:100C6000FFF721FDFFF79EFD08BD0000000C0140CD
:100C700008B50121042001F073F80120ADF800004F
:100C800048208DF803006946154800F0ADFD0220AC
:100C9000ADF8000048208DF803006946104800F0C8
:100CA000A3FD0420ADF8000048208DF8030069463C
:100CB0000B4800F099FD2020ADF8000048208DF889
:100CC00003006946064800F08FFD4020ADF80000A3
:100CD00048208DF803006946014800F085FD08BDF5
:100CE0000008014008B50121082001F039F804206E
:100CF000ADF8000010208DF8030003208DF80200ED
:100D00006946044800F070FD0421024800F019FE15
:100D100008BD0000000C01400EB50121084601F09D
:100D20001FF8FFF7A5FF0521002000F073FE20202B
:100D3000019000208DF808000C208DF8090001209A
:100D40008DF80A0001A802F0FDF90621002000F04C
:100D500061FE4020019000208DF808000C208DF8E5
:100D6000090001208DF80A0001A802F0EBF9172014
:100D70008DF8000002208DF8010001208DF802009E
:100D80008DF80300684601F058FA0021084600F08B
:100D900041FE0120019000208DF8080008208DF808
:100DA000090001208DF80A0001A802F0CBF9062005
:100DB0008DF8000002208DF801008DF8020001205E
:100DC0008DF80300684601F038FA0121002000F098
:100DD00021FE0220019000208DF8080008208DF8E7
:100DE000090001208DF80A0001A802F0ABF90720E4
:100DF0008DF8000002208DF801008DF8020001201E
:100E00008DF80300684601F018FA0221002000F076
:100E100001FE0420019000208DF8080008208DF8C4
:100E2000090001208DF80A0001A802F08BF90820C2
:100E30008DF8000002208DF801008DF802000120DD
:100E40008DF80300684601F0F8F90EBD10B50A20D0
:100E500000F0E7F92E480068012807D12D48006806
:100E600008B9012000E000202A490860012002F0B2
:100E7000E0F910BD10B50A2000F0D3F92448001D98
:100E80000068012807D12348006808B9012000E064
:100E9000002020490860022002F0CBF910BD10B5F7
:100EA0000A2000F0BEF91A48001D0068012807D189
:100EB0001848006808B9012000E0002015490860C2
:100EC000042002F0B6F910BD10B50A2000F0A9F90F
:100ED0000F481430006850B90E48006808B9012066
:100EE00000E000200B490860202002F0A2F9084829
:100EF0001830006850B90748006808B9012000E0C0
:100F0000002004490860402002F093F910BD000061
:100F1000000121428881214208B50121042000F00E
:100F20001FFF10208DF803001820ADF800000320EB
:100F30008DF8020069462C4800F056FC012108207B
:100F400000F00EFF18208DF803004FF48070ADF80C
:100F5000000003208DF802006946244800F044FC9C
:100F600008BD30B589B005460C460121042000F0CB
:100F700004FF0121082000F0F3FE4FF48070ADF86B
:100F8000200018208DF8230003208DF8220008A9E6
:100F9000164800F029FC4FF48071144800F0D1FC91
:100FA000ADF81850ADF814400020ADF81A00ADF8B7
:100FB000160005A90E4801F07DFA7020ADF8040076
:100FC0000120ADF806000020ADF80C0001A908488A
:100FD00001F03CFB0821064801F00EFF0121044806
:100FE00001F0C4FD09B030BD00080140000C014013
:100FF000000800401FB50121022000F0BEFE0121C3
:10100000574802F08DF841F28730ADF8080041F6FC
:101010001F40ADF804000020ADF80A00ADF806004E
:1010200001A94F4801F046FA012211464C4801F04F
:10103000B8FD01214A4801F099FD4FF4C06001F06C
:10104000F7F81D208DF8000000208DF80100012028
:101050008DF802008DF80300684601F0EEF81FBD20
:1010600010B501213E4802F04AF8012803D10121C0
:101070003B4802F055F810BD7FB505460C460121EE
:10108000084600F07AFEADF80850ADF804400020A4
:10109000ADF80A00ADF8060001A94FF0804001F05C
:1010A00009FA01221146900701F07BFD1C208DF802
:1010B000000000208DF8010003208DF802000120BF
:1010C0008DF80300684601F0B8F80121880701F0A7
:1010D0004DFD7FBD70B50121880702F010F8002892
:1010E0003DD020A1234802F001FB1023214A00211A
:1010F0001846FFF778FC2048006804F0DBF8044647
:1011000022460B461DA11B4802F0F0FA1023194A93
:1011100019460020FFF767FC1B481CA10268154810
:1011200002F0E4FA1023134A20210020FFF75BFCB1
:101130001848006804F0BEF8044622460B4616A183
:101140000C4802F0D3FA10230A4A30210020FFF79E
:101150004AFCFFF704FB0121880701F0E1FF70BDA5
:101160000004004057656C636F6D6542795A4A58B8
:10117000000000005C00002024000020416E676C2D
:10118000653A25302E3266001C00002050574D3A3B
:101190002564000028000020566F6C746167653A72
:1011A00025302E326600000010B56FF0040001F00B
:1011B0008EF82E4800682E49B0FBF1F02D490870DA
:1011C0000846007800EB4001C1EBC0104FF6FF71FC
:1011D00001EAC0002849088010BD0146254A12785E
:1011E0004A434FF0E0235A6100229A611A4612697D
:1011F00042F001021A6100BF4FF0E022106900F0D6
:1012000001021AB100F48032002AF5D04FF0E0223A
:10121000126922F001024FF0E0231A6100229A6164
:1012200070470146144A12884A434FF0E0235A613E
:1012300000229A611A46126942F001021A6100BF47
:101240004FF0E022106900F001021AB100F4803280
:10125000002AF5D04FF0E022126922F001024FF08F
:10126000E0231A6100229A61704700002C000020E0
:1012700000127A0040000020420000200FB42DE947
:10128000F84F04460D462946204604F0B5F90746B6
:1012900004F09EF811900F9A119911440223109AAC
:1012A00003FB12110E9A01FB02F004F0ADF800905E
:1012B000119804F0A9F883460D9904F0D1F88146FD
:1012C000DDE91021891A0C9A01FB02F004F09CF868
:1012D0008246494604F01AF88046009904F016F850
:1012E000074604F075F8064610980F901198109074
:1012F0003046BDE8F80F5DF814FB000000B587B07C
:1013000001214FF4017000F02BFD8020ADF8180092
:1013100000208DF81B0003208DF81A0006A9314823
:1013200000F062FA4FF4004000F07EFC2E4801F01D
:1013300089FF002001908DF808008DF809004FF416
:10134000602003900020049001208DF8140001A972
:10135000254801F09EFF0121234801F0C6FF2248E5
:1013600001F0E5FF00BF204801F0E6FF0028FAD1B8
:101370001D4801F0EBFF00BF1B4801F0ECFF002807
:10138000FAD107B000BD10B504460723012221465B
:10139000154802F016F80121134801F0E6FF00BFDE
:1013A0000221114802F052F90028F9D00E4802F04B
:1013B0006FF810BD2DE9F04107460C4600250026C8
:1013C00008E03846FFF7DFFF0544C820FFF705FFB8
:1013D000701CC6B2A642F4DBB5FBF4F080B2BDE8E7
:1013E000F0810000000801400024014010B586B0E3
:1013F00004460121042000F0B3FC0121880300F021
:10140000AFFC18208DF817004FF40070ADF81400F1
:1014100003208DF8160005A9AC4800F0E5F904207A
:101420008DF817000002ADF8140003208DF81600A7
:1014300005A9A64800F0D8F901940020ADF81000E5
:101440000C20ADF80E000020ADF80C00ADF80A003D
:10145000ADF8080001A99E4800F029FD01219C4833
:1014600000F0B1FD012240F22551994800F0B7FD8E
:1014700025208DF8000001208DF8030000208DF854
:10148000010002208DF80200684600F0D6FE06B08A
:1014900010BD10B586B004460121082000F060FCA4
:1014A0000121880400F069FC8A4800F0BDFC4FF47B
:1014B0008060ADF8100003208DF8120018208DF820
:1014C000130004A9844800F08FF94FF40060ADF8D0
:1014D000100004208DF8130004A97F4800F084F95F
:1014E00000940020ADF80400ADF80600ADF8080047
:1014F000ADF80C000C20ADF80A006946754800F004
:10150000D6FC0121734800F05EFD012240F2255116
:10151000704800F064FD27208DF8140000208DF83D
:10152000150003208DF8160001208DF8170005A87E
:1015300000F083FE00206949088006B010BD0BE072
:1015400000BF6449098801F040010029F9D0017801
:10155000604A121D1180401C01780029F0D17047AB
:101560002DE9F04107460C46154600260DE014F81B
:10157000011B384600F094FD00BF4021384600F0C2
:10158000FDFD0028F9D0701C86B2AE42EFDBBDE84D
:10159000F0810FB430B5CBB0054601AC50A8009037
:1015A0004FF4947101A8009B4F9A02F085F8002037
:1015B00000900BE014F8011B284600F071FD00BFFD
:1015C0004021284600F0DAFD0028F9D020780028D4
:1015D000F0D14BB030BC5DF814FB10B540F2255192
:1015E0003B4800F0E1FD18B12021394800F0D3FD5F
:1015F00010BD00203949098801F4004181B1374903
:101600000988C8B20021364A11543A2801DD3B202E
:1016100011540121324A82F83B1000212F4A1180D7
:10162000704710B540F225512A4800F0BDFD38B38F
:10163000284800F039FDC4B22848008800F4004072
:10164000E0B926480088C0F30E003C2810DA212CAF
:1016500007D022490888411C204A118020490C5497
:101660000CE01E48008840F400401C49088005E05A
:101670001A48008840F4004018490880FFF7B9FF75
:1016800010BD0FB438B505A800901648009A04990B
:1016900002F000F800200090124802F067F985B2CD
:1016A00000240DE000BF40210A4800F067FD00283B
:1016B000F9D00C48015D074800F0F2FC601C84B2D0
:1016C000AC42EFDB38BC5DF814FB000000080140C1
:1016D0000038014000480040000C01404400002058
:1016E000F00400202C0500200948804709480047E5
:1016F000FEE7FEE7FEE7FEE7FEE7FEE7FEE7FEE7C2
:10170000FEE7FEE704480549054A064B704700001E
:101710000B05000831010008E8070020E80D002053
:10172000E8090020E809002010B50446CC488442AE
:1017300008D10121042000F02DFB0021042000F03D
:1017400029FB46E0C748844208D10121082000F067
:1017500021FB0021082000F01DFB3AE0C248844232
:1017600008D10121102000F015FB0021102000F00D
:1017700011FB2EE0BD48844208D10121202000F059
:1017800009FB0021202000F005FB22E0B84884423C
:1017900008D10121402000F0FDFA0021402000F096
:1017A000F9FA16E0B348844208D10121802000F004
:1017B000F1FA0021802000F0EDFA0AE0AE48844200
:1017C00007D10121801500F0E5FA0021A01500F0F5
:1017D000E1FA10BD10B50121084600F0DBFA002146
:1017E000012000F0D7FA10BD2DE9F0410246002596
:1017F0000026002000230024002791F803C00CF0ED
:101800000F0591F803C00CF0100CBCF1000F03D0D1
:1018100091F802C04CEA050591F800C0BCF1000F38
:1018200031D0146800202BE04FF0010C0CFA00F3CB
:10183000B1F800C00CEA03069E4220D183004FF0AD
:101840000F0C0CFA03F7BC4305FA03FC4CEA040442
:1018500091F803C0BCF1280F06D14FF0010C0CFA2F
:1018600000FCC2F814C00AE091F803C0BCF1480FB4
:1018700005D14FF0010C0CFA00FCC2F810C0401C5E
:101880000828D1D31460B1F800C0BCF1FF0F34DDDB
:10189000546800202EE000F1080C4FF0010808FA0F
:1018A0000CF3B1F800C00CEA03069E4221D183007C
:1018B0004FF00F0C0CFA03F7BC4305FA03FC4CEA9B
:1018C000040491F803C0BCF1280F05D100F1080C05
:1018D00008FA0CF8C2F8148091F803C0BCF1480F64
:1018E00007D100F1080C4FF0010808FA0CF8C2F813
:1018F0001080401C0828CED35460BDE8F0814FF61C
:10190000FF710180022181700421C170704702467D
:10191000002093680B400BB1012000E000207047CD
:101920000146886880B2704702460020D3680B40A9
:101930000BB1012000E0002070470146C86880B26A
:10194000704701617047416170470AB1016100E071
:1019500041617047C16070474FF480320A43826131
:101960008161826182698269704702460020434B2F
:1019700018684FF68073184040EA021008433F4B46
:10198000186070473E49C8617047F0B50A460023A9
:1019900000240021002500F00046B6F1004F02D1DE
:1019A000364EF16901E0354E7168C0F3034583B2EC
:1019B00000F44016B6F5401F08D121F070612F4E9B
:1019C000766826F070662D4F7E6012E000F4801677
:1019D000B6F5801F06D1032606FA05F4A14341F0AF
:1019E000706106E0460D360103FA06F6B14341F098
:1019F000706122B1460D360103FA06F6314300F05C
:101A00000046B6F1004F02D11C4EF16101E01B4EC1
:101A10007160F0BD30B500228B071C0F0F2303FA55
:101A200004F2164B08338C1053F824309343134CB4
:101A300008348D1044F8253023468C1053F8243098
:101A40008C07240F00FA04F423430C4C08348D1047
:101A500044F8253030BD0A49DC3108607047000089
:101A600000080140000C014000100140001401403A
:101A700000180140001C014000200140000001400E
:101A800000002042DF48006840F00100DD490860A6
:101A900008464068DC490840DA4948600846006862
:101AA000DA490840D74908600846006820F48020D9
:101AB00008600846406820F4FE0048604FF41F00AC
:101AC00088607047CF49096821F48031CD4A1160A0
:101AD0001146096821F480211160B0F5803F03D0E0
:101AE000B0F5802F0ED106E0C649096841F4803177
:101AF000C44A116007E0C349096841F4A021C14A02
:101B0000116000E000BF00BF704710B50146002221
:101B1000002300204A11012A02D1BA4C236806E0B2
:101B2000022A02D1B74C236A01E0B64C636A01F085
:101B30001F02012494401C400CB1012000E0002051
:101B400010BD38B5002000900024002500BF3120D2
:101B5000FFF7DBFF05460098401C00900098B0F5A9
:101B6000A06F01D0002DF2D03120FFF7CEFF08B1D9
:101B7000012400E00024204638BD01460020A14A8F
:101B8000106820F0F80040EAC10010607047A049DA
:101B900008607047024600209A4B586820F47C1079
:101BA00042EA01031843974B58607047984908660A
:101BB000704701460020934A506820F00300084314
:101BC000506070478F48406800F00C007047014635
:101BD00000208C4A506820F0F000084350607047A5
:101BE00001460020874A506820F4E06008435060B6
:101BF000704701460020834A506820F4605040EA54
:101C0000C1005060704729B17E4A527A02437D4B31
:101C10005A7204E07B4A527A82437A4B5A72704776
:101C20007B49D8310860704701460020754A5068EA
:101C300020F440400843506070470021714A203230
:101C40001170704A82F82010012802D004280AD1AD
:101C500004E001216B4A2032117005E00521694A38
:101C60002032117000E000BF00BF70476949086072
:101C700070476449096A0143624A116270476549C5
:101C800044390860704730B5002100220024002349
:101C90005C4D6D6805F00C0121B1042905D00829BF
:101CA00023D105E05C4D056022E05B4D05601FE03F
:101CB000544D6D6805F47012524D6D6805F4803412
:101CC000022505EB92421CB9544D554305600BE0CB
:101CD0004C4D6D6805F400351DB1504D5543056000
:101CE00002E04D4D5543056002E04B4D056000BFDD
:101CF00000BF444D6D6805F0F0010909484D6B5C6B
:101D00000568DD4045603F4D6D6805F4E061090AF6
:101D1000434D6B5C4568DD4085603A4D6D6805F468
:101D20006051C90A3E4D6B5C4568DD40C560354D6C
:101D30006D6805F44041890B3A4D6B5CC568B5FB95
:101D4000F3F5056130BD29B12E4A526902432D4B8E
:101D50005A6104E02B4A526982432A4B5A61704708
:101D600029B1284A92690243264B9A6104E0254A28
:101D700092698243234B9A61704729B1214AD26903
:101D80000243204BDA6104E01E4AD26982431D4BB4
:101D9000DA61704729B11B4AD2680243194BDA60F5
:101DA00004E0184AD2688243164BDA60704729B1C2
:101DB000144A12690243134B1A6104E0114A126972
:101DC0008243104B1A6170471249403908607047CE
:101DD0000F49C86470470B49C87170470948406A89
:101DE00040F0807007494862704701460020054A6C
:101DF00092680A400AB1012000E0002070470149C2
:101E000088727047001002400000FFF8FFFFF6FEE6
:101E1000000042428004424200127A0000093D0064
:101E2000460000205600002010B50446FB488442BE
:101E300009D101218803FFF7ADFF00214FF4804055
:101E4000FFF7A8FF32E0F648844209D10121480497
:101E5000FFF7ADFF00214FF40030FFF7A8FF25E0AA
:101E6000F048844209D101218804FFF7A0FF002136
:101E70004FF48020FFF79BFF18E0EB48844209D124
:101E80000121C804FFF793FF00214FF40020FFF762
:101E90008EFF0BE0E548844208D101210805FFF7D9
:101EA00086FF00214FF48010FFF781FF10BD2DE960
:101EB000F04786B005460E460024A24600BFA14664
:101EC0000027B08900B100BF2F462C8A4CF6FF7066
:101ED0000440F08804432C82AC894EF6F310044091
:101EE000B08831890843718908430443AC81AC8AC6
:101EF0004FF6FF400440B0890443AC8201A8FFF7CD
:101F0000C2FEC648874202D1DDF810A001E0DDF82C
:101F10000CA0A88900F4004040B10AEBCA0000EB15
:101F20000A1031684900B0FBF1F807E00AEBCA007B
:101F300000EB0A1031688900B0FBF1F86420B8FBAF
:101F4000F0F004012009642101FB1089A88900F444
:101F5000004040B1322000EBC900B0FBF1F000F0CE
:101F60000700044308E0322000EB09106421B0FBB5
:101F7000F1F000F00F0004432C8106B0BDE8F087BB
:101F80004FF41651016000218180C18001810C2134
:101F9000418100218181704710B502460020108ADE
:101FA0004FF2FF0318400B884C8823438C8823434F
:101FB000CC8823431843108210BD0021018041804A
:101FC0008180C180704721B1828942F400528281B0
:101FD00004E082894DF6FF731A4082817047F0B5A4
:101FE0000346002400260025002040F66A17B94267
:101FF00000D100BF1846C1F3421401F01F060127AB
:1020000007FA06F5012C01D10C3004E0022C01D1B5
:10201000103000E014301AB107682F43076002E067
:102020000768AF430760F0BD1AB1838A0B43838210
:1020300002E0838A8B4383827047028A4FF6F073F3
:102040001A400282028A0A430282704782894FF252
:10205000FF731A40828182890A438281704721B1CD
:10206000828942F00202828104E082894FF6FD7388
:102070001A4082817047028A4FF6DF731A4002824B
:10208000028A0A430282704721B1028A42F48042E6
:10209000028204E0028A4BF6FF731A400282704704
:1020A000C1F308028280704701468888C0F30800A7
:1020B0007047818941F0010181817047028BD2B262
:1020C0000283028B42EA012202837047028B02F4F0
:1020D0007F420283028B0A430283704721B1828AC6
:1020E00042F02002828204E0828A4FF6DF731A40B7
:1020F0008282704721B1828A42F01002828204E01B
:10210000828A4FF6EF731A408282704721B1828A29
:1021100042F00802828204E0828A4FF6F7731A4086
:102120008282704721B1828942F40042828103E0B9
:102130008289C2F30E028281704721B1828A42F401
:102140000062828204E0828A4FF2FF731A40828228
:102150007047828A4FF6FB731A408282828A0A4352
:102160008282704721B1828A42F00202828204E0B8
:10217000828A4FF6FD731A40828270470246002021
:10218000B1F5007F00D100BF13880B400BB10120D7
:1021900000E00020704701F40072B2F5007F00D12A
:1021A00000BFCA430280704770B502460024002376
:1021B0000025002040F66A16B14200D100BFC1F3ED
:1021C000421501F01F03012606FA03F3012D02D187
:1021D0009689334006E0022D02D1168A334001E091
:1021E000968A33400C12012606FA04F4168834400D
:1021F00013B10CB1012000E0002070BD10B5002229
:10220000002340F66A14A14200D100BF0A12012443
:102210009440A3B2DC43048010BD000000380140AC
:102220000044004000480040004C00400050004086
:1022300031490143314A1160704770B500210023D4
:102240000F22C47804B32D4C246804F4E064C4F570
:10225000E064210AC1F10403CA40447804FA03F19E
:102260008478144021430901254C0678A15504784F
:1022700004F01F050124AC4005786D11AD0005F197
:10228000E025C5F8004109E0047804F01F050124A9
:10229000AC401C4D0678761145F8264070BD1A4AB0
:1022A0000A400243154B1B1F1A60704739B1134A8D
:1022B000121D12680243114B1B1D1A6006E00F4AE3
:1022C000121D126882430D4B1B1D1A6070470428B3
:1022D00008D14FF0E021096941F004014FF0E022FC
:1022E000116107E04FF0E021096921F004014FF08E
:1022F000E0221161704700000000FA050CED00E0DB
:1023000000E400E080E100E080FFFF1F10B504461C
:10231000FE48844208D10121C014FFF73BFD002193
:10232000E014FFF737FDC4E0B4F1804F08D101217C
:102330000846FFF73CFD00210120FFF738FDB8E01B
:10234000F348844208D101210220FFF730FD00212B
:102350000220FFF72CFDACE0EE48844208D10121B9
:102360000420FFF724FD00210420FFF720FDA0E05A
:10237000E948844208D101210820FFF718FD002117
:102380000820FFF714FD94E0E448844208D10121BD
:102390001020FFF70CFD00211020FFF708FD88E05A
:1023A000DF48844208D101212020FFF700FD0021F1
:1023B0002020FFF7FCFC7CE0DA48844208D10121B0
:1023C0004014FFF7E7FC00216014FFF7E3FC70E026
:1023D000D548844209D10121C804FFF7DBFC002164
:1023E0004FF40020FFF7D6FC63E0D048844209D1C7
:1023F00001210805FFF7CEFC00214FF48010FFF704
:10240000C9FC56E0CA48844209D101214805FFF7BA
:10241000C1FC00214FF40010FFF7BCFC49E0C548A7
:10242000844208D101214020FFF7C1FC0021402057
:10243000FFF7BDFC3DE0C048844208D10121802067
:10244000FFF7B5FC00218020FFF7B1FC31E0BB486D
:10245000844208D101218015FFF7A9FC0021A015B5
:10246000FFF7A5FC25E0B648844209D10121080404
:10247000FFF790FC00214FF48030FFF78BFC18E051
:10248000B048844209D101214804FFF783FC0021B0
:102490004FF40030FFF77EFC0BE0AB48844208D1DC
:1024A00001218804FFF776FC00214FF48020FFF71C
:1024B00071FC10BD00220288944B98420ED0994BBB
:1024C00098420BD0B0F1804F08D0914B984205D084
:1024D000904B984202D0904B984204D14FF68F73A4
:1024E0001A404B881A438D4B984207D08C4B984228
:1024F00004D04FF6FF431A40CB881A4302808B88E2
:1025000083850B880385814B98420BD0854B98427D
:1025100008D08B4B984205D08A4B984202D08A4B08
:10252000984201D10B7A038601238382704770B5EC
:10253000002400220023058C4FF6FE7635400584EA
:10254000028C8388048B4FF68F752C40B51E2C406F
:102550000D882C43751E2A400D892A434D882A4335
:102560006A4DA8420BD06F4DA84208D0744DA842C6
:1025700005D0744DA84202D0734DA84213D14FF636
:10258000F7752A404D892A434FF6FB752A408D88FE
:102590002A434FF6FF652B404FF6FF552B408D89A0
:1025A0002B43CD892B4383800483CD888586028489
:1025B00070BD70B5002400220023058C4FF6EF7625
:1025C00035400584028C8388048B48F6FF752C40C7
:1025D0004FF6FF452C400D884FF6FF7606EA05259D
:1025E0002C434FF6DF752A400D8906EA05152A436C
:1025F0004D8806EA05152A43444DA84202D0494DAC
:10260000A8421DD14FF67F752A404D894FF6FF76BF
:1026100006EA05152A434FF6BF752A408D8806EA5B
:1026200005152A434FF6FF352B404FF2FF752B401F
:102630008D8906EA85052B43CD8906EA85052B435E
:1026400083800483CD880587028470BD70B5002423
:1026500000220023058C4FF6FF6635400584028C6E
:102660008388848B4FF68F752C404FF6FC752C4079
:102670000D882C434FF6FF552A400D894FF6FF7603
:1026800006EA05252A434D8806EA05252A431F4DFB
:10269000A84202D0234DA8421DD14FF2FF752A4017
:1026A0004D894FF6FF7606EA05252A434FF6FF359A
:1026B0002A408D8806EA05252A434EF6FF752B40F1
:1026C0004DF6FF752B408D8906EA05152B43CD8904
:1026D00006EA05152B4383808483CD888587028491
:1026E00070BD70B5002200230024058C4EF6FF76E5
:1026F00035400584038C8488828B48F6FF752A4018
:102700004FF6FF452A400D8820E00000002C0140D4
:102710000004004000080040000C00400010004091
:102720000014004000340140004C014000500140C2
:102730000054014000180040001C004000200040F0
:102740000040014000440140004801404FF6FF7640
:1027500006EA05252A434DF6FF752B400D8906EA4A
:1027600005352B434D8806EA05352B43FA4DA84223
:1027700002D0FA4DA84208D14BF6FF752C408D8946
:102780004FF6FF7606EA85152C4384808283CD8838
:10279000A0F84050038470BD828B4FF2FF331A4083
:1027A0008283828B4FF6FF7303EA01231A438283ED
:1027B0007047F0B50C461546002200210026078C14
:1027C0004EF6FF7C07EA0C070784828B018C4FF6DC
:1027D000FF7707EA043640F6FF473A404FF6FF77A7
:1027E00007EA05273A434FF6FF7707EA03373A43EC
:1027F000D94FB8420ED0D94FB8420BD0B0F1804F6C
:1028000008D0D74FB84205D0D64FB84202D0D64FE5
:10281000B84206D14DF6FF77394046F48057394328
:1028200005E047F6FF57394044F480573943828327
:102830000184F0BD828B4FF6F3731A408283828B42
:102840000A4382837047F0B50C46154600220021EA
:102850000026078C4FF6FF6C07EA0C070784828B73
:10286000018C4FF6FF7707EA04264FF60C773A40C3
:102870004FF6FF7707EA03172F433A43B64FB842A4
:102880000ED0B64FB8420BD0B0F1804F08D0B44F45
:10289000B84205D0B34FB84202D0B34FB84206D1C8
:1028A0004FF6FF57394046F48077394305E04FF241
:1028B000FF57394044F48077394382830184F0BD67
:1028C000028B4FF2FF331A400283028B4FF6FF73E5
:1028D00003EA01231A4302837047F0B50C461546FC
:1028E000002200210026078C4FF6EF7C07EA0C0738
:1028F0000784028B018C4FF6FF7707EA041640F637
:10290000FF473A404FF6FF7707EA03373A434FF65F
:10291000FF7707EA05273A438F4FB8420ED08F4F13
:10292000B8420BD0B0F1804F08D08D4FB84205D0DF
:102930008C4FB84202D08C4FB84206D14FF6DF77A9
:10294000394046F01007394305E04FF65F773940CC
:1029500044F01007394302830184F0BD028B4FF627
:10296000F3731A400283028B0A4302837047F0B567
:102970000C46154600220021068C4FF6FE773E409D
:102980000684028B018C4FF60C7632407E1C06EAE0
:1029900003162E433243704EB0420ED06F4EB042FB
:1029A0000BD0B0F1804F08D06D4EB04205D06D4EC7
:1029B000B04202D06C4EB04206D14FF6FD763140A7
:1029C00044F00106314305E04FF6F576314044F01E
:1029D0000106314302830184F0BD70B505460C4603
:1029E0005D4885420ED05D4885420BD0B5F1804FE1
:1029F00008D05B48854205D05A48854202D05A48E3
:102A0000854200D100E000BF208850B92389A28808
:102A100061882846FFF7ABFFE1882846FFF79EFF55
:102A200025E0208804280AD12389A28861882846C5
:102A3000FFF753FFE1882846FFF742FF17E02088A1
:102A400008280AD12389A28861882846FFF7FBFE5F
:102A5000E1882846FFF7EEFE09E02389A288618815
:102A60002846FFF7A6FEE1882846FFF795FE70BDD1
:102A70002DE9F04105460C4600260127608808B97B
:102A8000022600E00026A088012801D1022700E0EC
:102A900001272088A0B92389A28861882846FFF7EA
:102AA00066FFE1882846FFF759FF23893A463146F9
:102AB0002846FFF712FFE1882846FFF701FF13E0E1
:102AC0002389A28861882846FFF707FFE188284606
:102AD000FFF7F6FE23893A4631462846FFF747FFBF
:102AE000E1882846FFF73AFFBDE8F0810A884B8865
:102AF0001A438B881A43CB881A430B891A434B8994
:102B00001A438B891A43A0F8442070474FF6FF718F
:102B1000818000210180C1804180017270470021C5
:102B2000018041808180C180018141818181C18199
:102B30007047002101804180012181800021C180F6
:102B4000018170470021018041808180C180018125
:102B50004181818170470000002C01400034014018
:102B60000004004000080040000C004021B1028831
:102B700042F00102028004E002884FF6FE731A4020
:102B80000280704731B1B0F8442042F40042A0F80E
:102B9000442005E0B0F84420C2F30E02A0F844201F
:102BA00070471AB183890B43838102E083898B4389
:102BB000838170478182704741EA0203A0F8483060
:102BC00070471AB183890B43838102E083898B4369
:102BD0008381704701894FF6F87211400181704777
:102BE0000A46002101894FF68F7319401143018174
:102BF000704730B504460D4629462046FFF7F0FFE2
:102C0000208940F00700208130BD2DE9F0410446C5
:102C10000D4616461F46602D06D13B460122314621
:102C20002046FFF75AFE05E03B460122314620468A
:102C3000FFF79DFE29462046FFF7D2FF208940F08E
:102C400007002081BDE8F08130B50C4600210189E4
:102C5000C9B24FF6FF7505EA0325154325432943FD
:102C6000018130BD2DE9F04105460E4617469846D4
:102C7000002443463A4631462846FFF7E5FF2C89B3
:102C80004FF6F870044044F007044FF68F7004408C
:102C900044F070042C81BDE8F081F0B504460D4687
:102CA00016461F463B46324629462046FFF7CCFFD4
:102CB000208940F480402081F0BD018582827047E8
:102CC0000A46002101884FF68F7319401143018095
:102CD0007047F0B50C4615461E4600210022002321
:102CE0000189028B038C4FF6F877394021434FF668
:102CF000FC473A4040F201173A434FF6DD773B403C
:102D00004FF6FF7707EA06172F433B430181028303
:102D10000384F0BD0A460021018B4FF68F731940E2
:102D20001143018370470A460021018B48F6FF7367
:102D300019404FF6FF7303EA0223194301837047DA
:102D40000A460021818B4FF68F731940114381830E
:102D500070470A460021818B48F6FF7319404FF6F1
:102D6000FF7303EA022319438183704721B102886C
:102D700042F08002028004E002884FF67F731A401E
:102D80000280704721B1828842F00402828004E010
:102D900082884FF6FB731A408280704721B1828887
:102DA00042F00802828004E082884FF6F7731A40EE
:102DB0008280704721B1828842F00102828004E063
:102DC00082884FF6FE731A40828070470A460021BF
:102DD000018B4FF6F77319401143018370470A4680
:102DE0000021018B4FF2FF7319404FF6FF7303EA86
:102DF00002231943018370470A460021818B4FF655
:102E0000F77319401143818370470A460021818B73
:102E10004FF2FF7319404FF6FF7303EA0223194381
:102E2000818370470A460021018B4FF6FB731940DE
:102E30001143018370470A460021018B4FF6FF338F
:102E400019404FF6FF7303EA0223194301837047C9
:102E50000A460021818B4FF6FB7319401143818391
:102E600070470A460021818B4FF6FF3319404FF619
:102E7000FF7303EA02231943818370470A46002146
:102E8000018B4FF67F7319401143018370470A4647
:102E90000021018BC1F30E014FF6FF7303EA0223F9
:102EA0001943018370470A460021818B4FF67F73D7
:102EB00019401143818370470A460021818BC1F379
:102EC0000E014FF6FF7303EA022319438183704713
:102ED0000A460021018C4FF6FD731940114301840D
:102EE00070470A460021018C4FF6F77319401143D1
:102EF000018470470A460021018C4FF6DF731940A8
:102F00004FF6FF7303EA02131943018470470A4620
:102F10000021018C4FF67F7319404FF6FF7303EACF
:102F200002131943018470470A460021018C4FF6B1
:102F3000FF5319404FF6FF7303EA0223194301843C
:102F400070470A460021018C4FF2FF7319404FF67B
:102F5000FF7303EA02231943018470470A460021E4
:102F6000018C4DF6FF7319404FF6FF7303EA0233ED
:102F700019430184704730B5002301248C40A3B26B
:102F8000048C9C430484048C02FA01F5ADB22C43FA
:102F9000048430BD30B5002304248C40A3B2048CDB
:102FA0009C430484048C02FA01F5ADB22C430484E2
:102FB00030BD70B5034600200024184618300125A6
:102FC0008D40ACB21D8CA5431D8409B1082909D1DF
:102FD00000EB6100056825F0700505600568154384
:102FE00005600EE00D1FC5F34E052844056825F465
:102FF000E045056005684FF6FF7606EA0226354390
:10300000056070BD21B1028842F00202028004E036
:1030100002884FF6FD731A400280704721B1028882
:1030200042F00402028004E002884FF6FB731A406B
:103030000280704721B1828842F08002828004E0E1
:1030400082884FF67F731A408280704702884FF65D
:10305000F7731A40028002880A4302807047828810
:103060004FF68F731A40828082880A4382807047AD
:1030700002894FF6F8731A40028102890A430281DD
:10308000704702894FF67F731A40028102890A4312
:1030900002817047818470478185704781867047BF
:1030A0000187704781877047A0F8401070470288F9
:1030B0004FF6FF431A40028002880A43028070479D
:1030C0000146888E70470146088F70470146888FF9
:1030D00070470146B1F8400070470146888C704740
:1030E0000146088D704702460020138A0B400BB141
:1030F000012000E000207047CA430282704730B5CB
:103100000246002000230024158A05EA0103958960
:1031100005EA010413B10CB1012000E0002030BD2C
:10312000CA43028270470000002044490860091D1C
:103130000860091D0860091D086041483F491431B5
:103140000860704700213D498279002A3AD00A463A
:10315000126803689A430B461A600A1D12680368D6
:103160009A430B1D1A60027911440A6803681A43D6
:103170000A60324A0832126803689A432F4B0833B8
:103180001A601A1D126803689A432C4B0C331A609C
:103190004279102A0ED11A1F126803681A43274B6E
:1031A00008331A601A1D126803681A43234B0C3344
:1031B0001A600DE02149427911440A6803681A43F4
:1031C0000A6005E0027911440A6803689A430A60BC
:1031D00070470021016001710C2141710021817152
:1031E00070471649103109680143144A10321160C2
:1031F000704701460020114A143212680A400AB191
:10320000012000E0002070470C491431086070472D
:10321000014600200022094B1B6803EA0102074B0C
:1032200014331B680B4013B10AB1012000E00020E9
:1032300070470249143108607047000000040140E3
:10324000FFFF0F0010B50446FA48844208D101215F
:103250004015FEF79FFD00216015FEF79BFD17E06E
:10326000F548844208D101210015FEF793FD0021A5
:103270002015FEF78FFD0BE0F048844208D10121B4
:10328000C803FEF787FD00214FF40040FEF782FDE2
:1032900010BD30B50246002000235068E84C2040A5
:1032A0000D790C6844EA0524204350609068E54C91
:1032B0002040D1E902542C434D7944EA450420438F
:1032C0009060D06A20F470000C7C641EE4B223434A
:1032D00040EA0350D06230BD0021016001714171AC
:1032E0008160C16001210174704721B1826842F0A0
:1032F0000102826003E0826822F00102826070476E
:1033000021B1826842F48072826003E0826822F414
:1033100080728260704710B50023CBB21AB1446846
:103320001C43446002E044689C43446010BD8168D3
:1033300041F0080181607047014600208A6802F070
:1033400008020AB1012000E000207047816841F0C6
:10335000040181607047014600208A6802F004027F
:103360000AB1012000E00020704721B1826842F4D8
:10337000A002826003E0826822F4A00282607047AB
:10338000014600208A6802F480020AB1012000E0B0
:103390000020704710B50A4600210023416821F43F
:1033A0006041531E41EA4331416010BD21B1426882
:1033B00042F40062426003E0426822F4006242602C
:1033C0007047F0B504460D4600200021092D11DD9F
:1033D000E068A5F10A0606EB4607072606FA07F19C
:1033E0008843A5F10A0606EB460603FA06F10843F0
:1033F000E0600CE0206905EB4507072606FA07F1B7
:10340000884305EB450603FA06F108432061072AC5
:103410000FDA606B561E06EB86071F2606FA07F1C9
:103420008843561E06EB860605FA06F108436063DC
:1034300022E00D2A0FDA206BD61F06EB86071F2627
:1034400006FA07F18843D61F06EB860605FA06F151
:103450000843206310E0E06AA2F10D0606EB860740
:103460001F2606FA07F18843A2F10D0606EB860631
:1034700005FA06F10843E062F0BD21B1826842F42A
:103480008012826003E0826822F4801282607047BA
:103490000146C86C80B2704766484C30006870477F
:1034A00021B1426842F48062426003E0426822F443
:1034B00080624260704721B1426842F480524260AB
:1034C00003E0426822F48052426070470A460021BD
:1034D000816821F4E04111438160704721B1826825
:1034E00042F40042826003E0826822F4004282607B
:1034F000704721B1826842F40212826003E0826860
:1035000022F4021282607047014600208A6802F4A9
:1035100000120AB1012000E000207047F0B5044617
:103520001546002000220026092911DDE068A1F1DE
:103530000A0707EB470C072707FA0CF29043A1F1A3
:103540000A0707EB470703FA07F21043E0600CE0B5
:10355000206901EB410C072707FA0CF2904301EBBD
:10356000410703FA07F210432061A06BC0F3015634
:10357000EF1C06F1010CA7EB0C0707EB870C1F27CC
:1035800007FA0CF29043EF1C06F1010CA7EB0C07B5
:1035900007EB870701FA07F21043A063F0BD10B5EF
:1035A0000A4600210023816B21F44011531E41EA99
:1035B0000351816310BD08B5002300930090009B68
:1035C0000B440093009B1A6008BD08B5024600201A
:1035D0000090009201F12800009B18440090009890
:1035E000006880B208BD0A4600214168164B1940A8
:1035F0001143416070474162826270470A46002170
:10360000416821F01F0111434160704740B10949F1
:103610000831096841F40001064A0832116007E0E8
:1036200004490831096821F40001024A0832116096
:10363000704700000024014000280140003C014088
:10364000FFFEF0FFFDF7F1FFFFFD3FFF0246002008
:1036500013680B400BB1012000E000207047CA4303
:103660000260704770B502460020002300240B1250
:103670005568CEB205EA060415681D4015B10CB1B7
:10368000012000E0002070BD00220A12D343036035
:10369000704700001CB50C46064B7B446946009001
:1036A000204600F040FC04460020694600F04EFC35
:1036B00020461CBDAF0800007CB51D4616460C0018
:1036C000009001D02044401E074B7B442A466946A7
:1036D0000190304600F027FC05461CB100206946E9
:1036E00000F034FC28467CBD890800000FB41CB5EE
:1036F000084B06AA7B4469460090059800F013FC2D
:1037000004460020694600F021FC20461CBC5DF800
:1037100014FB00005508000070B50C460546012A50
:1037200005D02878800600D5EA69002302E001234D
:1037300005E05B1C934202D2E05C0028F9D1A86945
:10374000E618C01AA861286A18442862284600F0C2
:103750002FF904E0D5E9012114F8010B9047B44298
:10376000F8D3284600F03AF970BD00002DE9F04189
:103770000646002410687529314616A510D000F0C1
:103780003EF9002802DA404213A507E031688A07B3
:1037900001D512A502E0490704D511A5012401E0D5
:1037A00000F036F900210A2206F1240709E0B0FBF7
:1037B000F2FCB0FBF2F302FB1C00303078541846E8
:1037C000491C0028F3D123462A463046BDE8F04183
:1037D00000F027B9000000002D0000002B000000C1
:1037E000200000002DE9F05F894604464FF0000AF2
:1037F000DFF874B1FB44C0F820A02046E168884798
:10380000002874D0252806D0D4E901219047206AE9
:10381000401C2062F1E700265F462046E1688847A9
:103820002028054607DB312D05D2781910F8200C29
:1038300008B10643F1E7B00701D526F00406C4F845
:103840001CA00027C4F818A02A2D09D0284601F092
:10385000CEFB38B304EB8708303DC8F8185019E0A8
:1038600059F8041B204604EB87029161E168884700
:10387000012F054618D1E069002820DA26F020063D
:103880001DE0D8F8180000EB800005EB4000303850
:10389000C8F818002046E1688847054601F0A7FBF4
:1038A0000028EED1012F0AD02E2D08D12046E16844
:1038B00088477F1C0546022F46F02006C4DBA0691E
:1038C000002803DA404246F00106A061F00701D06B
:1038D00026F010066C2D0BD0682D09D04C2D39D058
:1038E0006A2D35D0742D35D07A2D33D016E038E0DE
:1038F000E1682F4620468847B842054609D16C2F1B
:1039000026D04FF48060E16806432046884705468C
:1039100004E06C2F1AD04FF4807006430DB3A5F16C
:103920004100192802D8203546F400664A46294647
:10393000204626604E46FCF735FC80B101280BD0AE
:10394000F61D26F0070000F1080956E74020E4E7DD
:103950008020D8E70020D6E706F104094DE7284685
:1039600052E7206ABDE8F09FC636000010B5431C40
:1039700002E010F8011B71B18107FAD14FF001325A
:1039800002C88C1A8C4314EAC211F9D0C01A0A0674
:1039900003D0C01E10BDC01A10BD0A0401D0801E85
:1039A00010BD0902FCD0401E10BD70477047704723
:1039B00070B5044685690068C10601D5302600E06F
:1039C0002026C00707D070BDD4E9012130469047BA
:1039D000206A401C20626D1EF6D570BD70B504468D
:1039E00085690078C00707D170BDD4E90121202086
:1039F0009047206A401C20626D1EF6D570BD096894
:103A00004A0501D540B27047C905FCD500B27047E0
:103A100009684A0501D5C0B27047C905FCD580B216
:103A200070472DE9F0470D4699469246044600F14D
:103A300024080168880604D5E06921F0100121609E
:103A400000E00120A84201DD471B00E00027A1693A
:103A50007A1902EB0900081AA0612078C00602D486
:103A60002046FFF7A5FF002608E0D4E901211AF857
:103A700006009047206A401C761C20624E45F4DB0D
:103A80002078C0060AD52046FFF792FF06E0D4E969
:103A9000012130209047206A401C2062381EA7F187
:103AA0000107F4DC07E0D4E9012118F8050090478C
:103AB000206A401C2062281EA5F10105F3DC204687
:103AC000FFF78CFF2078000602D50220BDE8F087C2
:103AD0000120FBE711680268006A530501D50870F0
:103AE0000AE0D30501D5088006E0130603D5C21706
:103AF000C1E9000200E008600120704770472DE92D
:103B0000FF4F0C461E464FF0FF378BB0D2E9000145
:103B1000DDF860800A908A46C1F30A5505B93D4632
:103B2000002108464FF00000BAF1000F00F44000F9
:103B300005DA00EB80004FF4400101EA50004FEA43
:103B40009059B9F1010F00DDB9460A9850EA4A00D0
:103B50000ED044F61050A5F2FF3545432F14B8F1AE
:103B6000000F1ED07542291E1EDDC9F100021CE0A7
:103B7000B8F1010F4FF0000001D0302103E0F24313
:103B800005E02154401CB042FBDB304600220021FE
:103B900021540B99C1F80880C1E900200FB0BDE89D
:103BA000F08FBD1B6D1CDEE74A4600DA694206A8AD
:103BB00000F02CFD06AB93E8070003AB83E8070099
:103BC00050460A9900F037FE8DE80700A0F5005036
:103BD0001F3800900398002D0ADD42F21F014A466B
:103BE0000844002303A90390684601F0A0F809E007
:103BF000A0F500504A461F38002303A903906846E9
:103C000001F0AAF88DE807000004000C03D04FF083
:103C1000FF30410800E01046B8F1000F03D0002249
:103C2000009215461EE0751E05D400F0D5FA30321C
:103C300062556D1EF9D5B3460122084302D0002219
:103C40007F1C04E02078302801D100227F1E002A4A
:103C5000099784D01DE0112D07DA00F0BDFA30324B
:103C600062556D1C50EA0102F5D1084302D000985C
:103C7000C8B10EE00021681E05E0235C625C63545D
:103C80002254401E491C8142F7DBAB46A81B401E54
:103C90000990002004F80B000B98099AC0F80880DE
:103CA000C0E9002B7AE711264FF0000857E72DE90D
:103CB000F04F88460446D21D22F0070191B0D1E9A9
:103CC0000001CDE90A0101F07EF902460B98C00F10
:103CD00001D02D2007E02068810701D52B2002E0CC
:103CE000202101EAC000032A099001D0072A05DB40
:103CF00003464146204600F033FC0BE12078800665
:103D000001D5E06900E00620B8F1650F814606D0D4
:103D1000B8F1660F18D0B8F1670F70D131E000200C
:103D2000B9F1110F009001DB112301E009F101034A
:103D30000AAA01A90CA8FFF7E2FEDDE90C70002633
:103D400009F10105834647E001204B4600904FF002
:103D500000470AAA01A90CA8FFF7D1FEDDE90DB0C2
:103D60000C995D46002610B909F101000D18B9EB58
:103D7000050003D4C0F1FF3609F10105A5EB0900E8
:103D80002BE0B9F1010F01DA4FF001090020B9F180
:103D9000110F0090484601DD112300E003460AAAF6
:103DA00001A90CA8FFF7ABFEDDE90C704D4600261B
:103DB0008346207800070AD4AB4500DA5D4601A8A7
:103DC000012D04DD411911F8011C302907D04F45A0
:103DD00002DA17F1040F04DA012082460FE06D1EAB
:103DE000EEE7002F02DCED1B3E4403E0781CA84206
:103DF00000DD7D1CB81B00F1010A4FF00047207860
:103E0000000703D4AA4501DB4FF0FF3A0021B7F1C8
:103E1000004F0DF143088DF8431024D002202B23CE
:103E2000002F01DA7F422D230A21021EA0F101009A
:103E300000DC5FB197FBF1FC97FBF1F201FB1C7C0E
:103E400017460CF1300C08F801CDEEE7A8F101009F
:103E500003702188090501D5452100E06521A0F105
:103E6000010800F8011C09980FA9A1EB0807FF1D24
:103E700000B10120411901EBEA70A1693844081A28
:103E8000401EA0612078C00602D42046FFF790FDB6
:103E9000099828B1D4E901219047206A401C20628A
:103EA0002078C00622D52046FFF782FD1EE0002EB6
:103EB00004DBB34502DD01A8805D00E03020D4E9D9
:103EC00001219047206A401C2062761CAAF1010063
:103ED0005FEA000A0AD100F07BF9C0680168405C23
:103EE000D4E901219047206A401C2062281EA5F1D8
:103EF0000105DCDC07E0D4E9012118F8010B90474B
:103F0000206A401C2062381EA7F10107F3DC20461E
:103F1000FFF764FD032011B041E6000001694A1C6F
:103F200002610878704700B58FB0CDE901310021FA
:103F3000059105497944CDE9031011466846FFF71C
:103F400051FC0FB000BD0000E5FFFFFF0A6802F85A
:103F5000010B0A607047D1E900239A4202D2531C38
:103F60000B601070704710B5436913B1AFF3008058
:103F700001E0FFF7D1FB012010BD127800F1240110
:103F80000A7000224A700122EDE711684FF0FF32FB
:103F9000E9E700002DE9FF5F15468A460446DFF891
:103FA000AC80F8440027D8E900103E46CDE9001067
:103FB00010E03AF816106A4602A800F099FB411C7E
:103FC00007D02178890603D5E269391891420DD8C6
:103FD0000744761C2078800602D5E069B84205DDEA
:103FE000AE42E6DB3AF816000028E2D1A069C01B19
:103FF000A0612046FFF7DCFCD8E90010CDE90010F5
:10400000002017E03AF818106A4602A800F070FB8A
:10401000B0F1FF3F81460BD000250DF1080B05E004
:10402000D4E901211BF8050090476D1C4D45F7D3DD
:1040300008F10100B0428046E4DB206A3844206287
:104040002046FFF7CBFCBDE8FF9F00002A2F0000B1
:104050002DE9F0418046D21D22F007020025D2E969
:104060000002F52915A614D0011E72F1000106DA2E
:104070000023D0EB030063EB020211A608E0D8F89E
:1040800000108B0701D50FA602E0490701D50EA647
:1040900001251146002408F1240704E000F09CF8F3
:1040A00030323A55641C50EA0102F7D12B463246B1
:1040B00021464046BDE8F041FFF7B3BC00000000D8
:1040C0002D0000002B0000002000000030B4002173
:1040D00000F1240408E002F00705D208303542EA76
:1040E0004372DB086554491C52EA0305F3D10468A6
:1040F000002310A2250707D5A40600D421B1C46966
:1041000001230DA2641EC46130BCFFF78ABC10B548
:10411000044621461068FFF77BFC02462046BDE8B6
:1041200010400023D2E7D21D22F00701D1E900237D
:10413000CCE700000000000030000000F0B40D46A5
:104140000188090502D5214C7C4402E01F4C7C44C7
:104150000E34002100F1240608E002F00F071209D6
:10416000E75D42EA03721B097754491C52EA0307D0
:10417000F3D102780023120704D5702D06D009B1BF
:10418000022311342246F0BCFFF74BBC012310344C
:10419000F8E770B504460D4621461068FFF738FC75
:1041A000024629462046BDE870400023C6E7D21DDE
:1041B00022F00703D3E90023C0E70368126843F045
:1041C000200303600823C3610023B7E78C2D0000A0
:1041D00000487047A407002030B5B0F10A024FEA4A
:1041E000900E71F100034EEA817EB0EB0E0061EBA0
:1041F00091014FEA101E4EEA017E10EB0E0041EBDA
:1042000011114FEA102E4EEA016E10EB0E0041EB39
:1042100011214FEA104E4EEA014E10EB0E0041EB19
:104220001141401841F100014FEAD00040EA4170CD
:104230004FEAD10110EB80054FEA810444EA907403
:1042400044EB01046D1944EB0404521BA3414FF0ED
:10425000000348BF0A3200D530BD401C41F10001C7
:1042600030BD00002DE9F04F04460D46D21D22F06E
:10427000070089B0D0E900974846394600F0A3FE10
:104280000246F80F01D02D2307E02068810701D5F1
:104290002B2302E0202101EAC0038DF820300BB16E
:1042A000012000E00020032A824601D0072A04DB17
:1042B0002946204600F054F93FE12078800601D4D9
:1042C0000D2500E0E569C7F30A560D2D49DA0021F6
:1042D0004FEA175B08464FF00000002F00F4400043
:1042E00007DA00EB80004FF4400100EBD07001EAE8
:1042F00060008115012901DD4FF0FF3100224FEAF6
:10430000850CBCF1180F06D31346ACF118004FF022
:104310008052C24003E04FF4801323FA0CF30CF1F7
:104320000C0CBCF1200F04D3ACF1200C09FA0CF0FA
:1043300001E007FA0CF000294FF0004801DD18B940
:104340000FE00ED140450CD319EB02095F4121B9B2
:10435000404502D19F4329EA0209BBEB175F00D019
:10436000761C2088000502D57B48784402E07A4814
:104370007844193808AA302302F80A30037C0AF17D
:104380000101002E0AF1020A53546A4602DC4FF082
:10439000300101E04FF031014FF001088DF80010BD
:1043A00002D0A6F2FF3603E059EA470100D06B4E77
:1043B000002D02DC2178090704D54FF002082E21D8
:1043C0008DF80110C44600210BE0C7F303433F0101
:1043D000C35C491C6D1E02F80830052908F101086C
:1043E00001DA002DF1DC00210CE000EB1973491C0F
:1043F0001B786D1E082902F808304FEA091908F1E8
:10440000010801DA002DF0DC21688B0602D516E0E8
:10441000A8F10108E04505DD02EB080313F8013CB3
:10442000302BF5D0B8F1000F09DD02EB080313F8CB
:10443000013C2E2B03D1090701D4A8F10108002D5E
:1044400005DD3E2102F808106D1E08F10108407CD0
:10445000002E02F8080008F1010804DA2D20764247
:1044600002F8080002E02B2002F808000A214FF4AD
:104470007A70864208F101080BDB96FBF0F33033CB
:1044800002F8083096FBF0F308F1010800FB136610
:1044900001E0642E0CDB642096FBF0F3303302F86D
:1044A000083096FBF0F308F1010800FB136601E009
:1044B0000A2E06DB96FBF1F0303002F8080008F116
:1044C000010896FBF1F001FB1060303002F80800A3
:1044D000A16908F1010808EB050202EB0A00081ABD
:1044E000A0612078C00602D42046FFF761FA216A55
:1044F00008AE01EB0A00206204E0D4E9012116F8BD
:10450000010B9047BAF1010AF7D22078C00602D514
:104510002046FFF74DFA6E4609E016F8010B3E28DB
:104520000FD0D4E901219047206A401C2062B8F1E5
:104530000108F2D22046FFF751FA09B00320BDE886
:10454000F08F206A2844206203E0D4E90121302062
:1045500090476D1EEBD3F8E7A52B000002FCFFFF90
:104560002DE9F0411F46044603260168072A01F49D
:10457000006004DB08B116A505E016A503E008B14C
:1045800015A500E015A521F010002060A069C01E4F
:10459000A0610FB1401EA0612046FFF709FA4FB19C
:1045A000D4E9012138469047206A401C2062C01C93
:1045B000206206E0206AFAE7D4E9012115F8010B30
:1045C0009047761EF8D22046FFF708FABDE8F08142
:1045D0004E414E006E616E00494E4600696E6600A7
:1045E00010B5436913B1AFF3008001E0FFF7D2FCCF
:1045F000012010BD128800F1240182840022C284AF
:104600000122EDE711684FF0FF32E9E72DE9F047AD
:10461000814616468AB0354878440DC88DE80D00AD
:1046200032487844801C03AC0DC884E80D0041F684
:104630009B300844372190FBF1F290FBF1F5A5F196
:10464000800501FB12041B3C02D56442012000E0FE
:104650000020DFF898A080460027FA44AAF1BE0A9D
:104660000EE0E0070AD03246684607EB4701012317
:104670000AEB810100F070FB8DE8070064107F1CDD
:10468000002CEED1194F7F44AE3F19E0E80715D05A
:1046900007EB04100DF1180A90E80E008AE80E00EE
:1046A000C068F04201D1981908903246012306A94A
:1046B00003A800F051FB03AB83E807006D10641CF6
:1046C000002DE3D14FF0010332466946B8F1000FE7
:1046D00003A802D000F02BFB01E000F03DFBC9E98C
:1046E0000001C9F808200AB0BDE8F0878829000059
:1046F00070B516460C46054600F044F8036893F87A
:104700000101012806D0FF2C0FD8185D68B10120E7
:104710002C7070BDD3F807013246214603F207130F
:1047200003442846BDE8704018474FF0FF3070BD85
:1047300000487047840700207546FFF7F9FFAE4632
:1047400005006946534620F00700854618B020B59D
:10475000FCF7D8FFBDE820404FF000064FF00007FF
:104760004FF000084FF0000B21F00701AC46ACE819
:10477000C009ACE8C009ACE8C009ACE8C0098D4686
:104780007047000010B5FFF723FD001D10BD00BFEE
:104790009908000010B50446AFF300802046BDE83C
:1047A0001040FBF762BD00004FF0013C50F8042BB5
:1047B00051F8043B9A4221D1A2EB0C03934313EA34
:1047C000CC1317D150F8042B51F8043B9A4215D161
:1047D000A2EB0C03934313EACC130BD150F8042B38
:1047E00051F8043B9A4209D1A2EB0C03934313EA1C
:1047F000CC13DBD04FF00000704700BFD01A01BAD5
:10480000B1FA81F101F0180122FA01F0CB40C1F1B7
:104810002001DBB2C0B2C01A2CFA01F3D11A9143C5
:1048200011EAC311E6D1704701491820ABBEFEE77B
:104830002600020070475FEA400C08BF91F0000FAD
:104840004FEA8C234FEAC12243EA51514FEA1C50F0
:1048500018BF00F5F0404FEA300018BF41F00041AA
:104860005FEA6C5C00F02980BCF1FF3F08BF40F0BC
:1048700080407047130C06BF12044FF0100C4FF02D
:10488000000C130E04BF12020CF1080C130F04BF2E
:1048900012010CF1040C930F04BF92000CF1020CF6
:1048A000D30F04BF52000CF1010C11464FF000026F
:1048B000A0F11F00A0EB0C00704711F0004F08BFE3
:1048C000704731F000413FF4D5AF0B0C06BF09042F
:1048D0004FF0100C4FF0000C0B0E04BF09020CF14E
:1048E000080C0B0F04BF09010CF1040C8B0F04BF63
:1048F00089000CF1020CCB0F04BF49000CF1010C34
:10490000CCF12003A0EB0C0022FA03F302FA0CF224
:1049100041EA030100F10100704720F07F4C80EA7A
:10492000030023F07F47ACEB070303F57C5300F053
:10493000004003F1FF032DE980494FEA154B09B40C
:104940004FEA144325EA0B4E24EA03480FF20426EB
:1049500006EB132749083E785FEA320203FB06673D
:10496000C7F5000707FB06F64FEA54374FEAD6466D
:1049700006F1020607FB066CCCF1005C4FEA1C470F
:104980002CEA074C07FB06F40CFB06F504EB154676
:104990004FEA961634BF00204FF000404FEAD1375F
:1049A00006FB07FC4FEA1C4C0CFB0BF7D21B03FB6E
:1049B0000CF761EB07010CFB0EF7B0EB074072EB55
:1049C00017420CFB08F734BFA2EB0742B2EB0742D9
:1049D00061EB17414FEA0C444FEA910706FB07FCD5
:1049E0004FEA1C4C0CFB0BF7B0EBC74072EB573295
:1049F00003FB0CF734BFA2EBC742B2EBC74261EB3B
:104A000057310CFB0EF7B0EBC70072EB57720CFB83
:104A100008F734BFA2EBC702B2EBC70261EB5771D4
:104A2000039F4FEA816141EA921104EBCC044FEA03
:104A3000D1374FEA826206FB07FC42EA90124FEA46
:104A400080604FEA1C4C0CFB0BF7D21B03FB0CF7EE
:104A500061EB07010CFB0EF7B0EB074072EB17425E
:104A60000CFB08F734BFA2EB0742B2EB074261EB45
:104A700017414FEA8C554FEA910704EB9C2406FB43
:104A800007FC4FEA1C4C0CFB0BF7B0EBC74072EB7A
:104A9000573203FB0CF734BFA2EBC742B2EBC7425D
:104AA00061EB57310CFB0EF7B0EBC70072EB57729E
:104AB0000CFB08F734BFA2EBC702B2EBC70261EBF5
:104AC000577115EB4C254FEA816141EA92114FEA8B
:104AD00082624FEAD13742EA901206FB07FC44F1AA
:104AE00000044FEA80604FEA1C4C0CFB0BF7D21B12
:104AF00003FB0CF761EB07010CFB0EF7B0EB074073
:104B000072EB17420CFB08F734BFA2EB0742B2EB83
:104B1000074261EB174115EB1C154FEA813141EA61
:104B200092414FEA823242EA90424FEA80304FEAA5
:104B30000C7644F1000448EA03434EEA0B484FF078
:104B4000000EB2EB080C71EB030724BF6246394636
:104B50004EEB0E0E4FF0000B0018524149414BEB4B
:104B60000B0BB2EB080C71EB03077BF1000B24BFBE
:104B7000624639464EEB0E0E4FF0000B00185241C4
:104B800049414BEB0B0BB2EB080C71EB03077BF1CC
:104B9000000B24BF624639464EEB0E0E51EA020767
:104BA00018BF46F0010616EB0E7655F1000254F1DF
:104BB000000103D5BDE88901BDE80088BDE8890191
:104BC000BDE80048B619524141EB0101A3F10103D0
:104BD000704780807F7E7D7C7B7A7978777676756A
:104BE0007473727171706F6E6E6D6C6C6B6A6A69E2
:104BF0006868676666656464636362616160605F7C
:104C00005F5E5E5D5D5C5C5B5B5A5A5959585857F4
:104C1000575656555555545453535252525151505C
:104C200050504F4F4F4E4E4D4D4D4C4C4C4B4B4BAF
:104C30004A4A4A49494948484847474747464646F5
:104C40004545454444444443434343424242424130
:104C50004141002B9C4630D477002BD01CB54FEA45
:104C6000370703B44FF010004FF01001BAF1000FF6
:104C700006D0BCF1000FDCBF40F0080040F0080196
:104C80004FF000000FBCBDE810400BF1010BBBF171
:104C9000010F08BF5FEA170722BF12F1010211F1ED
:104CA00001014FF0004143F1000300F0004043EAEE
:104CB00000007047F9D35708D0E746EA064613F1DB
:104CC000400F4FEA16461FDD13F1200FDFBF1643DA
:104CD0000A46002120335B42BED0C3F1200746EADA
:104CE000064602FA07F74FEA164646EA0706C3F1F8
:104CF000200722FA03F201FA07F721FA03F14FF035
:104D0000000342EA0702A7E746EA020646EA064629
:104D10004FEA164646EA0106BCBF46EA0646360C8E
:104D20004FF000034FF000024FF0000194E72DE92F
:104D3000804C9A46934670B491E8380007C831EA2F
:104D4000400C48BF34EA430C03D5FFF7E6FDFFF7FC
:104D500080FFF0BCBDE8008C2DE9804C9A4693465C
:104D600070B491E8380007C810F0804F08BF13F006
:104D7000804F03D100F005F8FFF76BFFF0BCBDE8F2
:104D8000008C20F07F4780EA030023F07F4C07EB84
:104D90000C03A3F57C5300F00040A3F1FE0392F056
:104DA000000F00F0B38095F0000F00F077802DE940
:104DB00001494FEA11404FEA144621EA004800FB3E
:104DC00006FC24EA064708FB06F607FB08F800FB8A
:104DD00007F718EB06484CEB164C4FEA124B18EB52
:104DE00007484FEA15464CEB174022EA0B4E0BFBE7
:104DF00006FC25EA06470EFB06F607FB0EFE0BFB3C
:104E000007F71EEB064E4CEB164C4FF000061EEB60
:104E1000074E4CEB174B18EB0B0840F1000018EB5A
:104E20000E0B58EB000840F100008F1A4FF0000104
:104E30003CBFC943661B14BFB5EB040C00213CBF4B
:104E4000C943F61B4FEA17444EEA8E0E27EA044583
:104E50004FEA1C4704FB07622CEA074C05FB07F7E7
:104E60000CFB05F604FB0CFC16EB074642EB174265
:104E700016EB0C4642EB1C421BEB060658EB0202FB
:104E8000414146EA9E0601D5BDE80189B619524165
:104E900041EB0101A3F10103BDE801894FEA14458B
:104EA0004FEA114724EA054621EA074C05FB07F4BF
:104EB00006FB07F70CFB06F105FB0CFC11EB0741A9
:104EC00044EB17444FEA124711EB0C4144EB1C44EE
:104ED00022EA074C05FB07F206FB07F70CFB06F678
:104EE00005FB0CFC16EB074642EB174216EB0C4693
:104EF00042EB1C456A1854F1000148BF7047B619CF
:104F0000524141EB0101A3F10103704795F0000FFD
:104F100037D04FEA11424FEA144721EA024624EA09
:104F2000074C02FB07F106FB07F70CFB06F402FB3C
:104F30000CFC14EB074441EB17414FEA154714EB07
:104F40000C4441EB1C4125EA074C02FB07F506FB2C
:104F500007F70CFB06F602FB0CFC16EB074645EBCD
:104F6000174516EB0C4645EB1C42121951F1000196
:104F700048BF7047B619524141EB0101A3F101034B
:104F800070474FEA14454FEA114724EA054621EAE3
:104F9000074C05FB07F106FB07F70CFB06F24FF089
:104FA000000605FB0CFC12EB074241EB174112EB2C
:104FB0000C4251EB1C4148BF7047921841EB010174
:104FC000A3F101037047490050EAC12018BF042033
:104FD0004A0D18BF40F0010040F2FF72B2EB515F82
:104FE00008BF40F00200012808BF05207047303894
:104FF0000A2801D2012070470020704710B500290F
:105000000AD00878002807D005487844FFF7CCFB81
:10501000002801D0002010BD0248784410BD0000D7
:10502000D21F0000CA1F000010B500290AD008785E
:10503000002807D005487844FFF7B6FB002801D0C8
:10504000002010BD0248784410BD0000C21F0000BF
:10505000BA1F000021F00042A2F16052B2F5801F99
:1050600001F0004328BFD2F17F6C0BD95FEA001C2E
:1050700043EAC20242EB507018BF704728BF20F0CD
:1050800001007047B2F5801FBCBF184670474FEA59
:10509000410C1CF5001F02D2084600F0A8BA70B5FA
:1050A00000F0B4F800000089FFF7F6BF4FF00040B1
:1050B000A0F5800070470000DFF848C170B51CEA19
:1050C000111E1EBF1CEA13159EEA0C0F95EA0C0F69
:1050D00000F06F8081EA030423EA4C134EEAD47E89
:1050E00021EA4C1141F4801143F48013AE44A1FB3A
:1050F000024CA0FB0365AEF17F7E361955EB0C0523
:10510000A1FB034C4CF10003A0FB021C16EB0C06A8
:10511000654153F10003094218BF46F0010613F43C
:10512000007F0BD14FEA03314FEA0530340341EAE7
:10513000155140EA16506FF003020AE04FEAC3210E
:105140004FEAC520F40241EA555140EA56506FF04B
:10515000020202EB2E4201EB025585EACE710AD023
:105160005FEA440C18BF24F0004450F1000041F104
:10517000000120EAD47040F2FE7C624500D270BD8E
:10518000A84214BF4FF080444FF04044002E08BFA7
:105190000024BEF1806FA8BFA1F1C041BDE87040FE
:1051A00080F282804FF0000001F1C04101F0004127
:1051B00070479EEA0C0F0CEA131518BF95EA0C0F06
:1051C00006D04FF0000081EA030E0EF0004170BDE2
:1051D00000F01CF88900013E00F007B800F009B8A3
:1051E0004FEA430C5FEA5C5C08D081EA030100F0FF
:1051F0005BB84FEA410C5FEA5C5CF6D14FF000000F
:10520000014970470000FF070000F87F0EF1020E11
:105210002EF0030E5EF8046B364205D4012A43EBF0
:10522000030515F5001F12D8012841EB010C1CF5F0
:10523000001F0CD80ED14FEAD17C15F5001F0CEBE6
:105240004C0C0CF1020C08BF4CEBD37C04E04FF08B
:10525000080C01E04FEAD37C0CEB4C0526FA05F66E
:1052600006F00706B6F1040C06D20EEB860CBDE87C
:1052700070404CF0010C6047DFE80CF0090B0202B3
:105280004FF000414FF00000A1F5002170BD19461C
:105290001046012851EB010418BFD4F5001484BF57
:1052A000002001F0004170BD0808A0F500114FEA90
:1052B0003101704743004FEAD30C4FEA3C0C4340A6
:1052C0001FBF40070CF1605113F0FE4F70471CF0F8
:1052D000006F03D100200CF0004170470CF0004338
:1052E00043EA507010B540EACC0000F03AF900BF34
:1052F000000000924FEA0001FFF7D6BF4FF00041D7
:105300004FF00000A1F500217047000090EA010F66
:1053100048BF81F0004100F18081421A3CBF801AF1
:1053200089184FEAD0524FF07F4C1CEA410FA2EB94
:10533000D15318BF9CEA026F00F03B804FF0004C45
:105340004CEA00204CEA012121FA03FC10EB0C0C82
:105350001ED202F1FF325FEA1C2040EBC25038BF80
:1053600070471CF07F0F4FEA400C18BFBCF17F4F15
:1053700038BF7047C3F12003994008BF20F00100F7
:10538000BCF17F4F38BF7047A0F1C04000F02FB98B
:105390004FEA3C00000A40EBC25028BF1CF0FF0F50
:1053A0004FEA400CE6D018BFBCF17F4F38BF7047C2
:1053B000EAE79CEA026F05D010EA5C0F08BF00F034
:1053C0000040704710B500F0CCF800BF64FBBE3E53
:1053D00041000B0ED3F19E0208D950F400034FEAAE
:1053E000032323FA02F048BF4042704710B500F093
:1053F000B8F800BF49922480002070476FF0004247
:1054000082EA20007047000010F0004148BF40428F
:10541000B0FA80F310FA03F2C3F19D030BD051EA06
:10542000C35101EB1220530638BF704700F1010051
:1054300008BF20F001007047B0FA80F310FA03F2C1
:10544000C3F19D030AD0D90501EB1220530638BFE2
:10545000704700F1010008BF20F001007047000014
:105460004FF47F0C1CEAD0121EBF1CEAD11392EA43
:105470000C0F93EA0C0F00F0478090EA010F48BF31
:1054800042F480724FF0004C4CEA00204CEA0121BB
:1054900002EB0302A0FB0113A2F50002002918BFD2
:1054A00043F001035B0028BF4FEA330342EB224283
:1054B0005FEA132C4CEBC2502EBFBCEB436FB2F52E
:1054C0007C0F70474FEA036CBCF1004F08BF20F01F
:1054D0000100B2F57C0F38BF70470BD582F0FF0298
:1054E00012F5803FC8BF704700F1C040D8BF00F040
:1054F0000040704700F5000C5FEA4C0C48BF704755
:10550000B0F1C04000F073B890EA010F0CEAD1137B
:1055100048BF42F48072624538BF634504D280EAD6
:10552000010000F00040704710B500F01AF800BF0D
:105530008900013E00F007B800F009B85FEA410CAD
:105540005FEA1C6C08D080EA010000F050B85FEA06
:10555000400C5FEA1C6CF6D14FF00040A0F58000D3
:1055600070470EF1020E2EF0030E5EF8044B24423B
:1055700004D44FEA4102B2F17F4F11D84FEA400301
:10558000B3F17F4F0CD80ED14FEAD07CB2F17F4FF0
:105590000CEB4C0C0CF1020C08BF4CEBD17C04E082
:1055A0004FF0080C01E04FEAD17C0CEB4C0324FADD
:1055B00003F404F00704B4F1040C06D20EEB840CDF
:1055C000BDE810404CF0010C6047DFE80CF0070824
:1055D00002024FF00040A0F5800010BD08464200D6
:1055E00018BFD2F1807288BF00F0004010BDFF21CB
:1055F00041EAD050C005704780F0004090EA010FAA
:105600007FF58BAE81F0004100F007B890EA010F02
:1056100048BF81F000413FF580AE421A04D882F0C5
:105620000042A0EB020011444FEAD0524FF07F4CF1
:105630001CEA410FA2EBD15318BF9CEA026F4AD07B
:105640004FF0004C4CEA00204CEA012121FA03FC07
:10565000B0EB0C0C0FD412F0FE0F36D05FEA4C000A
:105660001DD5001240EBC25038BF70471CF03F0FF1
:1056700018BF70470BE0A2F101025FEA1C2040EB6B
:10568000C25038BF70471CF07F0F18BF7047C3F17E
:105690002003994014BF401E20F00100704780088D
:1056A0004FEA122308BF7047B0FA80FCA2EB0C024D
:1056B000CCF1280C60FA0CF093EA122F04BF00EB37
:1056C000C25070474FEAC3707047130A5FEADC109C
:1056D00008BF7047F6E79CEA026F04D010EA5C0F3F
:1056E00008BF0020704710B5FFF73BFF40DFF63ED4
:1056F00081F000407047FEF7DABAFEF7B3BD000054
:1057000000000000000000000000000000003F401A
:1057100000000000000000003000400030004000A9
:10572000000009000BC03D000BC03D00090018C07F
:1057300024407FE0224031800000180024C01B007C
:105740000D803240018003801C4027401C800740B0
:105750000040100060000000000000000000000099
:10576000000000001F80204040200000402020401A
:105770001F8000000000090006001F8006000900CD
:105780000000040004003F8004000400000000103A
:10579000006000000000000000000400040004009D
:1057A00004000400000000000040000000000000B1
:1057B0000000002001C006003800400000001F80EB
:1057C0002040204020401F800000000010403FC0CB
:1057D00000400000000018C0214022402440184032
:1057E000000010802040244024401B800000020064
:1057F0000D0011003FC0014000003C8024402440C7
:105800002440238000001F80244024403440038033
:1058100000003000200027C03800200000001B805E
:105820002440244024401B8000001C0022C0224051
:1058300022401F800000000000000840000000001F
:1058400000000000000004600000000000000000F4
:1058500004000A00110020804040090009000900EE
:1058600009000900000000004040208011000A00EB
:1058700004001800200023402400180000001F80AE
:105880002040274029401F400000004007C0390049
:105890000F0001C0004020403FC0244024401B8036
:1058A00000001F8020402040204030800000204029
:1058B0003FC0204020401F80000020403FC02440C7
:1058C0002E4030C0000020403FC024402E00300059
:1058D00000000F0010802040224033800200204052
:1058E0003FC0040004003FC02040204020403FC093
:1058F0002040204000000060202020203FC02000E9
:10590000200020403FC024400B0030C020402040F9
:105910003FC020400040004000C03FC03C0003C0EA
:105920003C003FC0000020403FC00C4023003FC06F
:1059300020001F802040204020401F800000204089
:105940003FC024402400180000001F802140214057
:1059500020E01FA0000020403FC02440260019C0C6
:10596000004018C024402440224031800000300014
:1059700020403FC020403000000020003F80004019
:1059800000403F80200020003E0001C0070038009A
:105990002000380007C03C0007C03800000020404D
:1059A00039C0060039C0204000002000384007C040
:1059B000384020000000304021C02640384020C040
:1059C0000000000000007FE04020402000000000B8
:1059D00070000C00038000400000000040204020C8
:1059E0007FE00000000000002000400020000000D8
:1059F0000000001000100010001000100010000047
:105A0000000040000000000000000000028005408F
:105A1000054003C0004020003FC004400440038014
:105A20000000000003800440044006400000000025
:105A30000380044024403FC0004000000380054034
:105A4000054003400000000004401FC024402440E3
:105A50002000000002E005500550065004202040C0
:105A60003FC00440040003C000400000044027C0C1
:105A700000400000000000100010041027E00000AB
:105A8000000020403FC00140070004C00440204007
:105A900020403FC000400040000007C0040007C095
:105AA000040003C00000044007C00440040003C019
:105AB0000040000003800440044003800000041004
:105AC00007F00450044003800000000003800440FD
:105AD000045007F00010044007C002400400040016
